:020000040800F2
:100000000000022079470008390F00083B0F000864
:100010003D0F00083F0F0008410F000800000000DE
:10002000000000000000000000000000412D00085A
:10003000430F000800000000E12D0008F52900082A
:10004000C9470008C9470008C9470008C947000850
:10005000C9470008C9470008C9470008C947000840
:10006000C9470008C9470008C9470008C947000830
:10007000C9470008C9470008C9470008C947000820
:10008000C9470008C9470008C9470008C947000810
:10009000C9470008C9470008C9470008C947000800
:1000A000C9470008C9470008C9470008C9470008F0
:1000B000C9470008C9470008C9470008C9470008E0
:1000C000C9470008C9470008C9470008C9470008D0
:1000D000C9470008C9470008C9470008C9470008C0
:1000E000C9470008C9470008C9470008C9470008B0
:1000F000C9470008C9470008C9470008C9470008A0
:10010000C9470008C9470008C9470008C94700088F
:10011000C9470008C9470008450F0008C94700083B
:10012000550F0008C9470008C9470008C94700081B
:10013000C94700080000000000000000C94700088F
:10014000C9470008C9470008C9470008C94700084F
:10015000C9470008C9470008C9470008C94700083F
:10016000C9470008C9470008C9470008C94700082F
:10017000C9470008C9470008C94700080000000037
:1001800000000000C9470008000000000000000057
:10019000C94700080000000000000000C94700082F
:1001A000000000000000000000000000C947000837
:1001B000C9470008C9470008C9470008C9470008DF
:0401C000C947000823
:1001D0000348044B834202D0034B03B118477047D6
:1001E0001000002010000020000000000548064913
:1001F0000B1AD90F01EBA301491002D0034B03B135
:100200001847704710000020100000200000000078
:1002100010B5064C237843B9FFF7DAFF044B13B14E
:100220000448AFF300800123237010BD10000020AC
:1002300000000000CC47000808B5044B1BB104497E
:100240000448AFF30080BDE80840CFE7000000009D
:1002500014000020CC47000870B50D4E0D4D761BE4
:10026000B61006D0002455F8043B01349847A64246
:10027000F9D1094E094D761B04F0A8FAB61006D044
:10028000002455F8043B01349847A642F9D170BDCB
:100290001C4900081C490008204900081C490008A6
:1002A000844641EA000313F003036DD1403A41D381
:1002B00051F8043B40F8043B51F8043B40F8043B40
:1002C00051F8043B40F8043B51F8043B40F8043B30
:1002D00051F8043B40F8043B51F8043B40F8043B20
:1002E00051F8043B40F8043B51F8043B40F8043B10
:1002F00051F8043B40F8043B51F8043B40F8043B00
:1003000051F8043B40F8043B51F8043B40F8043BEF
:1003100051F8043B40F8043B51F8043B40F8043BDF
:1003200051F8043B40F8043B51F8043B40F8043BCF
:10033000403ABDD2303211D351F8043B40F8043B6F
:1003400051F8043B40F8043B51F8043B40F8043BAF
:1003500051F8043B40F8043B103AEDD20C3205D37F
:1003600051F8043B40F8043B043AF9D2043208D077
:10037000D2071CBF11F8013B00F8013B01D30B88E9
:1003800003806046704700BF082A13D38B078DD0C7
:1003900010F003038AD0C3F10403D21ADB071CBF99
:1003A00011F8013B00F8013B80D331F8023B20F803
:1003B000023B7BE7043AD9D3013A11F8013B00F83C
:1003C000013BF9D20B7803704B7843708B788370C4
:1003D00060467047830730B548D0541E002A3FD08E
:1003E000CAB2034601E0013C3AD303F8012B9D0752
:1003F000F9D1032C2DD9CDB245EA05250F2C45EABC
:10040000054536D9A4F1100222F00F0C03F1200E9D
:10041000E6444FEA121C03F1100242E9045542E996
:10042000025510327245F8D10CF1010214F00C0F94
:1004300003EB021204F00F0C13D0ACF1040323F011
:1004400003030433134442F8045B9342FBD10CF0E2
:1004500003042CB1CAB21C4403F8012B9C42FBD10B
:1004600030BD64461346002CF4D1F9E70346144628
:10047000BFE71A46A446E0E753B94AB9002908BFC6
:1004800000281CBF4FF0FF314FF0FF3000F074B96F
:10049000ADF1080C6DE904CE00F006F8DDF804E0DB
:1004A000DDE9022304B070472DE9F047089D0446BA
:1004B0008E46002B4DD18A42944669D9B2FA82F217
:1004C00052B101FA02F3C2F1200120FA01F10CFA53
:1004D00002FC41EA030E94404FEA1C48210CBEFB8B
:1004E000F8F61FFA8CF708FB16E341EA034306FB14
:1004F00007F199420AD91CEB030306F1FF3080F0A3
:100500001F81994240F21C81023E63445B1AA4B2EF
:10051000B3FBF8F008FB103344EA034400FB07F791
:10052000A7420AD91CEB040400F1FF3380F00A81D2
:10053000A74240F207816444023840EA0640E41BC7
:1005400000261DB1D4400023C5E900433146BDE873
:10055000F0878B4209D9002D00F0EF800026C5E915
:10056000000130463146BDE8F087B3FA83F6002E2D
:100570004AD18B4202D3824200F2F980841A61EBA5
:10058000030301209E46002DE0D0C5E9004EDDE7C3
:1005900002B9FFDEB2FA82F2002A40F09280A1EBAB
:1005A0000C014FEA1C471FFA8CFE0126200CB1FB00
:1005B000F7F307FB131140EA01410EFB03F08842F9
:1005C00008D91CEB010103F1FF3802D2884200F286
:1005D000CB804346091AA4B2B1FBF7F007FB101118
:1005E00044EA01440EFB00FEA64508D91CEB0404B6
:1005F00000F1FF3102D2A64500F2BB800846A4EB11
:100600000E0440EA03409CE7C6F12007B34022FAFB
:1006100007FC4CEA030C20FA07F401FA06F31C432A
:10062000F9404FEA1C4900FA06F3B1FBF9F8200C37
:100630001FFA8CFE09FB181140EA014108FB0EF07D
:10064000884202FA06F20BD91CEB010108F1FF3ACD
:1006500080F08880884240F28580A8F102086144D9
:10066000091AA4B2B1FBF9F009FB101144EA0141E7
:1006700000FB0EFE8E4508D91CEB010100F1FF3492
:100680006CD28E456AD90238614440EA0840A0FB2A
:100690000294A1EB0E01A142C846A64656D353D000
:1006A0005DB1B3EB080261EB0E0101FA07F722FA24
:1006B00006F3F1401F43C5E9007100263146BDE84D
:1006C000F087C2F12003D8400CFA02FC21FA03F3B0
:1006D000914001434FEA1C471FFA8CFEB3FBF7F031
:1006E00007FB10360B0C43EA064300FB0EF69E4256
:1006F00004FA02F408D91CEB030300F1FF382FD2EF
:100700009E422DD9023863449B1B89B2B3FBF7F696
:1007100007FB163341EA034106FB0EF38B4208D96F
:100720001CEB010106F1FF3816D28B4214D9023EB0
:100730006144C91A46EA004638E72E46284605E7CE
:100740000646E3E61846F8E64B45A9D2B9EB02089F
:1007500064EB0C0E0138A3E74646EAE7204694E72F
:100760004046D1E7D0467BE7023B614432E7304662
:1007700009E76444023842E7704700BF70B58AB0A9
:100780000024059406940794089409940194274B37
:100790001A6B42F004021A631A6B02F0040201920F
:1007A000019A02941A6B42F080021A631A6B02F0EB
:1007B00080020292029A03941A6B42F001021A63B9
:1007C0001A6B02F001020392039A04941A6B42F02E
:1007D00002021A631B6B03F002030493049B144D83
:1007E00022462021284601F0FEF94FF400530593DC
:1007F0004FF404130693079405A90E4801F000F97D
:1008000020230593012606960794089405A92846F7
:1008100001F0F6F84FF4007305930694079605A9C6
:10082000284601F0EDF80AB070BD00BF0038024064
:10083000000002400008024000B583B0002201928F
:10084000094B196B41F4800119631B6B03F480039E
:100850000193019B0521382000F082FE382000F032
:10086000B7FE03B05DF804FB0038024008B5002273
:100870002021044801F0B7F94FF47A7002F052F9E0
:10088000F5E700BF0000024008B54FF4FA7002F02F
:1008900049F901222021044801F0A5F94FF4FA702A
:1008A00002F040F9F1E700BF0000024008B5012066
:1008B00002F038F9FBE7000000B5002303704FF4A5
:1008C0004872426040F64851816003734FF0010C5A
:1008D00080F810C04FF416724261816103774FF0C7
:1008E000020E80F820E04262816280F82C300323FF
:1008F00080F8303042634FF44863836380F83CC033
:10090000034B03644FF40073A0F844305DF804FB1C
:100910000000024000B593B06846FFF7CDFF042207
:1009200039493A4800F01AFC40E001998A4202D263
:10093000374A116041E036490A603EE005998A4233
:100940004CD2334A51609DF81C202AB1304A51687C
:100950005B1A05990B4453602B4B9A680A9B9A4289
:100960003FD92B4A93609DF82C202AB1284A9168E0
:100970005B1A09990B449360234BDA680E9B9A42E9
:1009800038D9234AD3609DF83C202AB1204AD16847
:100990005B1A0D990B44D3604FF400711D4801F0B0
:1009A0001BF91B4B1874012002F0BCF8164B1A6897
:1009B000029B9A42B9D9164A13609DF80C202AB1BD
:1009C000134A11685B1A01990B4413600E4B5A6865
:1009D000069B9A42B2D90E4A5360B4E70C494A606A
:1009E000B1E709998A4202D2094A9160BBE70849F6
:1009F0008A60B8E70D998A4202D2054AD160C2E7FF
:100A00000349CA60BFE700BF9801002054000020DE
:100A10003C0000200000024008B50268034B9A42E7
:100A200000D008BD00F0C2FAFBE700BF0010004094
:100A300072B6FEE700B585B00023009301930293E0
:100A400003932548254A02604FF480324260836058
:100A500001220261027680F82030C362204981625F
:100A6000C3600421C16180F83020436100F04AFB7B
:100A700038BB002300930122019202936946164875
:100A800000F086FCF8B90123009302230193694624
:100A9000114800F07DFCC0B90423009303230193A7
:100AA00069460D4800F074FC88B9082300930423BC
:100AB00001936946084800F06BFC50B905B05DF839
:100AC00004FBFFF7B5FFFFF7B3FFFFF7B1FFFFF739
:100AD000AFFFFFF7ADFF00BF540000200020014032
:100AE0000100000F08B50A480A4B03600A4B436037
:100AF00000238360C3604FF48042026143618361DD
:100B0000C361036201F076F800B908BDFFF790FFFA
:100B1000FC00002000540040A086010008B50A48EF
:100B20000A4B03604FF4E133436000238360C360EA
:100B300003610C2242618361C36101F02BFF00B9A4
:100B400008BDFFF775FF00BF5001002000440040C2
:100B500000B595B03422002107A8FFF73BFC002325
:100B60000293039304930593069300931F4A116C19
:100B700041F080511164126C02F080520092009A90
:100B800001931B490A6822F4404242F480420A6001
:100B90000A6802F440420192019A0222079201215E
:100BA0000A9110210B910D920E930F914FF4A8739F
:100BB0001093042311931292139207A801F0ACFA38
:100BC00080B90F23029302210391002304934FF471
:100BD00080520592069302A801F0EAF820B915B0F8
:100BE0005DF804FBFFF724FFFFF722FF0038024007
:100BF0000070004008B500F0BFF9FFF7A9FFFFF74C
:100C0000BDFDFFF719FEFFF715FFFFF76BFFFFF7BD
:100C100085FF01F0FBFE134A0421102001F090FF34
:100C2000114B1860114A0021114801F01DFF114BB2
:100C30001860114A0021114801F016FF104B18608E
:100C4000104A0021104801F00FFF104B1860104AA5
:100C50000021104801F008FF0F4B186001F0E8FE7A
:100C6000FEE700BF7C48000834000020B8480008B8
:100C70006D08000850000020584800088908000846
:100C800030000020944800081509000838000020B2
:100C900034480008AD0800082C00002000B583B0DF
:100CA000002200920D4B596C41F480415964596CFB
:100CB00001F48041009100990192196C41F080513A
:100CC00019641B6C03F080530193019B0F216FF09B
:100CD000010000F045FC03B05DF804FB0038024061
:100CE00070B588B00023039304930593069307938C
:100CF000026803F1804303F590339A4201D008B0B3
:100D000070BD04460025009503F58C335A6C42F4FF
:100D100080725A645A6C02F480720092009A0195B3
:100D20001A6B42F001021A631A6B02F0010201927F
:100D3000019A02951A6B42F002021A631B6B03F0D0
:100D400002030293029B132303930326049603A931
:100D5000144800F055FE012303930496059503A95A
:100D6000114800F04DFE1148114B0360456085604D
:100D7000C5604FF4806303614FF4805343614FF4C7
:100D8000804383614FF48073C3610562456200F064
:100D9000ADFC18B9054BA3639C63B0E7FFF748FEB1
:100DA000F8E700BF00000240000402409C00002061
:100DB0001064024030B589B0002303930493059377
:100DC000069307930268144B9A4201D009B030BDD4
:100DD00000250195114C236B43F002032363236B21
:100DE00003F002030193019B4FF44073039312231A
:100DF0000493032306930423079303A9084800F0F0
:100E0000FFFD0295236C43F400132364236C03F469
:100E100000130293029BD9E70054004000380240BF
:100E20000004024000B589B00023039304930593A6
:100E3000069307930268154B9A4202D009B05DF8F9
:100E400004FB0021019103F5FA331A6C42F40032DD
:100E50001A641A6C02F400320192019A02911A6B20
:100E600042F001021A631B6B03F001030293029B21
:100E70000C2303930223049303230693072307936E
:100E800003A9034800F0BCFDD8E700BF00440040C0
:100E90000000024030B589B0044600230193214B85
:100EA0001A6C42F010021A641B6C03F010030193D9
:100EB000019B02A903A801F051F8069BCBB901F0F0
:100EC0002DF803461848A0FB03239B0C013B174851
:100ED000174A026040F2E732C260436000230361B8
:100EE0008360836101F0A0FC054630B1284609B05B
:100EF00030BD01F013F84300E4E70C4801F030FB8B
:100F000005460028F2D1362000F062FB0F2C01D9F3
:100F10000125EBE700222146362000F021FB054B9E
:100F20001C60E3E70038024083DE1B43A801002079
:100F30000010004008000020FEE7FEE7FEE7FEE7A5
:100F4000FEE7704708B5024801F052FB08BD00BF3C
:100F5000A801002008B5024800F064FC08BD00BFED
:100F60009C000020034AD2F8883043F47003C2F892
:100F70008830704700ED00E008B50B4B1A6842F46A
:100F800000721A601A6842F480621A601A6842F4A9
:100F900080721A60032000F0D1FA0F20FFF77AFF69
:100FA000FFF77CFE002008BD003C0240034A1168A8
:100FB000034B1B780B441360704700BFF001002007
:100FC00004000020014B1868704700BFF0010020AA
:100FD0004A4B5A6822F440325A605A6841680A43C0
:100FE0005A600268536823F4807353600268536840
:100FF000016943EA012353600268536823F0407398
:1010000053600268536881680B43536002689368B9
:1010100023F40063936002689368C1680B43936094
:10102000826A374B9A4257D00268936823F0706304
:10103000936002689368816A0B43936002689368C7
:1010400023F04053936002689368C16A0B43936036
:101050000268936823F00203936002689368017E3C
:1010600043EA4103936090F82030002B3FD00268A0
:10107000536843F4006353600268536823F4604389
:10108000536001684B68426A013A43EA42334B605D
:101090000268D36A23F47003D3620168CB6AC26921
:1010A000013A43EA0253CB620268936823F4007367
:1010B00093600268936890F8301043EA412393608C
:1010C0000268936823F480639360026893684169BF
:1010D00043EA8123936070470268936823F070634A
:1010E00093600268936823F040539360B0E702680E
:1010F000536823F400635360CAE700BF0023014034
:101100000100000F38B310B50446036C43B1236CE3
:1011100013F0100F0BD00120002384F83C3010BDD9
:10112000FFF7DEFD0023636484F83C30EFE7236CB7
:1011300023F4885323F0020343F002032364204680
:10114000FFF746FF00206064236C23F0030343F0A5
:1011500001032364E0E701207047000010B582B06E
:1011600013460022019290F83C20012A00F0AE8044
:101170000446012280F83C200268906810F0010FBC
:1011800013D1906840F001009060534A1068534AB0
:10119000A2FB0020800C00EB4000019002E00198CF
:1011A0000138019001980028F9D12268906810F464
:1011B000807F03D0906820F48070906022689068EF
:1011C00010F0010F77D0206C20F4E06020F00100D7
:1011D00040F480702064526812F4806F05D0226C55
:1011E00022F4405242F480522264226C12F4805F56
:1011F00036D0626C22F006026264002284F83C2041
:10120000A26B3748D063A26B36481064A26B364895
:10121000D06422686FF0220010602068426842F0BB
:10122000806242602068826842F480728260206836
:101230000A4600F14C01A06B00F0BEFA2B4B5B6834
:1012400013F01F0F27D12368294A934211D002F5CA
:101250008072934207D0274A934214D0002033E093
:1012600000226264C9E702F50072526812F01F0F93
:10127000F1D19A6812F0405F2AD19A6842F0804218
:101280009A60002020E002F58072526812F0100F80
:10129000EFD0002018E02368154A934201D00020C7
:1012A00012E09A6812F0405F14D19A6842F08042CE
:1012B0009A60002008E0236C43F010032364636C01
:1012C00043F001036364002002B010BD0220FBE77D
:1012D0000020F9E70020F7E70000002083DE1B4331
:1012E0001F130008FD120008091300080023014025
:1012F00000200140002201407047704708B5806B14
:10130000FFF7FBFF08BD704708B5806B40230364FF
:10131000436C43F004034364FFF7F5FF08BD08B5D1
:101320000346806B026C12F0500F25D1036C43F41E
:101330000073036403689A6812F0405F19D1027E5B
:10134000BAB9DA6A12F4700F03D09A6812F4806F97
:101350000FD15A6822F020025A60036C23F4807384
:101360000364036C13F4805F03D1036C43F0010347
:101370000364FFF7C1FF08BD026C12F0100F04D127
:10138000826BD26C18469047F5E7FFF7BCFFF2E797
:1013900030B482B00023019390F83C30012B00F070
:1013A000C080012380F83C300B68092B41D90468C8
:1013B000E2689BB203EB43031E3B4FF0070C0CFAB1
:1013C00003F322EA0303E3600468E2680B8803EB9B
:1013D00043031E3B8D6805FA03F31343E3604B6838
:1013E000062B3DD80468626B03EB8303053B4FF08B
:1013F0001F0C0CFA03F322EA030363630468626BB5
:101400004B6803EB8303053BB1F800C00CFA03F310
:10141000134363630268444B9A4251D00268424BC3
:101420009A425AD0002380F83C30184602B030BCB3
:101430007047046822699BB203EB43034FF0070C2B
:101440000CFA03F322EA03032361046822690B8880
:1014500003EB43038D6805FA03F313432361BEE7EF
:101460000C2B16D805682A6B03EB8303233B1F2440
:1014700004FA03F322EA03032B6305682A6B4B6823
:1014800003EB8303233B0C8804FA03F313432B631E
:10149000C0E70568EA6A03EB8303413B1F2404FAB3
:1014A00003F322EA0303EB620568EA6A4B6803EB85
:1014B0008303413B0C8804FA03F31343EB62A9E76F
:1014C0000B68122BAAD1194B5A6822F400025A60F9
:1014D0005A6842F480025A60A0E70B68144A9342AB
:1014E00001D0112B9ED1114B5A6822F480025A6010
:1014F0005A6842F400025A600A680D4B9A4291D130
:101500000C4B1B680C4AA2FB03239B0C03EB8303CD
:101510005B000193019B002B84D0019B013B019355
:10152000F8E7022082E700BF0020014000230140CD
:10153000120000100000002083DE1B43074AD3681E
:1015400023F4E0631B041B0C000200F4E06003437F
:1015500043F0BF6343F40033D360704700ED00E015
:1015600000B5194BDB68C3F30223C3F1070CBCF1D0
:10157000040F28BF4FF0040C03F1040EBEF1060F58
:1015800018D9033B4FF0FF3E0EFA0CFC21EA0C0188
:1015900099400EFA03F322EA0303194300280BDBF8
:1015A0000901C9B200F1604000F5614080F8001304
:1015B0005DF804FB0023E5E700F00F000901C9B264
:1015C000024B1954F4E700BF00ED00E014ED00E019
:1015D000002807DB00F01F02400901239340024A64
:1015E00042F82030704700BF00E100E030B40568E9
:1015F0002C6824F480242C60046863608368402B8A
:1016000005D0036899600368DA6030BC70470368EE
:101610009A600368D960F8E710B40368D9B210394A
:101620000C4AA2FB014212090B4CA25CC2655F2965
:1016300009D923F47F7323F0030304338365806D9A
:101640005DF8044B704723F47F7323F00303836535
:10165000F5E700BFABAAAAAAF4480008836A82692A
:1016600092B9012B0AD0022B02D00BB10020704797
:10167000C36A13F0807F28D100207047C36AB3F19A
:10168000C07F24D000207047B2F5005F09D0022B44
:1016900025D9032B25D1C36A13F0807F23D10020E5
:1016A0007047032B03D8DFE803F01404140A00206A
:1016B0007047C36A13F0807F0DD100207047C36A62
:1016C000B3F1C07F09D0002070470120704701208E
:1016D00070470120704701207047012070470120AA
:1016E00070470020704701207047000070B5044625
:1016F000FFF768FC002C5BD00546022384F83530E8
:10170000002384F834302268136823F00103136047
:1017100023681A6812F0010F0AD0FFF753FC431B2D
:10172000052BF5D920236365032084F8350070BDAF
:101730001A68204810406168A2680A43E1680A43B9
:1017400021690A4361690A43A1690A43E1690A43BD
:10175000216A0A430243616A04291ED01A6026687E
:10176000756925F00705636A1D43042B07D1A36A39
:101770001D43E36A1BB12046FFF770FF90B9756106
:101780002046FFF749FFE26D3F239340836000202E
:101790006065012384F83530C9E7E16A206B0143B5
:1017A0000A43DBE740236365012084F83500BEE788
:1017B0000120BCE73F8010F038B50446856D90F8F5
:1017C000340001282BD0012084F8340094F835002F
:1017D000C0B2012804D0002384F83430022038BD80
:1017E000022084F83500002060652046FFF7FEFEE9
:1017F000E26D3F239340AB602268136843F0160309
:101800001360236C23B12268136843F0080313604C
:101810002268136843F0010313600020DFE7022011
:10182000DDE70000F0B583B0044600230193724B5E
:101830001D68724BA3FB0535AD0A876D3E68C26D0E
:1018400008239340334210D003681A6812F0040F43
:101850000BD01A6822F004021A60C26D082393406C
:10186000BB60436D43F001034365E26D0123934088
:10187000334209D02268526912F0800F04D0BB6055
:10188000636D43F002036365E26D042393403342CA
:1018900009D02268126812F0020F04D0BB60636D99
:1018A00043F004036365E26D10239340334224D078
:1018B0002268126812F0080F1FD0BB6023681A68F4
:1018C00012F4802F0DD01B6813F4002F04D1236C69
:1018D0009BB12046984710E0A36C73B1204698470F
:1018E0000BE01A6812F4807F03D11A6822F0080214
:1018F0001A60236C0BB120469847E26D2023934079
:10190000334255D02268126812F0100F50D0BB60DD
:1019100094F83530DBB2052B0ED023681A6812F428
:10192000802F33D01B6813F4002F2AD1636C002B57
:101930003ED0204698473BE02268136823F0160308
:1019400013602268536923F080035361236CA3B1B1
:101950002268136823F008031360E26D3F2393406D
:10196000BB60012384F83530002384F83430236DC4
:10197000002B3FD0204698473CE0A36C002BE7D1DA
:10198000EBE7E36BA3B12046984711E01A6812F425
:10199000807F09D11A6822F010021A60012384F8AE
:1019A0003530002384F83430E36B0BB12046984780
:1019B000636DFBB1636D13F0010F17D0052384F83D
:1019C00035302268136823F001031360019B013353
:1019D0000193AB4204D823681B6813F0010FF5D1C3
:1019E000012384F83530002384F83430E36C0BB1E4
:1019F0002046984703B0F0BD00000020B5814E1B83
:101A000000230F2B00F2DE8070B582B060E08568A5
:101A10005E000324B44025EA0405CC68B4402C439E
:101A20008460456825EA02054C68C4F300129A40B8
:101A30002A4342605AE0DC08083450F8246003F07E
:101A4000070295000F22AA4026EA020E0A69AA4060
:101A500042EA0E0240F824205CE0062200E0002268
:101A600002FA0EF22A430234574D45F82420574A11
:101A700094686FEA0C0224EA0C054E6816F4801F85
:101A800001D04CEA0405514CA560E46802EA040563
:101A90004E6816F4001F01D04CEA04054B4CE5607B
:101AA000646802EA04054E6816F4003F01D04CEA6F
:101AB0000405464C6560246822404D6815F4803F5B
:101AC00001D04CEA0402414C226001330F2B77D83D
:101AD00001229A400C6804EA020C32EA0404F4D1B0
:101AE0004C6804F00304013C012C90D94A6802F0D0
:101AF0000302032A09D0C4685D000322AA4024EA35
:101B000002048A68AA402243C2604A6802F00302C3
:101B1000022A90D004684FEA430E032202FA0EF222
:101B200024EA02044A6802F0030202FA0EF2224397
:101B300002604A6812F4403FC7D000220192244A52
:101B4000546C44F480445464526C02F48042019218
:101B5000019A9C08A51C1C4A52F8255003F0030268
:101B60004FEA820E0F2202FA0EF225EA0205194A06
:101B700090423FF474AF02F58062904216D002F5B5
:101B80008062904214D002F58062904212D002F539
:101B90008062904210D002F5806290420ED002F531
:101BA000806290423FF459AF072259E7012257E77C
:101BB000022255E7032253E7042251E705224FE7AB
:101BC00002B070BD704700BF00380140003C0140CA
:101BD00000380240000002400369194201D0012090
:101BE0007047002070470AB1816170470904816124
:101BF00070470000002800F0CC8070B5044690F8D3
:101C00003D30002B77D0242384F83D3022681368C0
:101C100023F0010313602268136843F40043136048
:101C20002268136823F40043136000F077F96268B8
:101C30005A4B9A4264D85A4B98428CBF00230123D6
:101C4000002B40F0A8805749A1FB00318B0C256880
:101C50006A6822F03F0242EA91426A6021680A6A99
:101C600022F03F0266684D4DAE424FD80133134318
:101C70000B622168CA6922F44F4222F0FF026668B3
:101C8000464B9E424CD8431E7600B3FBF6F301331D
:101C900040F6FC70034278D0C3F30B031343CB61CF
:101CA00021680B6823F0C003E269206A02431343F2
:101CB0000B6021688B6823F4034323F0FF03226940
:101CC000E068024313438B602168CB6823F0FF0375
:101CD0006269A06902431343CB602268136843F032
:101CE0000103136000202064202384F83D3020632A
:101CF00084F83E0070BD80F83C30FFF75BF882E767
:101D0000294B98428CBF0023012399E74FF4967525
:101D100005FB03F3254DA5FB03539B090133A6E700
:101D2000A368BBB9451E06EB460CB5FBFCF50135B7
:101D3000C5F30B05B5FA85F56D0945BBC3B9013887
:101D400006EB4603B0FBF3F30133C3F30B0343F499
:101D50000043A3E7451E06EB860C0CEB8C0CB5FB91
:101D6000FCF50135C5F30B05B5FA85F56D09E4E71A
:101D7000013806EB860303EB8303B0FBF3F3013377
:101D8000C3F30B0343F4404388E7042386E70123AE
:101D900084E7012070470120ACE700BFA086010066
:101DA0007F841E0083DE1B43FF083D00D34D62107D
:101DB000002800F09B8070B50D4604464F4B1B6811
:101DC00003F00F038B4208D2CBB24C4A1370136856
:101DD00003F00F038B4240F08B80236813F0020F57
:101DE00017D013F0040F04D0454A936843F4E0532E
:101DF0009360236813F0080F04D0414A936843F4BA
:101E0000604393603E4A936823F0F003A1680B435C
:101E10009360236813F0010F32D06368012B21D047
:101E20009A1E012A25D9364A126812F0020F61D093
:101E300033498A6822F0030213438B60FFF7C2F82C
:101E400006462F4B9B6803F00C036268B3EB820FCE
:101E500016D0FFF7B7F8801B41F288339842F0D9CB
:101E6000032042E0264A126812F4003FE0D101202C
:101E70003BE0234A126812F0007FD9D1012034E000
:101E80001E4B1B6803F00F03AB4207D9EAB21B4B92
:101E90001A701B6803F00F03AB422DD1236813F0B7
:101EA000040F06D0164A936823F4E053E1680B430D
:101EB0009360236813F0080F07D0114A936823F446
:101EC0006043216943EAC103936000F065F80C4B5D
:101ED0009B68C3F303130B4AD35CD8400A4B1860CA
:101EE0000A4B1868FEF7D6FF002070BD012070472E
:101EF0000120FAE70120F8E70120F6E7003C024064
:101F000000380240DC4800080000002008000020E3
:101F1000014B1868704700BF0000002008B5FFF7AC
:101F2000F7FF044B9B68C3F38223034AD35CD8407A
:101F300008BD00BF00380240EC48000808B5FFF7B4
:101F4000E7FF044B9B68C3F34233034AD35CD8409A
:101F500008BD00BF00380240EC4800080F230360B2
:101F60000B4B9A6802F0030242609A6802F0F0029A
:101F700082609A6802F4E052C2609B68DB0803F456
:101F8000E0530361034B1B6803F00F030B607047C2
:101F900000380240003C024008B55C4B9B6803F0EF
:101FA0000C03082B07D00C2B5BD0042B01D0584816
:101FB00008BD5848FCE7554B5A6802F03F025B6881
:101FC00013F4800F2AD0514B5968C1F3881C4FEA93
:101FD0004C11B1EB0C006EEB0E0E4FEA8E1343EA80
:101FE00090638101091A63EB0E03DB0043EA51732E
:101FF000C90011EB0C0C43F10003590200234FEA16
:102000004C2041EADC51FEF737FA404B5B68C3F3E2
:10201000014301335B00B0FBF3F0C9E73B4B596868
:10202000C1F3881C4FEA4C11B1EB0C006EEB0E0EA5
:102030004FEA8E1343EA90638101091A63EB0E03A2
:10204000DB0043EA5173C90011EB0C0C43F10003B0
:10205000990200234FEA8C2041EA9C51FEF70CFACA
:10206000D3E72A4B5A6802F03F025B6813F4800FF3
:1020700028D0264B5968C1F3881C4FEA4C11B1EBAC
:102080000C006EEB0E0E4FEA8E1343EA9063810153
:10209000091A63EB0E03DB0043EA5173C90011EB2D
:1020A0000C0C43F10003590200234FEA4C2041EA93
:1020B000DC51FEF7E1F9154B5B68C3F30273B0FB2B
:1020C000F3F075E7114B5968C1F3881C4FEA4C11C6
:1020D000B1EB0C006EEB0E0E4FEA8E1343EA9063E9
:1020E0008101091A63EB0E03DB0043EA5173C90057
:1020F00011EB0C0C43F10003990200234FEA8C20F2
:1021000041EA9C51FEF7B8F9D5E700BF003802401C
:102110000024F40000127A00002800F0018270B55B
:1021200082B00446036813F0010F41D0994B9B68BD
:1021300003F00C03042B32D0964B9B6803F00C0386
:10214000082B27D0934B9B6803F00C030C2B59D022
:102150006368B3F5803F5BD0B3F5A02F5ED08D4BA5
:102160001A6822F480321A601A6822F480221A60F7
:102170006368002B5CD0FEF725FF0546854B1B6886
:1021800013F4003F14D1FEF71DFF401B6428F5D95E
:102190000320CCE17F4B5B6813F4800FD2D07D4BE2
:1021A0001B6813F4003F03D06368002B00F0BA8172
:1021B000236813F0020F60D0764B9B6813F00C0F6E
:1021C0004AD0744B9B6803F00C03082B3FD0714B33
:1021D0009B6803F00C030C2B69D0E368002B75D0CF
:1021E0006D4B01221A60FEF7EDFE0546694B1B6838
:1021F00013F0020F61D1FEF7E5FE401B0228F5D96E
:10220000032094E1634B5B6813F4800FA0D0C6E712
:10221000604A136843F480331360A9E75D4B1A6882
:1022200042F480221A601A6842F480321A609FE7F2
:10223000FEF7C8FE0546574B1B6813F4003FB7D0A6
:10224000FEF7C0FE401B6428F5D903206FE1514B17
:102250005B6813F4800FBAD14E4B1B6813F0020F6A
:1022600003D0E368012B40F05F814A4A136823F0F2
:10227000F803216943EAC1031360236813F0080FD0
:1022800049D06369002B33D0434B0122C3F8802E21
:10229000FEF798FE05463F4B5B6F13F0020F3AD1F5
:1022A000FEF790FE401B0228F5D903203FE1394B91
:1022B0005B6813F4800F90D1CEE7364A136823F0A1
:1022C000F803216943EAC1031360D6E7324B0022C9
:1022D0001A60FEF777FE05462E4B1B6813F0020FBF
:1022E000CBD0FEF76FFE401B0228F5D903201EE17C
:1022F000294B0022C3F8802EFEF764FE0546254BCD
:102300005B6F13F0020F06D0FEF75CFE401B022845
:10231000F5D903200BE1236813F0040F76D01D4B91
:102320001B6C13F0805F33D100230193194B1A6C9F
:1023300042F080521A641B6C03F080530193019B9E
:102340000125164B1B6813F4807F29D0A368012B4D
:102350003AD0052B3ED00F4B1A6F22F001021A67BC
:102360001A6F22F004021A67A368002B3CD0FEF714
:1023700029FE0646074B1B6F13F0020F45D1FEF7EF
:1023800021FE801B41F288339842F3D90320CEE02E
:102390000025D6E7003802400000474200700040A8
:1023A0006B4A136843F480731360FEF70BFE064616
:1023B000674B1B6813F4807FC8D1FEF703FE801BB8
:1023C0000228F5D90320B2E0624A136F43F00103FB
:1023D0001367C9E75F4B1A6F42F004021A671A6F5E
:1023E00042F001021A67BFE7FEF7ECFD0646594BC3
:1023F0001B6F13F0020F08D0FEF7E4FD801B41F2C3
:1024000088339842F3D9032091E0EDB9A369002BFA
:1024100000F08C804F4A926802F00C02082A54D0D7
:10242000022B17D04C4B00221A66FEF7CBFD044658
:10243000484B1B6813F0007F45D0FEF7C3FD001B1F
:102440000228F5D9032072E0424A136C23F080532E
:102450001364DBE7404B00221A66FEF7B3FD054626
:102460003C4B1B6813F0007F06D0FEF7ABFD401B12
:102470000228F5D903205AE0E369226A1343626A0D
:1024800043EA8213A26A5208013A43EA0243E26A2B
:1024900043EA0263226B43EA02732E4A53602E4BD7
:1024A00001221A66FEF78EFD04462A4B1B6813F0C4
:1024B000007F06D1FEF786FD001B0228F5D9032018
:1024C00035E0002033E0002031E0012B31D0214BFA
:1024D0005B6803F48001E26991422CD103F03F0272
:1024E000216A8A4229D1616A47F6C0721A40B2EB6A
:1024F000811F24D103F44031A26A5208013AB1EBA2
:10250000024F1ED103F07062E16AB2EB016F1AD183
:1025100003F0E043226BB3EB027F16D1002006E00C
:1025200001207047012002E0012000E0002002B0FD
:1025300070BD0120FBE70120F9E70120F7E701204A
:10254000F5E70120F3E70120F1E70120EFE700BF05
:102550000070004000380240000047427047000011
:1025600090F83D30DBB2012B37D1022380F83D30AB
:102570000268D36843F00103D3600368194A9342A9
:1025800020D0B3F1804F1DD0A2F57C42934219D0E8
:1025900002F58062934215D002F58062934211D019
:1025A00002F5784293420DD002F57052934209D061
:1025B000A2F59432934205D01A6842F001021A60E3
:1025C000002070479A6802F00702062A07D01A68AE
:1025D00042F001021A60002070470120704700207D
:1025E000704700BF00000140704770477047704758
:1025F00070B504460368DE681D6915F0020F10D03F
:1026000016F0020F0DD06FF002021A61012303775A
:1026100003689B6913F0030F5ED0FFF7E6FF00230A
:10262000237715F0040F12D016F0040F0FD0236893
:102630006FF004021A610223237723689B6913F465
:10264000407F4FD02046FFF7D0FF0023237715F0BF
:10265000080F12D016F0080F0FD023686FF0080291
:102660001A61042323772368DB6913F0030F40D03A
:102670002046FFF7BAFF0023237715F0100F12D082
:1026800016F0100F0FD023686FF010021A610823A4
:1026900023772368DB6913F4407F31D02046FFF7AE
:1026A000A4FF0023237715F0010F02D016F0010FCD
:1026B0002DD115F0800F02D016F0800F2FD115F01C
:1026C000400F02D016F0400F31D115F0200F02D08C
:1026D00016F0200F33D170BDFFF786FF2046FFF7BD
:1026E00085FF9CE72046FFF77FFF2046FFF77EFF30
:1026F000ABE72046FFF778FF2046FFF777FFBAE702
:102700002046FFF771FF2046FFF770FFC9E72368F7
:102710006FF001021A612046FEF77EF9C9E72368CF
:102720006FF080021A61204600F0ABF8C7E723681B
:102730006FF040021A612046FFF759FFC5E7236892
:102740006FF020021A61204600F09AF8C3E70000FB
:102750000368344A904212D0B0F1804F0FD0A2F5F6
:102760007C4290420BD002F58062904207D002F585
:102770008062904203D002F57842904203D123F068
:1027800070034A681343274A90422AD0B0F1804F21
:1027900027D0A2F57C42904223D002F5806290427D
:1027A0001FD002F5806290421BD002F57842904221
:1027B00017D002F57052904213D002F58062904219
:1027C0000FD002F5806290420BD0A2F59832904271
:1027D00007D002F58062904203D002F580629042F9
:1027E00003D123F44073CA68134323F080034A697A
:1027F000134303608B68C3620B688362094B984282
:1028000003D003F58063984201D10B690363012370
:102810004361036913F0010F03D0036923F001033F
:10282000036170470000014040B310B5044690F8C2
:102830003D30F3B1022384F83D30214651F8040BBA
:10284000FFF786FF012384F8463084F83E3084F891
:102850003F3084F8403084F8413084F8423084F8C6
:10286000433084F8443084F8453084F83D3000200B
:1028700010BD80F83C30FFF771FEDBE701207047A8
:102880007047704738B504460268136923F4405313
:10289000C1680B43136183680269134342691343A0
:1028A000C2691A430168CB6823F4164323F00C0372
:1028B0001343CB600268536923F4407381690B436F
:1028C00053610368314A934206D002F58062934215
:1028D00002D0FFF723FB01E0FFF730FBE369B3F51C
:1028E000004F29D00021031849411B1841F1000174
:1028F000C90041EA5371DB00181863684FEA83028C
:102900004FEA937341F10001FDF7B6FD204DA5FBA1
:1029100000325109642303FB11031B013233A5FB71
:1029200003235B0903F0F00202EB011203F00F0333
:10293000216813448B6038BD0023021843EB030168
:10294000121841F10001C90041EA5271D200101879
:1029500041F10001626892185B41FDF78DFD0C4D5D
:10296000A5FB00325109642303FB1103DB00323362
:10297000A5FB03235B095A0002F4F87202EB011273
:1029800003F00703216813448B60D4E70010014073
:102990001F85EB5160B310B5044690F8413013B376
:1029A000242384F841302268D36823F40053D36091
:1029B0002046FFF767FF2268136923F490431361F1
:1029C0002268536923F02A0353612268D36843F4D1
:1029D0000053D36000206064202384F8413084F8E1
:1029E0004230606310BD80F84030FEF71BFAD7E735
:1029F0000120704708B54FF0E0231B6901F03AFC55
:102A0000012800D108BD00F01DFAFBE7EFF30583B4
:102A10002BB9064B186828B901221A6070476FF06D
:102A2000050070474FF0FF30704700BF5004002092
:102A3000EFF3058373B90A4B1B68012B0DD110B559
:102A40000024084BDC77064B02221A6001F070F973
:102A5000204610BD6FF0050070474FF0FF30704703
:102A60005004002000ED00E0F0B587B0002405948C
:102A7000EFF3058474BB68B322B31568936903B997
:102A800018235C1E372C49D8546814F0010F47D125
:102A900056696EB14FEA960C94682CB1D7685B2FDB
:102AA00002D9176907B1C6B92CB14FF0FF340EE057
:102AB0004FF0800CF0E7D4688CB9146994B14FF0F2
:102AC000FF3404E01546002418234FF0800C012C3D
:102AD0000AD0ACB1059807B0F0BD0124F7E74FF07C
:102AE000FF34F4E70024F2E714699268029201943B
:102AF00000930B466246294601F0AAF80590E9E7E3
:102B000005AA019200930B461FFA8CF2294601F0A8
:102B1000DAF80128DED000230593DBE70020DAE7AE
:102B20000020D8E708B5EFF3058333B908B90020D2
:102B300008BD01F061FA0020FAE76FF00500F7E741
:102B400070B582B0EFF30583002B3AD1144600280C
:102B50003BD000293BD06AB393684BB1D2684F2A6F
:102B600006D9226922B101FB00F56669AE421BD28B
:102B700073B14FF0FF3363BB002200F0A4FC0546A5
:102B800005B304B124682146284600F09BFE19E0F5
:102B9000E3688BB9236913B14FF0FF33EBE7636947
:102BA0006BB14FF0FF33E6E70025009500F041FCE4
:102BB0000546E5E70023DEE74FF0FF33DBE70023C0
:102BC000D9E70025284602B070BD0025FAE70025A8
:102BD000F8E70025F6E70000034B0360034B0B60AA
:102BE00080231360704700BFF4030020F40100202D
:102BF000034B0360034B0B604FF48073136070470B
:102C0000540800205404002000F1080343604FF0F2
:102C1000FF328260C36003610023036070470023BA
:102C20000361704743684B609A688A60516099609D
:102C30000861036801330360704730B40D68B5F173
:102C4000FF3F11D000F108031C465B681A68AA42D6
:102C5000FAD963684B6099608C60616008610368B1
:102C60000133036030BC70470469F2E703694168CF
:102C700082688A60416851605A68824206D00022A8
:102C800002611A68013A1A601868704782685A60CF
:102C9000F5E7000082B0002301930D4B1B68B3F1F0
:102CA000FF3F08D04FF0500383F31188BFF36F8FBD
:102CB000BFF34F8FFEE74FF0500383F31188BFF34C
:102CC0006F8FBFF34F8F019B002BFCD002B070477A
:102CD0000C00002008480068006880F308884FF066
:102CE000000080F3148862B661B6BFF34F8FBFF364
:102CF0006F8F00DF00BF000008ED00E0DFF80C0080
:102D0000016841F4700101607047000088ED00E047
:102D10004FF0807340F8043C21F0010140F8081C9A
:102D2000054B40F80C3C40F8202C6FF0020340F8B3
:102D3000243C4438704700BF952C00080000000078
:102D4000074B19680868B0E8F04F80F30988BFF3B3
:102D50006F8F4FF0000080F311887047AFF3008051
:102D6000184500204FF0500383F31188BFF36F8F95
:102D7000BFF34F8F0B4A136801331360012B00D050
:102D800070474FF0E023D3F8043D13F0FF0FF7D066
:102D90004FF0500383F31188BFF36F8FBFF34F8F52
:102DA000FEE700BF0C000020094B1B6843B94FF041
:102DB000500383F31188BFF36F8FBFF34F8FFEE78C
:102DC000013B034A13600BB983F31188704700BFBE
:102DD0000C000020000000000000000000000000C7
:102DE000EFF30980BFF36F8F154B1A681EF0100FB9
:102DF00008BF20ED108A20E9F04F10602DE909008E
:102E00004FF0500080F31188BFF34F8FBFF36F8FE7
:102E100001F018F94FF0000080F3118809BC19681F
:102E20000868B0E8F04F1EF0100F08BFB0EC108A31
:102E300080F30988BFF36F8F704700BFAFF3008046
:102E40001845002008B54FF0500383F31188BFF3F5
:102E50006F8FBFF34F8F00F0C7FF28B14FF0E02313
:102E60004FF08052C3F8042D002383F3118808BD6E
:102E70004FF0E022002313619361054B1B68054965
:102E8000A1FB03139B09013B5361072313617047A7
:102E900000000020D34D62104FF0E023D3F8002D46
:102EA0003D4B9A421CD04FF0E023D3F8002D3B4B12
:102EB0009A421ED030B583B0394B1A78D2B2019203
:102EC000FF221A701B78DBB28DF803309DF80330B7
:102ED00003F05003334A1370334B07221A601BE090
:102EE0004FF0500383F31188BFF36F8FBFF34F8F01
:102EF000FEE74FF0500383F31188BFF36F8FBFF3EA
:102F00004F8FFEE7284A1368013B13609DF803309A
:102F10005B00DBB28DF803309DF8033013F0800FB7
:102F2000F0D1214B1B68032B08D04FF0500383F3E3
:102F30001188BFF36F8FBFF34F8FFEE71B021A4A52
:102F4000136003F4E0631360019BDBB2144A137057
:102F50004FF0E024D4F8203D43F47003C4F8203D42
:102F6000D4F8203D43F07043C4F8203DFFF780FFC4
:102F700000250E4B1D60FFF7C1FED4F8343F43F02F
:102F80004043C4F8343FFFF7A5FE01F05BF8FFF7BC
:102F900081FE284603B030BD71C20F4170C20F419F
:102FA00000E400E0B0080020B40800200C0000207D
:102FB000EFF305830F2B0FD9114A9B5CDBB2114A4B
:102FC00012789A4208D94FF0500383F31188BFF367
:102FD0006F8FBFF34F8FFEE74FF0E023D3F80C3D28
:102FE00003F4E063084A1268934208D94FF0500393
:102FF00083F31188BFF36F8FBFF34F8FFEE77047E6
:10300000F0E300E0B0080020B4080020124A12F0FB
:10301000070F1ED0D11D21F00701C1F570531344D5
:103020000A460E480260002141601344083B23F029
:1030300007030B48036059601960991A51601360C7
:10304000084B1960084B1960084B4FF000421A609A
:1030500070474FF47053E4E7BC080020D0440020D0
:10306000B8080020C4440020C0440020BC44002014
:10307000164B1A461B688342FBD3516802EB010CC6
:10308000844509D0416800EB010C634509D0036019
:10309000904219D01060704740680144516010465A
:1030A000F0E710B40A4C2468A3420BD05B681944C3
:1030B000416013681B680360904200D010605DF8A7
:1030C000044B70470460F7E7704700BFD04400200E
:1030D000B808002070B5054600F078FE364B1B6836
:1030E000A3B1364B1B681D424ED135B1083515F0E2
:1030F000070F02D025F007050835002D46D0304BCC
:103100001B68AB4251D32F4A146804E0FFF77EFFDF
:10311000E7E722461C466368AB4202D22368002BD5
:10312000F7D1254B1B68A34241D0166808362368A7
:10313000136063685B1B102B10D9601910F0070F28
:1031400008D04FF0500383F31188BFF36F8FBFF3A4
:103150004F8FFEE743606560FFF78AFF626818499A
:103160000B689B1A0B60184909688B4201D21649FB
:103170000B60124B1B681343636000232360134AE8
:1031800013680133136002E0002600E0002600F01F
:10319000B7FE16F0070F0CD04FF0500383F31188E1
:1031A000BFF36F8FBFF34F8FFEE70026EFE70026D8
:1031B000EDE7304670BD00BFB8080020BC440020D9
:1031C000C0440020D0440020C4440020C844002053
:1031D000002834D038B50446A0F1080550F8043C66
:1031E000174A1268134208D14FF0500383F3118835
:1031F000BFF36F8FBFF34F8FFEE750F8081C41B14C
:103200004FF0500383F31188BFF36F8FBFF34F8FDD
:10321000FEE723EA020340F8043C00F0D7FD54F82F
:10322000041C084A13680B4413602846FFF720FF6C
:10323000054A13680133136000F062FE38BD704721
:10324000BC440020C0440020CC44002010B50446FB
:10325000FFF788FDA26BE36B9A4204D00024FFF7CE
:10326000A3FD204610BD0124F9E710B50446FFF781
:1032700079FDA36B23B90124FFF796FD204610BD0D
:103280000024F9E770B504461546866B026C5AB9FE
:1032900003681BB100200136A66370BD806800F092
:1032A000F9FF0023A360F6E76DB94068FCF7F8FF6B
:1032B000226C636813446360A268934219D3236845
:1032C00063602846E7E7C068FCF7EAFF226C5142DA
:1032D000E3689B1AE3602268934202D2A3680B441E
:1032E000E360022D01D00020D5E726B1013E002089
:1032F000D1E72846CFE70020CDE70346026C6AB14C
:1033000010B50846D9681144D9609C68A14201D320
:103310001968D960D968FCF7C3FF10BD704738B58C
:103320000546FFF71FFD95F8454064B201E0013CFA
:1033300064B2002C0ADD6B6A43B105F1240000F091
:10334000FFFE0028F3D000F08FFFF0E7FF2385F8A1
:103350004530FFF729FDFFF705FD95F8444064B2BD
:1033600001E0013C64B2002C0ADD2B6943B105F198
:10337000100000F0E5FE0028F3D000F075FFF0E744
:10338000FF2385F84430FFF70FFD38BD38B5E0B1B5
:103390000D460446FFF7E6FC2368E26B216C01FB57
:1033A0000230A0600020A0636360013A02FB013399
:1033B000E360FF2384F8443084F84530FDB9236985
:1033C00063B9FFF7F1FC012038BD4FF0500383F3E0
:1033D0001188BFF36F8FBFF34F8FFEE704F110002A
:1033E00000F0AEFE0028ECD04FF0E0234FF080520A
:1033F000C3F8042DBFF34F8FBFF36F8FE1E704F1E4
:103400001000FFF701FC04F12400FFF7FDFBD8E7F3
:1034100038B51D46049C0B4649B92460E06323641B
:1034200001212046FFF7B2FF84F84C5038BD2260DE
:10343000F4E740B94FF0500383F31188BFF36F8F67
:10344000BFF34F8FFEE710B584B01C46844653B1DE
:1034500092B189B94FF0500383F31188BFF36F8F96
:10346000BFF34F8FFEE74FF0500383F31188BFF394
:103470006F8FBFF34F8FFEE76AB150230393039B17
:10348000502B13D04FF0500383F31188BFF36F8F8D
:10349000BFF34F8FFEE70029EFD04FF0500383F3C7
:1034A0001188BFF36F8FBFF34F8FFEE7039B01239C
:1034B00084F8463000949DF818306046FFF7A8FF66
:1034C000204604B010BD40B94FF0500383F311887B
:1034D000BFF36F8FBFF34F8FFEE7F0B583B00D469C
:1034E0001446064601FB00F05030FFF7F3FD074697
:1034F00050B1002380F846300090234600F150027E
:1035000029463046FFF784FF384603B0F0BDF0B5DA
:1035100085B0019288B10F461D460446B1B1022D17
:1035200020D1E36B012B1DD04FF0500383F31188A2
:10353000BFF36F8FBFF34F8FFEE74FF0500383F35E
:103540001188BFF36F8FBFF34F8FFEE7036C002B23
:10355000E5D04FF0500383F31188BFF36F8FBFF3B3
:103560004F8FFEE700F086FE064658B9019B002B00
:1035700048D04FF0500383F31188BFF36F8FBFF330
:103580004F8FFEE700263DE02A4639462046FFF7EA
:1035900079FE636A7BB948B14FF0E0234FF0805267
:1035A000C3F8042DBFF34F8FBFF36F8FFFF7FCFB02
:1035B000012005B0F0BD04F1240000F0C1FD002899
:1035C000F4D04FF0E0234FF08052C3F8042DBFF346
:1035D0004F8FBFF36F8FE9E7FFF7E6FB0020E8E7C7
:1035E00002A800F0F3FD012619E0002384F844301E
:1035F00021E0002384F8453023E02046FFF78FFECA
:1036000000F07EFCFFF7AEFBA26BE36B9A42BBD3EC
:10361000022DB9D0019B002BDED0002EE0D0FFF7A9
:10362000C3FB00F0D3FBFFF79DFB94F8442052B29C
:10363000B2F1FF3FD9D094F8452052B2B2F1FF3F2A
:10364000D7D0FFF7B1FB01A902A800F0CBFDD8B994
:103650002046FFF7FBFD0028CFD0019904F11000B0
:1036600000F03AFD2046FFF75AFE00F049FC002822
:10367000C8D14FF0E0234FF08052C3F8042DBFF3C0
:103680004F8FBFF36F8FBDE72046FFF748FE00F076
:1036900037FC00208DE72DE9F84390B10F46164620
:1036A0001C460546B1B1022C20D1EB6B012B1DD07D
:1036B0004FF0500383F31188BFF36F8FBFF34F8F29
:1036C000FEE74FF0500383F31188BFF36F8FBFF312
:1036D0004F8FFEE7036C002BE5D04FF0500383F3D0
:1036E0001188BFF36F8FBFF34F8FFEE7FFF760FCCA
:1036F000EFF311894FF0500383F31188BFF36F8FFD
:10370000BFF34F8FAA6BEB6B9A4206D3022C04D007
:10371000002089F31188BDE8F88395F845804FFAB9
:1037200088F8AB6B224639462846FFF7ABFDB8F167
:10373000FF3F06D008F101035BB285F84530012058
:10374000E7E76B6A0BB90120E3E705F1240000F01D
:10375000F7FC18B126B101203060DAE70120D8E784
:103760000120D6E7F0B585B0019290B10F4604462E
:10377000C1B100F07FFD064600BB019B002B5ED06F
:103780004FF0500383F31188BFF36F8FBFF34F8F58
:10379000FEE74FF0500383F31188BFF36F8FBFF341
:1037A0004F8FFEE7036C002BE3D04FF0500383F301
:1037B0001188BFF36F8FBFF34F8FFEE700263EE007
:1037C00039462046FFF799FD013DA563236923B9DA
:1037D000FFF7EAFA012005B0F0BD04F1100000F097
:1037E000AFFC0028F4D04FF0E0234FF08052C3F834
:1037F000042DBFF34F8FBFF36F8FE9E7FFF7D4FAC4
:103800000020E8E702A800F0E1FC012621E0002307
:1038100084F8443029E0002384F845302BE020462A
:10382000FFF77DFD00F06CFB09E02046FFF777FD18
:1038300000F066FB2046FFF718FD00283FD1FFF798
:1038400091FAA56B002DBBD1019B002BD6D0002E89
:10385000D8D0FFF7A9FA00F0B9FAFFF783FA94F885
:1038600044305BB2B3F1FF3FD1D094F845305BB246
:10387000B3F1FF3FCFD0FFF797FA01A902A800F0FC
:10388000B1FC0028D1D12046FFF7EFFC0028C6D0BC
:10389000019904F1240000F01FFC2046FFF73FFDD2
:1038A00000F02EFB0028CAD14FF0E0234FF08052E9
:1038B000C3F8042DBFF34F8FBFF36F8FBFE7002016
:1038C00089E700000023072B0CD8074A52F8332061
:1038D0000AB10133F7E7044A42F8331002EBC3039D
:1038E00058607047704700BFD844002070B5044648
:1038F0000D461646FFF736FA94F844305BB2B3F142
:10390000FF3F0DD094F845305BB2B3F1FF3F0BD0D1
:10391000FFF74AFAA36B5BB12046FFF700FD70BDCD
:10392000002384F84430EDE7002384F84530EFE7C6
:103930003246294604F1240000F0E6FBECE70000E3
:10394000084B1B681B6823B9074B4FF0FF321A6006
:103950007047044B1B68DB68DB685A68024B1A60CF
:10396000704700BF1C450020C44900202DE9F047E6
:1039700080460D4617469946089EDDF824A00A9C0D
:103980009200A521206BFCF725FD236B07F18042F7
:10399000013A03EB820727F00707B5B34FF0000C9D
:1039A000BCF10F0F0BD815F80C2004EB0C0383F8B7
:1039B000342015F80C3013B10CF1010CF0E70023A2
:1039C00084F84330372E00D93726E662E6640025B6
:1039D0002565201DFFF723F904F11800FFF71FF9F3
:1039E0002461C6F13806A6616462656584F85850A2
:1039F0004A4641463846FFF78BF92060BAF1000F7E
:103A000001D0CAF80040BDE8F087002384F83430C4
:103A1000D8E7000038B5002407E004EB84029300E7
:103A20000E481844FFF7F0F80134372CF5D90C4D47
:103A30002846FFF7E9F80B4C2046FFF7E5F80A485F
:103A4000FFF7E2F80948FFF7DFF80948FFF7DCF86D
:103A5000084B1D60084B1C6038BD00BF244500208A
:103A600098490020AC490020D0490020FC490020A2
:103A7000E84900201C4500202045002010B50446E0
:103A8000FFF770F9224A136801331360214B1B685A
:103A90005BB1214B1B686BB91E4B1B68DA6AE36A8A
:103AA0009A4207D81B4B1C6004E01A4B1C60136839
:103AB000012B29D0194A1368013313606364E06A4B
:103AC000174B1B68984201D9154B186000EB80001A
:103AD000211D144B03EB8000FFF7A4F8FFF764F9F6
:103AE0000D4B1B687BB10B4B1B68DA6AE36A9A4289
:103AF00009D24FF0E0234FF08052C3F8042DBFF3FA
:103B00004F8FBFF36F8F10BDFFF784FFD2E700BF69
:103B10008449002018450020E449002090490020F5
:103B2000944900202445002010B5044690F85930EF
:103B300063B1012B11D0022B0ED04FF0500383F351
:103B40001188BFF36F8FBFF34F8FFEE7006BFFF756
:103B50003FFB2046FFF73CFB10BDFFF739FBFBE7BF
:103B60000F4B1B68D3B110B5FFF7FCF80D4BDB68AA
:103B7000DC68201DFFF77AF80B4A1368013B1360DD
:103B8000074A1368013B1360FFF70EF92046FFF761
:103B9000CBFF034B1B68002BE6D110BD704700BF65
:103BA00088490020FC4900208449002008B5FFF71F
:103BB000D7FF074B1B68012BF9D94FF0E0234FF0DB
:103BC0008052C3F8042DBFF34F8FBFF36F8FEEE722
:103BD0002445002070B504460D46174B1E68174B50
:103BE00018680430FFF742F8B4F1FF3F0DD03444B9
:103BF000124B1B685C60A64210D9114B18680F4B22
:103C000019680431FFF719F870BD002DEFD00B4B88
:103C1000196804310B48FFF705F8F5E70A4B1868F7
:103C2000064B19680431FFF708F8084B1B68A342DC
:103C3000EAD9064B1C60E7E7104A0020184500202F
:103C400020450020E84900201C450020C4490020F0
:103C500030B587B00B9C7CB10C9DB5B15C2504954B
:103C6000049D5C2D1AD04FF0500383F31188BFF3ED
:103C70006F8FBFF34F8FFEE74FF0500383F3118830
:103C8000BFF36F8FBFF34F8FFEE74FF0500383F307
:103C90001188BFF36F8FBFF34F8FFEE7049D0C9D1C
:103CA0002C63022485F8594000240394029505AC46
:103CB00001940A9C0094FFF759FE0C98FFF7DEFE72
:103CC000059807B030BD2DE9F04385B0074688461A
:103CD00014461E469000FFF7FDF900B381465C20B4
:103CE000FFF7F8F90546B0B1C0F83090E5B1002310
:103CF00085F85930039302950D9B01930C9B00931B
:103D00003346224641463846FFF730FE2846FFF745
:103D1000B5FE012005E04846FFF75AFAE6E74FF006
:103D2000FF3005B0BDE8F0834FF0FF30F9E7000049
:103D300010B588B000240594069407AA06A905A822
:103D4000FEF74AFF059B0293069B019300942346CE
:103D5000079A18491848FFF77BFF184B186040B1C5
:103D600000F04CFB012806D0B0F1FF3F18D008B09E
:103D700010BD0020F6E74FF0500383F31188BFF326
:103D80006F8FBFF34F8F0E4B4FF0FF321A600D4B0A
:103D900001221A600C4B00221A60FFF77DF8E6E75B
:103DA0004FF0500383F31188BFF36F8FBFF34F8F32
:103DB000FEE700BFFC480008AD3B0008C0490020FA
:103DC000C4490020E4490020104A0020024A136838
:103DD00001331360704700BF8C490020014B186805
:103DE000704700BF104A0020F8B53A4B1B68002B03
:103DF00069D1394B1D6801351D60C5B9374B1B684A
:103E00001B6843B14FF0500383F31188BFF36F8FEA
:103E1000BFF34F8FFEE7314A1168314B18681060CD
:103E20001960304A136801331360FFF789FD2E4B88
:103E30001B68AB423DD900272C4B1B68DB6A03EBA8
:103E400083039A002A4B9B58012B00D90127294B49
:103E50001B68002B3CD001273AE001271F4B1B6851
:103E60001B6843B31D4B1B68DB68DC6863689D42BD
:103E700026D3261D3046FEF7F9FEA36A1BB104F1D6
:103E80001800FEF7F3FEE36A1B4A1268934201D959
:103E9000194A136003EB83039A0031461448104417
:103EA000FEF7C0FEE26A114B1B68DB6A9A42D4D26D
:103EB000D4E70027D2E70C4B4FF0FF321A60BBE784
:103EC000094A1360B8E70D4A1368013313600027ED
:103ED0003846F8BD8C490020104A00201C450020BF
:103EE00020450020C8490020C44900201845002072
:103EF00024450020144A002094490020CC49002089
:103F000038B5354B1B6843B94FF0500383F3118824
:103F1000BFF36F8FBFF34F8FFEE7FEF723FF2E4BEC
:103F20001A68013A1A601B68002B4FD12B4B1B6893
:103F30000BB900244BE00024294B1B681BB3284B12
:103F4000DB68DC6804F11800FEF790FE251D2846AA
:103F5000FEF78CFEE06A234B1B68984201D9214B87
:103F6000186000EB800029461F4B03EB8000FEF732
:103F700059FEE26A1D4B1B68DB6A9A42DCD31C4B7C
:103F800001221A60D8E70CB1FFF7DAFC194B1C6864
:103F900084B9174B1C68D4B14FF0E0234FF0805226
:103FA000C3F8042DBFF34F8FBFF36F8F01240EE0D2
:103FB000013C07D0FFF718FF0028F9D00C4B012275
:103FC0001A60F5E70B4B00221A60E2E70024FEF7C7
:103FD000EBFE204638BD00BF8C49002084490020FC
:103FE000D049002094490020244500201845002095
:103FF000144A0020CC49002010B5A8B10446104B4B
:104000001B6843B14FF0500383F31188BFF36F8FE8
:10401000BFF34F8FFEE7FFF7D9FE00212046FFF7E1
:10402000D9FDFFF76DFF48B94FF0E0234FF0805204
:10403000C3F8042DBFF34F8FBFF36F8F10BD00BFC8
:104040008C4900201F4B1B681BB11F4B01221A60BB
:1040500070471D4B00221A601C4B1B6803EB830149
:104060008A001B498A585AB90BB1013BF6E74FF059
:10407000500383F31188BFF36F8FBFF34F8FFEE7B9
:1040800003EB830082000A4450684068506003EBF1
:10409000830C4FEA8C020832114488420BD003EBA8
:1040A000830291000A4A0A445268D168094A1160A1
:1040B000064A13607047406862469100044A0A4409
:1040C0005060ECE78C490020144A002094490020FD
:1040D000244500201845002058B110B50C46094A67
:1040E00011681831FEF7A9FD01212046FFF772FD86
:1040F00010BD4FF0500383F31188BFF36F8FBFF3F0
:104100004F8FFEE71845002038B570B10D461446B4
:104110000A4A11681831FEF785FD0CB14FF0FF35E2
:1041200021462846FFF756FD38BD4FF0500383F374
:104130001188BFF36F8FBFF34F8FFEE71845002044
:1041400038B5C368DC6824B304F118052846FEF7C7
:104150008DFD184B1B682BBB251D2846FEF786FDE1
:10416000E06A154B1B68984201D9134B186000EBAD
:1041700080002946114B03EB8000FEF753FDE26AF5
:104180000F4B1B68DB6A9A4211D901200D4B186056
:1041900038BD4FF0500383F31188BFF36F8FBFF327
:1041A0004F8FFEE729460848FEF73CFDE7E7002071
:1041B000EEE700BF8C4900209449002024450020F0
:1041C00018450020144A0020D0490020034B1B68EA
:1041D0000360034B1B684360704700BFC849002061
:1041E000104A0020F8B5C8B10C460546F9B1FEF7F3
:1041F000B9FD1B4B19686B68C81A2268B2F1FF3F02
:1042000026D0184E36682F68B74201D08B4224D989
:10421000824215D80023236001241AE04FF0500396
:1042200083F31188BFF36F8FBFF34F8FFEE74FF01B
:10423000500383F31188BFF36F8FBFF34F8FFEE7F7
:104240005B1A134423602846FFF7C0FF002400E0F8
:104250000024FEF7A9FD2046F8BD0124F9E700BFC0
:10426000104A0020C8490020014B01221A60704703
:10427000144A0020054B1B6833B1054B1B680BB17A
:10428000002070470220704701207047E449002059
:104290008C49002000283BD038B504461E4B1B68D3
:1042A000834208D04FF0500383F31188BFF36F8F20
:1042B000BFF34F8FFEE7036D43B94FF0500383F315
:1042C0001188BFF36F8FBFF34F8FFEE7013B03658C
:1042D000C16AC26C91421DD00BB1002038BD051DD2
:1042E0002846FEF7C3FCE06CE062C0F13803A3612E
:1042F0000A4B1B68984201D9084B186000EB8000FC
:104300002946074B03EB8000FEF78CFC0120E5E714
:10431000002070470020E1E7184500209449002064
:1043200024450020064B1A6813682BB9012303604B
:1043300023B9D368186870470023F8E70020704756
:10434000184A002008B54160006191420CD8D21A89
:1043500083699A4201D3012008BD011D094B1868E9
:10436000FEF76BFC0020F7E79A4201D2994206D291
:10437000011D054B1868FEF760FC0020ECE70120EA
:10438000EAE700BF1C4A0020184A002030B583B07D
:10439000FEF7E8FC114B1B681BB1FEF705FD03B0EF
:1043A00030BD0F4D2846FEF72FFC0E4C2046FEF781
:1043B0002BFC0D4B1D600D4B1C60002300930C4B20
:1043C0000C4A10210A20FFF734F8044B186000282B
:1043D000E3D00949FFF776FADFE700BF3C4B002046
:1043E000C04A0020D44A0020184A00201C4A00205D
:1043F000EC4A0020204A00200449000810B588B08B
:10440000FFF7C4FF124B1B68CBB100240594069440
:1044100007AA06A905A8FEF7EBFB059B0293069BDE
:104420000193022300932346079A0A490A48FFF79B
:104430000FFC0A4B186010B1012008B010BD4FF0FE
:10444000500383F31188BFF36F8FBFF34F8FFEE7E5
:104450003C4B00200C49000861470008404B0020FD
:10446000B8B19C4603461848006858B300B585B0FB
:1044700000910192029305291CDCFFF7FBFE022844
:1044800010D000231A4669460F480068FFF73FF82E
:1044900015E04FF0500383F31188BFF36F8FBFF324
:1044A0004F8FFEE70023069A694607480068FFF72A
:1044B0002EF804E0002362466946FFF7ECF805B0E9
:1044C0005DF804FB002070473C4B002070B582B0C3
:1044D0001B4B1B681A6862B3DB681E68DC68251D0D
:1044E0002846FEF7C3FB236A2046984794F82830F5
:1044F00013F0040FECD0A36933449E4207D26360EB
:10450000246129460E4B1868FEF797FBE0E700216F
:1045100000910B4632462046FFF7A2FF0028D7D174
:104520004FF0500383F31188BFF36F8FBFF34F8FAA
:10453000FEE7044A106802490860136002B070BDCB
:10454000184A00201C4A002038B50546FFF746FCF3
:104550000446074B1B68834205D800232B60044B9D
:104560001C60204638BDFFF7B1FF01232B60F6E742
:10457000E84A002070B582B006460D461749096822
:10458000C968CC68201DFEF771FB94F828C01CF0A8
:10459000040F08D12CF0010C84F828C0236A2046AF
:1045A000984702B070BDA16933462A46314420467F
:1045B000FFF7C8FE0028F1D0002100910B463246DB
:1045C0002046FFF74DFF0028E8D14FF0500383F35A
:1045D0001188BFF36F8FBFF34F8FFEE7184A00209B
:1045E00070B582B006460C46FFF7F0FB01A8FFF756
:1045F000ABFF019B33BB05460CB9B04219D224B1C5
:10460000124A12681268DAB901242246711B104B53
:104610001868FFF76BF9FFF773FCA8B94FF0E023B8
:104620004FF08052C3F8042DBFF34F8FBFF36F8F4D
:104630000AE0FFF765FC29463046FFF79BFF03E0E1
:104640001C46E2E7FFF75CFC02B070BD1C4A00208C
:104650003C4B002010B588B002E0049B002B0FDA21
:10466000002204A93D4B1868FFF77CF8002873D09E
:10467000049B002BF1DA07990698059B9847ECE715
:10468000069C636913B1201DFEF7F0FA03A8FFF73B
:104690005BFF049B092BE3D8DFE803F00505053039
:1046A00037500505303794F8283043F0010384F87B
:1046B0002830059BA169024619442046FFF742FEB7
:1046C0000028CDD0236A2046984794F8283013F06C
:1046D000040FC5D0A269002100910B460598024441
:1046E0002046FFF7BDFE0028BAD14FF0500383F3F8
:1046F0001188BFF36F8FBFF34F8FFEE794F8283018
:1047000023F0010384F82830AAE794F8283043F016
:10471000010384F828300599A16131B103460246AE
:1047200001442046FFF70EFE9AE74FF0500383F353
:104730001188BFF36F8FBFF34F8FFEE794F82830D7
:1047400013F0020F04D023F0010384F8283087E728
:104750002046FEF73DFD83E708B010BD3C4B00202E
:1047600000B583B001A8FFF7DDFD0199FFF738FF21
:10477000FFF770FFF6E70000DFF834D0FCF7F2FB3C
:104780000C480D490D4A002302E0D458C4500433AC
:10479000C4188C42F9D30A4A0A4C002301E0136082
:1047A0000432A242FBD3FBF757FDFCF723FA704714
:1047B0000000022000000020100000202449000812
:1047C00010000020444B0020FEE70000F8B500BFB9
:1047D000F8BC08BC9E467047F8B500BFF8BC08BCE2
:0447E0009E4670473A
:1047E4004D696E69426F74496E7075745175657563
:1047F400650000004170706C69636174696F6E4696
:10480400534D00004D696E69426F74496E70757442
:1048140073000000426C696E6B4C45445461736BC9
:104824000000000064656661756C745461736B000C
:10483400F84700080000000000000000000000002D
:10484400000000000002000018000000000000004A
:1048540000000000184800080000000000000000EC
:10486400000000000000000000020000080000003A
:104874000000000000000000E44700080000000001
:104884000000000000000000000000000000000024
:1048940008480008000000000000000000000000BC
:1048A40000000000000200001800000000000000EA
:1048B400000000002848000800000000000000007C
:1048C40000000000000000000002000018000000CA
:1048D40000000000000000000000000000000000D4
:1048E4000102030406070809000000000102030492
:1048F400000610160006101649444C45000000003E
:10490400546D725100000000546D722053766300A0
:0849140094BBFF7F01000000CD
:04491C003902000854
:044920001102000878
:104924000024F4000100000010000000AAAAAAAAB2
:04000005080047792F
:00000001FF
