:020000040800F2
:100000000000022099400008DD0F0008DF0F000803
:10001000E10F0008E30F0008E50F000800000000F2
:10002000000000000000000000000000912C00080B
:10003000E70F000800000000312D0008952D000892
:10004000E9400008E9400008E9400008E9400008EC
:10005000E9400008E9400008E9400008E9400008DC
:10006000E9400008E9400008E9400008E9400008CC
:10007000E9400008E9400008E9400008E9400008BC
:10008000E9400008E9400008E9400008E9400008AC
:10009000E9400008E9400008E9400008E94000089C
:1000A000E9400008E9400008E9400008E94000088C
:1000B000E9400008E9400008E9400008E94000087C
:1000C000E9400008E9400008E9400008E94000086C
:1000D000E9400008E9400008E9400008E94000085C
:1000E000E9400008E9400008E9400008E94000084C
:1000F000E9400008E9400008E9400008E94000083C
:10010000E9400008E9400008E9400008E94000082B
:10011000E9400008E9400008E90F0008E94000084C
:10012000F90F0008E9400008E9400008E94000082C
:10013000E94000080000000000000000E94000085D
:10014000E9400008E9400008E9400008E9400008EB
:10015000E9400008E9400008E9400008E9400008DB
:10016000E9400008E9400008E9400008E9400008CB
:10017000E9400008E9400008E940000800000000EC
:1001800000000000E940000800000000000000003E
:10019000E94000080000000000000000E9400008FD
:1001A000000000000000000000000000E94000081E
:1001B000E9400008E9400008E9400008E94000087B
:0401C000E94000080A
:1001D0000348044B834202D0034B03B118477047D6
:1001E0001000002010000020000000000548064913
:1001F0000B1AD90F01EBA301491002D0034B03B135
:100200001847704710000020100000200000000078
:1002100010B5064C237843B9FFF7DAFF044B13B14E
:100220000448AFF300800123237010BD10000020AC
:1002300000000000EC40000808B5044B1BB1044965
:100240000448AFF30080BDE80840CFE7000000009D
:1002500014000020EC40000870B50D4E0D4D761BCB
:10026000B61006D0002455F8043B01349847A64246
:10027000F9D1094E094D761B03F038FFB61006D0B0
:10028000002455F8043B01349847A642F9D170BDCB
:10029000F0410008F0410008F4410008F041000876
:1002A000844641EA000313F003036DD1403A41D381
:1002B00051F8043B40F8043B51F8043B40F8043B40
:1002C00051F8043B40F8043B51F8043B40F8043B30
:1002D00051F8043B40F8043B51F8043B40F8043B20
:1002E00051F8043B40F8043B51F8043B40F8043B10
:1002F00051F8043B40F8043B51F8043B40F8043B00
:1003000051F8043B40F8043B51F8043B40F8043BEF
:1003100051F8043B40F8043B51F8043B40F8043BDF
:1003200051F8043B40F8043B51F8043B40F8043BCF
:10033000403ABDD2303211D351F8043B40F8043B6F
:1003400051F8043B40F8043B51F8043B40F8043BAF
:1003500051F8043B40F8043B103AEDD20C3205D37F
:1003600051F8043B40F8043B043AF9D2043208D077
:10037000D2071CBF11F8013B00F8013B01D30B88E9
:1003800003806046704700BF082A13D38B078DD0C7
:1003900010F003038AD0C3F10403D21ADB071CBF99
:1003A00011F8013B00F8013B80D331F8023B20F803
:1003B000023B7BE7043AD9D3013A11F8013B00F83C
:1003C000013BF9D20B7803704B7843708B788370C4
:1003D00060467047830730B548D0541E002A3FD08E
:1003E000CAB2034601E0013C3AD303F8012B9D0752
:1003F000F9D1032C2DD9CDB245EA05250F2C45EABC
:10040000054536D9A4F1100222F00F0C03F1200E9D
:10041000E6444FEA121C03F1100242E9045542E996
:10042000025510327245F8D10CF1010214F00C0F94
:1004300003EB021204F00F0C13D0ACF1040323F011
:1004400003030433134442F8045B9342FBD10CF0E2
:1004500003042CB1CAB21C4403F8012B9C42FBD10B
:1004600030BD64461346002CF4D1F9E70346144628
:10047000BFE71A46A446E0E753B94AB9002908BFC6
:1004800000281CBF4FF0FF314FF0FF3000F074B96F
:10049000ADF1080C6DE904CE00F006F8DDF804E0DB
:1004A000DDE9022304B070472DE9F047089D0446BA
:1004B0008E46002B4DD18A42944669D9B2FA82F217
:1004C00052B101FA02F3C2F1200120FA01F10CFA53
:1004D00002FC41EA030E94404FEA1C48210CBEFB8B
:1004E000F8F61FFA8CF708FB16E341EA034306FB14
:1004F00007F199420AD91CEB030306F1FF3080F0A3
:100500001F81994240F21C81023E63445B1AA4B2EF
:10051000B3FBF8F008FB103344EA034400FB07F791
:10052000A7420AD91CEB040400F1FF3380F00A81D2
:10053000A74240F207816444023840EA0640E41BC7
:1005400000261DB1D4400023C5E900433146BDE873
:10055000F0878B4209D9002D00F0EF800026C5E915
:10056000000130463146BDE8F087B3FA83F6002E2D
:100570004AD18B4202D3824200F2F980841A61EBA5
:10058000030301209E46002DE0D0C5E9004EDDE7C3
:1005900002B9FFDEB2FA82F2002A40F09280A1EBAB
:1005A0000C014FEA1C471FFA8CFE0126200CB1FB00
:1005B000F7F307FB131140EA01410EFB03F08842F9
:1005C00008D91CEB010103F1FF3802D2884200F286
:1005D000CB804346091AA4B2B1FBF7F007FB101118
:1005E00044EA01440EFB00FEA64508D91CEB0404B6
:1005F00000F1FF3102D2A64500F2BB800846A4EB11
:100600000E0440EA03409CE7C6F12007B34022FAFB
:1006100007FC4CEA030C20FA07F401FA06F31C432A
:10062000F9404FEA1C4900FA06F3B1FBF9F8200C37
:100630001FFA8CFE09FB181140EA014108FB0EF07D
:10064000884202FA06F20BD91CEB010108F1FF3ACD
:1006500080F08880884240F28580A8F102086144D9
:10066000091AA4B2B1FBF9F009FB101144EA0141E7
:1006700000FB0EFE8E4508D91CEB010100F1FF3492
:100680006CD28E456AD90238614440EA0840A0FB2A
:100690000294A1EB0E01A142C846A64656D353D000
:1006A0005DB1B3EB080261EB0E0101FA07F722FA24
:1006B00006F3F1401F43C5E9007100263146BDE84D
:1006C000F087C2F12003D8400CFA02FC21FA03F3B0
:1006D000914001434FEA1C471FFA8CFEB3FBF7F031
:1006E00007FB10360B0C43EA064300FB0EF69E4256
:1006F00004FA02F408D91CEB030300F1FF382FD2EF
:100700009E422DD9023863449B1B89B2B3FBF7F696
:1007100007FB163341EA034106FB0EF38B4208D96F
:100720001CEB010106F1FF3816D28B4214D9023EB0
:100730006144C91A46EA004638E72E46284605E7CE
:100740000646E3E61846F8E64B45A9D2B9EB02089F
:1007500064EB0C0E0138A3E74646EAE7204694E72F
:100760004046D1E7D0467BE7023B614432E7304662
:1007700009E76444023842E7704700BF034B036057
:10078000034B0B6080231360704700BF2C020020D6
:100790002C00002070B58AB00024059406940794BC
:1007A000089409940194274B1A6B42F004021A63CF
:1007B0001A6B02F004020192019A02941A6B42F041
:1007C00080021A631A6B02F080020292029A03946A
:1007D0001A6B42F001021A631A6B02F001020392D3
:1007E000039A04941A6B42F002021A631B6B03F023
:1007F00002030493049B144D22462021284601F055
:1008000044FA4FF4005305934FF4041306930794EE
:1008100005A90E4801F046F9202305930126069606
:100820000794089405A9284601F03CF94FF4007399
:1008300005930694079605A9284601F033F90AB0F6
:1008400070BD00BF003802400000024000080240B6
:1008500000B583B000220192094B196B41F480016D
:1008600019631B6B03F480030193019B052138205E
:1008700000F0C8FE382000F0FDFE03B05DF804FB78
:100880000038024008B500222021044801F0FDF99B
:100890004FF47A7002F040F9F5E700BF0000024023
:1008A00008B54FF4FA7002F037F90122202104480C
:1008B00001F0EBF94FF4FA7002F02EF9F1E700BF06
:1008C0000000024008B507E0244B01221A70234BB8
:1008D0001B78012002F020F9204B1B78002BF3D06D
:1008E0001E4B1B78DBB2012B1ED01C4B1B78DBB2DE
:1008F000022BECD11A4C0A2221461A4B186802F03E
:1009000041FE237C002BE2D10A222146154B1868B8
:1009100002F038FE237CDBB2012BD8D10F4A1378CA
:10092000013BDBB21370D2E70D4C0A2221460D4B7E
:10093000186802F027FE237C002BC8D10A2221462A
:10094000084B186802F01EFE237CDBB2012BBED1DF
:10095000024A13780133DBB21370B8E710040020A9
:10096000FC0300208802002000B5002303704FF430
:100970004872426040F64851816003734FF0010CA9
:1009800080F810C04FF416724261816103774FF016
:10099000020E80F820E04262816280F82C3003234E
:1009A00080F8303042634FF44863836380F83CC082
:1009B000034B03644FF40073A0F844305DF804FB6C
:1009C0000000024013680A33834203D313680A3BD2
:1009D00083420CD98B6883420AD28B6813600B7BED
:1009E0002BB18B6810681B1A49680B441360704761
:1009F0004B68834202D94B681360F0E71060EEE762
:100A000000B593B06846FFF7AFFF042216491748B8
:100A100000F0F6FB164C144D224669462868FFF795
:100A2000D1FF221D04A96868FFF7CCFF04F108027A
:100A300008A9A868FFF7C6FF04F10C020CA9E86832
:100A4000FFF7C0FF4FF400710A4801F017F9207456
:100A500000230A2221460848006802F0CFFC01204A
:100A600002F05AF8D6E700BF90020020B80200203A
:100A7000A0020020000002408802002008B50268A1
:100A8000034B9A4200D008BD00F0E2FAFBE700BF3A
:100A90000010004072B6FEE700B585B00023009359
:100AA0000193029303932548254A02604FF4803254
:100AB0004260836001220261027680F82030C362C6
:100AC00020498162C3600421C16180F83020436104
:100AD00000F06AFB38BB00230093012201920293CD
:100AE0006946164800F0A6FCF8B9012300930223DA
:100AF00001936946114800F09DFCC0B9042300939E
:100B00000323019369460D4800F094FC88B908233B
:100B10000093042301936946084800F08BFC50B908
:100B200005B05DF804FBFFF7B5FFFFF7B3FFFFF774
:100B3000B1FFFFF7AFFFFFF7ADFF00BFB802002026
:100B4000002001400100000F08B50A480A4B03606D
:100B50000A4B436000238360C3604FF4804202610C
:100B600043618361C361036201F096F800B908BD77
:100B7000FFF790FF6003002000540040A0860100B2
:100B800008B50A480A4B03604FF4E1334360002381
:100B90008360C36003610C2242618361C36101F021
:100BA0004BFF00B908BDFFF775FF00BFB40300207D
:100BB0000044004000B595B03422002107A8FFF79B
:100BC00009FC002302930393049305930693009377
:100BD0001F4A116C41F080511164126C02F0805276
:100BE0000092009A01931B490A6822F4404242F4A1
:100BF00080420A600A6802F440420192019A02228D
:100C0000079201210A9110210B910D920E930F91E1
:100C10004FF4A8731093042311931292139207A810
:100C200001F0CCFA80B90F23029302210391002333
:100C300004934FF480520592069302A801F00AF93A
:100C400020B915B05DF804FBFFF724FFFFF722FF82
:100C5000003802400070004000B5A1B000F0DEF99D
:100C6000FFF7A8FFFFF796FDFFF7F2FDFFF714FF70
:100C7000FFF76AFFFFF784FF2B4C0DF1700C94E82F
:100C80000F008CE80F000021604601F04CFF274B5D
:100C900018600DF1540C04F1100EBEE80F00ACE822
:100CA0000F009EE807008CE80700002115A801F05E
:100CB000FEFE1F4B18600DF1380C04F12C0EBEE83F
:100CC0000F00ACE80F009EE807008CE80700002149
:100CD0000EA801F0ECFE174B18600DF11C0C04F18E
:100CE000480EBEE80F00ACE80F009EE807008CE855
:100CF0000700002107A801F0DAFE0F4B1860EE464E
:100D000004F1640CBCE80F00AEE80F009CE807009B
:100D10008EE807000021684601F0C9FE074B186005
:100D200001F0C0FEFEE700BF044100088802002079
:100D3000B4020020840200208C02002080020020E7
:100D400000B583B0002200920D4B596C41F48041F4
:100D50005964596C01F48041009100990192196C19
:100D600041F0805119641B6C03F080530193019B87
:100D70000F216FF0010000F045FC03B05DF804FBAB
:100D80000038024070B588B00023039304930593A4
:100D900006930793026803F1804303F590339A4268
:100DA00001D008B070BD04460025009503F58C33D2
:100DB0005A6C42F480725A645A6C02F48072009247
:100DC000009A01951A6B42F001021A631A6B02F045
:100DD00001020192019A02951A6B42F002021A6313
:100DE0001B6B03F002030293029B1323039303265E
:100DF000049603A9144800F055FE012303930496BA
:100E0000059503A9114800F04DFE1148114B0360F0
:100E100045608560C5604FF4806303614FF4805383
:100E200043614FF4804383614FF48073C361056273
:100E3000456200F0ADFC18B9054BA3639C63B0E7B5
:100E4000FFF728FEF8E700BF000002400004024060
:100E5000000300201064024030B589B000230393E2
:100E600004930593069307930268144B9A4201D0AA
:100E700009B030BD00250195114C236B43F00203EE
:100E80002363236B03F002030193019B4FF4407330
:100E9000039312230493032306930423079303A9C4
:100EA000084800F0FFFD0295236C43F4001323640F
:100EB000236C03F400130293029BD9E70054004013
:100EC000003802400004024000B589B000230393BB
:100ED00004930593069307930268154B9A4202D038
:100EE00009B05DF804FB0021019103F5FA331A6C97
:100EF00042F400321A641A6C02F400320192019A30
:100F000002911A6B42F001021A631B6B03F001039A
:100F10000293029B0C23039302230493032306935F
:100F20000723079303A9034800F0BCFDD8E700BFDF
:100F3000004400400000024030B589B00446002360
:100F40000193214B1A6C42F010021A641B6C03F0DF
:100F500010030193019B02A903A801F051F8069B1D
:100F6000CBB901F02DF803461848A0FB03239B0CD6
:100F7000013B1748174A026040F2E732C260436003
:100F8000002303618360836101F0A0FC054630B15A
:100F9000284609B030BD01F013F84300E4E70C48DF
:100FA00001F030FB05460028F2D1362000F062FB4C
:100FB0000F2C01D90125EBE700222146362000F055
:100FC00021FB054B1C60E3E70038024083DE1B4336
:100FD000140400200010004008000020FEE7FEE797
:100FE000FEE7FEE7FEE7704708B5024801F052FB56
:100FF00008BD00BF1404002008B5024800F064FCDE
:1010000008BD00BF00030020034AD2F8883043F433
:101010007003C2F88830704700ED00E008B50B4B54
:101020001A6842F400721A601A6842F480621A6008
:101030001A6842F480721A60032000F0D1FA0F207F
:10104000FFF77AFFFFF77CFE002008BD003C02405E
:10105000034A1168034B1B780B441360704700BFB1
:101060005C04002004000020014B1868704700BF9A
:101070005C0400204A4B5A6822F440325A605A6895
:1010800041680A435A600268536823F480735360CE
:1010900002685368016943EA012353600268536898
:1010A00023F0407353600268536881680B435360B8
:1010B0000268936823F40063936002689368C168D0
:1010C0000B439360826A374B9A4257D00268936809
:1010D00023F07063936002689368816A0B439360A6
:1010E0000268936823F04053936002689368C16A72
:1010F0000B4393600268936823F0020393600268D5
:101100009368017E43EA4103936090F82030002BFE
:101110003FD00268536843F4006353600268536829
:1011200023F46043536001684B68426A013A43EA22
:1011300042334B600268D36A23F47003D3620168C0
:10114000CB6AC269013A43EA0253CB6202689368F0
:1011500023F4007393600268936890F8301043EAB8
:10116000412393600268936823F48063936002686C
:101170009368416943EA81239360704702689368EA
:1011800023F0706393600268936823F04053936088
:10119000B0E70268536823F400635360CAE700BFF6
:1011A000002301400100000F38B310B50446036C62
:1011B00043B1236C13F0100F0BD00120002384F8EF
:1011C0003C3010BDFFF7DEFD0023636484F83C3043
:1011D000EFE7236C23F4885323F0020343F0020368
:1011E00023642046FFF746FF00206064236C23F051
:1011F000030343F001032364E0E70120704700008C
:1012000010B582B013460022019290F83C20012ACA
:1012100000F0AE800446012280F83C20026890680D
:1012200010F0010F13D1906840F001009060534A14
:101230001068534AA2FB0020800C00EB4000019094
:1012400002E001980138019001980028F9D1226844
:10125000906810F4807F03D0906820F480709060D4
:101260002268906810F0010F77D0206C20F4E060C5
:1012700020F0010040F480702064526812F4806F06
:1012800005D0226C22F4405242F480522264226C37
:1012900012F4805F36D0626C22F006026264002293
:1012A00084F83C20A26B3748D063A26B36481064A8
:1012B000A26B3648D06422686FF02200106020686C
:1012C000426842F0806242602068826842F4807224
:1012D000826020680A4600F14C01A06B00F0BEFA63
:1012E0002B4B5B6813F01F0F27D12368294A9342C9
:1012F00011D002F58072934207D0274A934214D04E
:10130000002033E000226264C9E702F500725268EF
:1013100012F01F0FF1D19A6812F0405F2AD19A683B
:1013200042F080429A60002020E002F5807252680C
:1013300012F0100FEFD0002018E02368154A9342F6
:1013400001D0002012E09A6812F0405F14D19A6830
:1013500042F080429A60002008E0236C43F01003C2
:101360002364636C43F001036364002002B010BD8A
:101370000220FBE70020F9E70020F7E7000000204B
:1013800083DE1B43C3130008A1130008AD1300083C
:1013900000230140002001400022014070477047B7
:1013A00008B5806BFFF7FBFF08BD704708B5806B81
:1013B00040230364436C43F004034364FFF7F5FFE9
:1013C00008BD08B50346806B026C12F0500F25D1A2
:1013D000036C43F40073036403689A6812F0405F7F
:1013E00019D1027EBAB9DA6A12F4700F03D09A6882
:1013F00012F4806F0FD15A6822F020025A60036CF9
:1014000023F480730364036C13F4805F03D1036CD3
:1014100043F001030364FFF7C1FF08BD026C12F043
:10142000100F04D1826BD26C18469047F5E7FFF796
:10143000BCFFF2E730B482B00023019390F83C3057
:10144000012B00F0C080012380F83C300B68092B91
:1014500041D90468E2689BB203EB43031E3B4FF0A3
:10146000070C0CFA03F322EA0303E3600468E26862
:101470000B8803EB43031E3B8D6805FA03F313430C
:10148000E3604B68062B3DD80468626B03EB830373
:10149000053B4FF01F0C0CFA03F322EA03036363CE
:1014A0000468626B4B6803EB8303053BB1F800C033
:1014B0000CFA03F3134363630268444B9A4251D01E
:1014C0000268424B9A425AD0002380F83C301846BA
:1014D00002B030BC7047046822699BB203EB43033F
:1014E0004FF0070C0CFA03F322EA030323610468AC
:1014F00022690B8803EB43038D6805FA03F313435A
:101500002361BEE70C2B16D805682A6B03EB830317
:10151000233B1F2404FA03F322EA03032B63056829
:101520002A6B4B6803EB8303233B0C8804FA03F319
:1015300013432B63C0E70568EA6A03EB8303413B6F
:101540001F2404FA03F322EA0303EB620568EA6A44
:101550004B6803EB8303413B0C8804FA03F313430A
:10156000EB62A9E70B68122BAAD1194B5A6822F437
:1015700000025A605A6842F480025A60A0E70B6881
:10158000144A934201D0112B9ED1114B5A6822F478
:1015900080025A605A6842F400025A600A680D4B91
:1015A0009A4291D10C4B1B680C4AA2FB03239B0C63
:1015B00003EB83035B000193019B002B84D0019B11
:1015C000013B0193F8E7022082E700BF00200140C1
:1015D00000230140120000100000002083DE1B43A6
:1015E000074AD36823F4E0631B041B0C000200F4D9
:1015F000E060034343F0BF6343F40033D3607047BC
:1016000000ED00E000B5194BDB68C3F30223C3F122
:10161000070CBCF1040F28BF4FF0040C03F1040EBB
:10162000BEF1060F18D9033B4FF0FF3E0EFA0CFC3B
:1016300021EA0C0199400EFA03F322EA030319434D
:1016400000280BDB0901C9B200F1604000F56140E0
:1016500080F800135DF804FB0023E5E700F00F00BD
:101660000901C9B2024B1954F4E700BF00ED00E0D4
:1016700014ED00E0002807DB00F01F024009012301
:101680009340024A42F82030704700BF00E100E07A
:1016900030B405682C6824F480242C6004686360EE
:1016A0008368402B05D0036899600368DA6030BC1A
:1016B000704703689A600368D960F8E710B403685C
:1016C000D9B210390C4AA2FB014212090B4CA25CA0
:1016D000C2655F2909D923F47F7323F00303043320
:1016E0008365806D5DF8044B704723F47F7323F0AE
:1016F00003038365F5E700BFABAAAAAAD841000897
:10170000836A826992B9012B0AD0022B02D00BB1F5
:1017100000207047C36A13F0807F28D100207047F3
:10172000C36AB3F1C07F24D000207047B2F5005FD8
:1017300009D0022B25D9032B25D1C36A13F0807F52
:1017400023D100207047032B03D8DFE803F01404F3
:10175000140A00207047C36A13F0807F0DD1002067
:101760007047C36AB3F1C07F09D0002070470120E1
:101770007047012070470120704701207047012009
:10178000704701207047002070470120704700001B
:1017900070B50446FFF768FC002C5BD005460223B9
:1017A00084F83530002384F834302268136823F03D
:1017B0000103136023681A6812F0010F0AD0FFF7C3
:1017C00053FC431B052BF5D920236365032084F8C4
:1017D000350070BD1A68204810406168A2680A434D
:1017E000E1680A4321690A4361690A43A1690A431E
:1017F000E1690A43216A0A430243616A04291ED04F
:101800001A602668756925F00705636A1D43042B75
:1018100007D1A36A1D43E36A1BB12046FFF770FF9F
:1018200090B975612046FFF749FFE26D3F23934071
:10183000836000206065012384F83530C9E7E16AE0
:10184000206B01430A43DBE740236365012084F8F2
:101850003500BEE70120BCE73F8010F038B50446F4
:10186000856D90F8340001282BD0012084F83400D5
:1018700094F83500C0B2012804D0002384F8343035
:10188000022038BD022084F8350000206065204623
:10189000FFF7FEFEE26D3F239340AB6022681368C2
:1018A00043F016031360236C23B12268136843F0DE
:1018B000080313602268136843F0010313600020DB
:1018C000DFE70220DDE70000F0B583B00446002327
:1018D0000193724B1D68724BA3FB0535AD0A876DF2
:1018E0003E68C26D08239340334210D003681A68E3
:1018F00012F0040F0BD01A6822F004021A60C26DB5
:1019000008239340BB60436D43F001034365E26DE0
:1019100001239340334209D02268526912F0800FAC
:1019200004D0BB60636D43F002036365E26D042382
:101930009340334209D02268126812F0020F04D09B
:10194000BB60636D43F004036365E26D1023934055
:10195000334224D02268126812F0080F1FD0BB60F7
:1019600023681A6812F4802F0DD01B6813F4002F1F
:1019700004D1236C9BB12046984710E0A36C73B14F
:10198000204698470BE01A6812F4807F03D11A684A
:1019900022F008021A60236C0BB120469847E26DD2
:1019A00020239340334255D02268126812F0100F62
:1019B00050D0BB6094F83530DBB2052B0ED02368D5
:1019C0001A6812F4802F33D01B6813F4002F2AD129
:1019D000636C002B3ED0204698473BE0226813689A
:1019E00023F0160313602268536923F080035361C8
:1019F000236CA3B12268136823F008031360E26D1F
:101A00003F239340BB60012384F83530002384F8E2
:101A10003430236D002B3FD0204698473CE0A36C28
:101A2000002BE7D1EBE7E36BA3B12046984711E029
:101A30001A6812F4807F09D11A6822F010021A6025
:101A4000012384F83530002384F83430E36B0BB184
:101A500020469847636DFBB1636D13F0010F17D0FB
:101A6000052384F835302268136823F001031360DE
:101A7000019B01330193AB4204D823681B6813F028
:101A8000010FF5D1012384F83530002384F8343078
:101A9000E36C0BB12046984703B0F0BD0000002076
:101AA000B5814E1B00230F2B00F2DE8070B582B093
:101AB00060E085685E000324B44025EA0405CC6834
:101AC000B4402C438460456825EA02054C68C4F3A1
:101AD00000129A402A4342605AE0DC08083450F869
:101AE000246003F0070295000F22AA4026EA020EA6
:101AF0000A69AA4042EA0E0240F824205CE006226D
:101B000000E0002202FA0EF22A430234574D45F853
:101B10002420574A94686FEA0C0224EA0C054E68A8
:101B200016F4801F01D04CEA0405514CA560E4680E
:101B300002EA04054E6816F4001F01D04CEA0405C1
:101B40004B4CE560646802EA04054E6816F4003FF9
:101B500001D04CEA0405464C6560246822404D687B
:101B600015F4803F01D04CEA0402414C226001335D
:101B70000F2B77D801229A400C6804EA020C32EA53
:101B80000404F4D14C6804F00304013C012C90D906
:101B90004A6802F00302032A09D0C4685D000322E8
:101BA000AA4024EA02048A68AA402243C2604A6822
:101BB00002F00302022A90D004684FEA430E032287
:101BC00002FA0EF224EA02044A6802F0030202FA60
:101BD0000EF2224302604A6812F4403FC7D000224E
:101BE0000192244A546C44F480445464526C02F4CC
:101BF00080420192019A9C08A51C1C4A52F825506B
:101C000003F003024FEA820E0F2202FA0EF225EAD7
:101C10000205194A90423FF474AF02F58062904287
:101C200016D002F58062904214D002F58062904294
:101C300012D002F58062904210D002F5806290428C
:101C40000ED002F5806290423FF459AF072259E767
:101C5000012257E7022255E7032253E7042251E706
:101C600005224FE702B070BD704700BF0038014049
:101C7000003C014000380240000002400369194264
:101C800001D001207047002070470AB18161704780
:101C90000904816170470000002800F0CC8070B515
:101CA000044690F83D30002B77D0242384F83D3053
:101CB0002268136823F0010313602268136843F459
:101CC000004313602268136823F40043136000F09C
:101CD00077F962685A4B9A4264D85A4B98428CBF43
:101CE00000230123002B40F0A8805749A1FB0031BD
:101CF0008B0C25686A6822F03F0242EA91426A60D2
:101D000021680A6A22F03F0266684D4DAE424FD804
:101D1000013313430B622168CA6922F44F4222F057
:101D2000FF026668464B9E424CD8431E7600B3FBCA
:101D3000F6F3013340F6FC70034278D0C3F30B0393
:101D40001343CB6121680B6823F0C003E269206A6A
:101D5000024313430B6021688B6823F4034323F091
:101D6000FF032269E068024313438B602168CB685C
:101D700023F0FF036269A06902431343CB6022682A
:101D8000136843F00103136000202064202384F8CB
:101D90003D30206384F83E0070BD80F83C30FFF792
:101DA0005BF882E7294B98428CBF0023012399E717
:101DB0004FF4967505FB03F3254DA5FB03539B09D3
:101DC0000133A6E7A368BBB9451E06EB460CB5FB7D
:101DD000FCF50135C5F30B05B5FA85F56D0945BB75
:101DE000C3B9013806EB4603B0FBF3F30133C3F389
:101DF0000B0343F40043A3E7451E06EB860C0CEBF4
:101E00008C0CB5FBFCF50135C5F30B05B5FA85F572
:101E10006D09E4E7013806EB860303EB8303B0FBAF
:101E2000F3F30133C3F30B0343F4404388E7042384
:101E300086E7012384E7012070470120ACE700BF5B
:101E4000A08601007F841E0083DE1B43FF083D0047
:101E5000D34D6210002800F09B8070B50D460446FB
:101E60004F4B1B6803F00F038B4208D2CBB24C4A96
:101E70001370136803F00F038B4240F08B802368CC
:101E800013F0020F17D013F0040F04D0454A9368E3
:101E900043F4E0539360236813F0080F04D0414AE1
:101EA000936843F4604393603E4A936823F0F003E1
:101EB000A1680B439360236813F0010F32D063686D
:101EC000012B21D09A1E012A25D9364A126812F018
:101ED000020F61D033498A6822F0030213438B60FA
:101EE000FFF7C2F806462F4B9B6803F00C036268AD
:101EF000B3EB820F16D0FFF7B7F8801B41F288339F
:101F00009842F0D9032042E0264A126812F4003FBA
:101F1000E0D101203BE0234A126812F0007FD9D1C2
:101F2000012034E01E4B1B6803F00F03AB4207D9BE
:101F3000EAB21B4B1A701B6803F00F03AB422DD1A2
:101F4000236813F0040F06D0164A936823F4E05375
:101F5000E1680B439360236813F0080F07D0114A20
:101F6000936823F46043216943EAC103936000F05E
:101F700065F80C4B9B68C3F303130B4AD35CD84042
:101F80000A4B18600A4B1868FEF7D6FF002070BD98
:101F9000012070470120FAE70120F8E70120F6E769
:101FA000003C024000380240C04100080000002010
:101FB00008000020014B1868704700BF0000002097
:101FC00008B5FFF7F7FF044B9B68C3F38223034A6E
:101FD000D35CD84008BD00BF00380240D0410008A3
:101FE00008B5FFF7E7FF044B9B68C3F34233034A8E
:101FF000D35CD84008BD00BF00380240D041000883
:102000000F2303600B4B9A6802F0030242609A6848
:1020100002F0F00282609A6802F4E052C2609B68AB
:10202000DB0803F4E0530361034B1B6803F00F0369
:102030000B60704700380240003C024008B55C4B22
:102040009B6803F00C03082B07D00C2B5BD0042BF0
:1020500001D0584808BD5848FCE7554B5A6802F073
:102060003F025B6813F4800F2AD0514B5968C1F3CB
:10207000881C4FEA4C11B1EB0C006EEB0E0E4FEAD0
:102080008E1343EA90638101091A63EB0E03DB00B0
:1020900043EA5173C90011EB0C0C43F100035902E0
:1020A00000234FEA4C2041EADC51FEF7E5F9404BB2
:1020B0005B68C3F3014301335B00B0FBF3F0C9E796
:1020C0003B4B5968C1F3881C4FEA4C11B1EB0C0033
:1020D0006EEB0E0E4FEA8E1343EA90638101091AEC
:1020E00063EB0E03DB0043EA5173C90011EB0C0CE8
:1020F00043F10003990200234FEA8C2041EA9C51EE
:10210000FEF7BAF9D3E72A4B5A6802F03F025B6840
:1021100013F4800F28D0264B5968C1F3881C4FEA6E
:102120004C11B1EB0C006EEB0E0E4FEA8E1343EA2E
:1021300090638101091A63EB0E03DB0043EA5173DC
:10214000C90011EB0C0C43F10003590200234FEAC4
:102150004C2041EADC51FEF78FF9154B5B68C3F365
:102160000273B0FBF3F075E7114B5968C1F3881C9B
:102170004FEA4C11B1EB0C006EEB0E0E4FEA8E13D2
:1021800043EA90638101091A63EB0E03DB0043EA23
:102190005173C90011EB0C0C43F1000399020023A9
:1021A0004FEA8C2041EA9C51FEF766F9D5E700BF63
:1021B000003802400024F40000127A00002800F0E9
:1021C000018270B582B00446036813F0010F41D05C
:1021D000994B9B6803F00C03042B32D0964B9B6801
:1021E00003F00C03082B27D0934B9B6803F00C03E0
:1021F0000C2B59D06368B3F5803F5BD0B3F5A02FAB
:102200005ED08D4B1A6822F480321A601A6822F46C
:1022100080221A606368002B5CD0FEF725FF05461C
:10222000854B1B6813F4003F14D1FEF71DFF401BC4
:102230006428F5D90320CCE17F4B5B6813F4800F51
:10224000D2D07D4B1B6813F4003F03D06368002B92
:1022500000F0BA81236813F0020F60D0764B9B68C0
:1022600013F00C0F4AD0744B9B6803F00C03082B3F
:102270003FD0714B9B6803F00C030C2B69D0E368D3
:10228000002B75D06D4B01221A60FEF7EDFE05465E
:10229000694B1B6813F0020F61D1FEF7E5FE401B8E
:1022A0000228F5D9032094E1634B5B6813F4800F97
:1022B000A0D0C6E7604A136843F480331360A9E7EF
:1022C0005D4B1A6842F480221A601A6842F4803228
:1022D0001A609FE7FEF7C8FE0546574B1B6813F4CC
:1022E000003FB7D0FEF7C0FE401B6428F5D903209D
:1022F0006FE1514B5B6813F4800FBAD14E4B1B68F2
:1023000013F0020F03D0E368012B40F05F814A4ACB
:10231000136823F0F803216943EAC10313602368BB
:1023200013F0080F49D06369002B33D0434B0122CF
:10233000C3F8802EFEF798FE05463F4B5B6F13F007
:10234000020F3AD1FEF790FE401B0228F5D9032078
:102350003FE1394B5B6813F4800F90D1CEE7364AEA
:10236000136823F0F803216943EAC1031360D6E739
:10237000324B00221A60FEF777FE05462E4B1B6893
:1023800013F0020FCBD0FEF76FFE401B0228F5D9E9
:1023900003201EE1294B0022C3F8802EFEF764FEC5
:1023A0000546254B5B6F13F0020F06D0FEF75CFE6F
:1023B000401B0228F5D903200BE1236813F0040F1A
:1023C00076D01D4B1B6C13F0805F33D1002301933B
:1023D000194B1A6C42F080521A641B6C03F0805344
:1023E0000193019B0125164B1B6813F4807F29D0B4
:1023F000A368012B3AD0052B3ED00F4B1A6F22F069
:1024000001021A671A6F22F004021A67A368002BF0
:102410003CD0FEF729FE0646074B1B6F13F0020F58
:1024200045D1FEF721FE801B41F288339842F3D953
:102430000320CEE00025D6E70038024000004742E6
:10244000007000406B4A136843F480731360FEF71A
:102450000BFE0646674B1B6813F4807FC8D1FEF75E
:1024600003FE801B0228F5D90320B2E0624A136FF5
:1024700043F001031367C9E75F4B1A6F42F0040290
:102480001A671A6F42F001021A67BFE7FEF7ECFD08
:102490000646594B1B6F13F0020F08D0FEF7E4FD00
:1024A000801B41F288339842F3D9032091E0EDB9C3
:1024B000A369002B00F08C804F4A926802F00C0256
:1024C000082A54D0022B17D04C4B00221A66FEF774
:1024D000CBFD0446484B1B6813F0007F45D0FEF748
:1024E000C3FD001B0228F5D9032072E0424A136C99
:1024F00023F080531364DBE7404B00221A66FEF79B
:10250000B3FD05463C4B1B6813F0007F06D0FEF779
:10251000ABFD401B0228F5D903205AE0E369226A8B
:102520001343626A43EA8213A26A5208013A43EAF9
:102530000243E26A43EA0263226B43EA02732E4AD1
:1025400053602E4B01221A66FEF78EFD04462A4B7D
:102550001B6813F0007F06D1FEF786FD001B0228E2
:10256000F5D9032035E0002033E0002031E0012BD5
:1025700031D0214B5B6803F48001E26991422CD198
:1025800003F03F02216A8A4229D1616A47F6C0728C
:102590001A40B2EB811F24D103F44031A26A5208E1
:1025A000013AB1EB024F1ED103F07062E16AB2EB67
:1025B000016F1AD103F0E043226BB3EB027F16D117
:1025C000002006E001207047012002E0012000E029
:1025D000002002B070BD0120FBE70120F9E70120D7
:1025E000F7E70120F5E70120F3E70120F1E70120FB
:1025F000EFE700BF00700040003802400000474293
:102600007047000090F83D30DBB2012B37D1022338
:1026100080F83D300268D36843F00103D36003685B
:10262000194A934220D0B3F1804F1DD0A2F57C42CD
:10263000934219D002F58062934215D002F5806270
:10264000934211D002F5784293420DD002F57052B8
:10265000934209D0A2F59432934205D01A6842F011
:1026600001021A60002070479A6802F00702062AE9
:1026700007D01A6842F001021A600020704701205A
:1026800070470020704700BF00000140704770474E
:102690007047704770B504460368DE681D6915F021
:1026A000020F10D016F0020F0DD06FF002021A6167
:1026B0000123037703689B6913F0030F5ED0FFF7D4
:1026C000E6FF0023237715F0040F12D016F0040F55
:1026D0000FD023686FF004021A6102232377236866
:1026E0009B6913F4407F4FD02046FFF7D0FF0023B3
:1026F000237715F0080F12D016F0080F0FD02368BB
:102700006FF008021A61042323772368DB6913F052
:10271000030F40D02046FFF7BAFF0023237715F0C0
:10272000100F12D016F0100F0FD023686FF01002A8
:102730001A61082323772368DB6913F4407F31D0C3
:102740002046FFF7A4FF0023237715F0010F02D0E6
:1027500016F0010F2DD115F0800F02D016F0800F6A
:102760002FD115F0400F02D016F0400F31D115F0E7
:10277000200F02D016F0200F33D170BDFFF786FF77
:102780002046FFF785FF9CE72046FFF77FFF2046A6
:10279000FFF77EFFABE72046FFF778FF2046FFF705
:1027A00077FFBAE72046FFF771FF2046FFF770FF7B
:1027B000C9E723686FF001021A612046FEF75EF94F
:1027C000C9E723686FF080021A61204600F0ABF879
:1027D000C7E723686FF040021A612046FFF759FFF0
:1027E000C5E723686FF020021A61204600F09AF8CE
:1027F000C3E700000368344A904212D0B0F1804F22
:102800000FD0A2F57C4290420BD002F5806290423C
:1028100007D002F58062904203D002F578429042E0
:1028200003D123F070034A681343274A90422AD009
:10283000B0F1804F27D0A2F57C42904223D002F520
:10284000806290421FD002F5806290421BD002F558
:102850007842904217D002F57052904213D002F5A0
:10286000806290420FD002F5806290420BD0A2F5B8
:102870009832904207D002F58062904203D002F570
:102880008062904203D123F44073CA68134323F05B
:1028900080034A69134303608B68C3620B688362D9
:1028A000094B984203D003F58063984201D10B692C
:1028B000036301234361036913F0010F03D003692C
:1028C00023F00103036170470000014040B310B5DD
:1028D000044690F83D30F3B1022384F83D302146A0
:1028E00051F8040BFFF786FF012384F8463084F883
:1028F0003E3084F83F3084F8403084F8413084F82A
:10290000423084F8433084F8443084F8453084F809
:102910003D30002010BD80F83C30FFF771FEDBE752
:10292000012070477047704738B504460268136944
:1029300023F44053C1680B43136183680269134356
:1029400042691343C2691A430168CB6823F41643F2
:1029500023F00C031343CB600268536923F44073E4
:1029600081690B4353610368314A934206D002F5F3
:102970008062934202D0FFF723FB01E0FFF730FBB8
:10298000E369B3F5004F29D00021031849411B1812
:1029900041F10001C90041EA5371DB001818636876
:1029A0004FEA83024FEA937341F10001FDF764FDA2
:1029B000204DA5FB00325109642303FB11031B01C9
:1029C0003233A5FB03235B0903F0F00202EB011293
:1029D00003F00F03216813448B6038BD00230218F5
:1029E00043EB0301121841F10001C90041EA5271A1
:1029F000D200101841F10001626892185B41FDF7A6
:102A00003BFD0C4DA5FB00325109642303FB110370
:102A1000DB003233A5FB03235B095A0002F4F87292
:102A200002EB011203F00703216813448B60D4E723
:102A3000001001401F85EB5160B310B5044690F8BB
:102A4000413013B3242384F841302268D36823F43F
:102A50000053D3602046FFF767FF2268136923F411
:102A6000904313612268536923F02A03536122685B
:102A7000D36843F40053D36000206064202384F8BB
:102A8000413084F84230606310BD80F84030FEF77A
:102A90001BFAD7E701207047842801D00330704724
:102AA0000020704708B501F01FF8002008BD2DE98F
:102AB000F04387B004460F464569BDB18669AEB1A3
:102AC000D0F80480D0F80090B0F90800FFF7E4FFD8
:102AD0000296019500903B4622694946404600F027
:102AE00093FF0590059807B0BDE8F08365682668F8
:102AF000D4F81080B4F90800FFF7CEFF05AB0193BE
:102B000000903B461FFA88F23146284600F0B7FF96
:102B10000128E7D00020E6E708B500B9012001F060
:102B20002DF9002008BD00B583B0826842B1C368AA
:102B300033B1002100914168006800F0F1FB04E02E
:102B400000224168006800F035FC03B05DF804FB2A
:102B500000F1080343604FF0FF328260C3600361FD
:102B600000230360704700230361704743684B6094
:102B70009A688A6051609960086103680133036054
:102B8000704730B40D68B5F1FF3F11D000F1080374
:102B90001C465B681A68AA42FAD963684B60996060
:102BA0008C606160086103680133036030BC70476A
:102BB0000469F2E70369416882688A60416851608C
:102BC0005A68824206D0002202611A68013A1A60ED
:102BD0001868704782685A60F5E7000082B00023E9
:102BE00001930D4B1B68B3F1FF3F08D04FF050032A
:102BF00083F31188BFF36F8FBFF34F8FFEE74FF062
:102C0000500383F31188BFF36F8FBFF34F8F019B86
:102C1000002BFCD002B070470C0000200848006870
:102C2000006880F308884FF0000080F3148862B6D3
:102C300061B6BFF34F8FBFF36F8F00DF00BF00009F
:102C400008ED00E0DFF80C00016841F4700101605C
:102C50007047000088ED00E04FF0807340F8043CBE
:102C600021F0010140F8081C054B40F80C3C40F8ED
:102C7000202C6FF0020340F8243C4438704700BF1A
:102C8000DD2B000800000000000000000000000034
:102C9000074B19680868B0E8F04F80F30988BFF364
:102CA0006F8F4FF0000080F311887047AFF3008002
:102CB000884000204FF0500383F31188BFF36F8FDB
:102CC000BFF34F8F0B4A136801331360012B00D001
:102CD00070474FF0E023D3F8043D13F0FF0FF7D017
:102CE0004FF0500383F31188BFF36F8FBFF34F8F03
:102CF000FEE700BF0C000020094B1B6843B94FF0F2
:102D0000500383F31188BFF36F8FBFF34F8FFEE73C
:102D1000013B034A13600BB983F31188704700BF6E
:102D20000C00002000000000000000000000000077
:102D3000EFF30980BFF36F8F154B1A681EF0100F69
:102D400008BF20ED108A20E9F04F10602DE909003E
:102D50004FF0500080F31188BFF34F8FBFF36F8F98
:102D600001F032F84FF0000080F3118809BC1968B7
:102D70000868B0E8F04F1EF0100F08BFB0EC108AE2
:102D800080F30988BFF36F8F704700BFAFF30080F7
:102D90008840002008B54FF0500383F31188BFF33B
:102DA0006F8FBFF34F8F00F0E1FE28B14FF0E023AB
:102DB0004FF08052C3F8042D002383F3118808BD1F
:102DC0004FF0E022002313619361054B1B68054916
:102DD000A1FB03139B09013B536107231361704758
:102DE00000000020D34D62104FF0E023D3F8002DF7
:102DF0003D4B9A421CD04FF0E023D3F8002D3B4BC3
:102E00009A421ED030B583B0394B1A78D2B20192B3
:102E1000FF221A701B78DBB28DF803309DF8033067
:102E200003F05003334A1370334B07221A601BE040
:102E30004FF0500383F31188BFF36F8FBFF34F8FB1
:102E4000FEE74FF0500383F31188BFF36F8FBFF39A
:102E50004F8FFEE7284A1368013B13609DF803304B
:102E60005B00DBB28DF803309DF8033013F0800F68
:102E7000F0D1214B1B68032B08D04FF0500383F394
:102E80001188BFF36F8FBFF34F8FFEE71B021A4A03
:102E9000136003F4E0631360019BDBB2144A137008
:102EA0004FF0E024D4F8203D43F47003C4F8203DF3
:102EB000D4F8203D43F07043C4F8203DFFF780FF75
:102EC00000250E4B1D60FFF7BDFED4F8343F43F0E4
:102ED0004043C4F8343FFFF7A1FE00F075FFFFF751
:102EE0007DFE284603B030BD71C20F4170C20F4154
:102EF00000E400E060040020640400200C000020D6
:102F0000124A12F0070F1ED0D11D21F00701C1F5A2
:102F1000705313440A460E48026000214160134476
:102F2000083B23F007030B48036059601960991AA6
:102F300051601360084B1960084B1960084B4FF043
:102F400000421A6070474FF47053E4E76C040020AD
:102F50008040002068040020744000207040002061
:102F60006C400020164B1A461B688342FBD3516805
:102F700002EB010C844509D0416800EB010C63456C
:102F800009D00360904219D0106070474068014436
:102F900051601046F0E710B40A4C2468A3420BD0ED
:102FA0005B681944416013681B680360904200D05D
:102FB00010605DF8044B70470460F7E7704700BF8E
:102FC000804000206804002070B5054600F0C6FD72
:102FD000364B1B68A3B1364B1B681D424ED135B131
:102FE000083515F0070F02D025F007050835002D2C
:102FF00046D0304B1B68AB4251D32F4A146804E0D3
:10300000FFF77EFFE7E722461C466368AB4202D229
:103010002368002BF7D1254B1B68A34241D01668CB
:1030200008362368136063685B1B102B10D9601986
:1030300010F0070F08D04FF0500383F31188BFF34F
:103040006F8FBFF34F8FFEE743606560FFF78AFF26
:10305000626818490B689B1A0B60184909688B4213
:1030600001D216490B60124B1B68134363600023A7
:103070002360134A13680133136002E0002600E066
:10308000002600F0FFFD16F0070F0CD04FF05003A4
:1030900083F31188BFF36F8FBFF34F8FFEE70026D6
:1030A000EFE70026EDE7304670BD00BF6804002062
:1030B0006C400020704000208040002074400020C0
:1030C00078400020002834D038B50446A0F1080527
:1030D00050F8043C174A1268134208D14FF05003CD
:1030E00083F31188BFF36F8FBFF34F8FFEE750F864
:1030F000081C41B14FF0500383F31188BFF36F8F69
:10310000BFF34F8FFEE723EA020340F8043C00F0D0
:1031100025FD54F8041C084A13680B441360284624
:10312000FFF720FF054A13680133136000F0AAFD82
:1031300038BD70476C400020704000207C4000206B
:1031400010B50446FFF7B6FDA26BE36B9A4204D0BC
:103150000024FFF7D1FD204610BD0124F9E710B58A
:103160000446FFF7A7FDA36B23B90124FFF7C4FDB5
:10317000204610BD0024F9E770B504461546866B5D
:10318000026C5AB903681BB100200136A66370BDFA
:10319000806800F027FF0023A360F6E76DB9406860
:1031A000FDF77EF8226C636813446360A268934263
:1031B00019D3236863602846E7E7C068FDF770F815
:1031C000226C5142E3689B1AE3602268934202D268
:1031D000A3680B44E360022D01D00020D5E726B19F
:1031E000013E0020D1E72846CFE70020CDE7034687
:1031F000026C6AB110B50846D9681144D9609C6860
:10320000A14201D31968D960D968FDF749F810BD0A
:10321000704738B50546FFF74DFD95F8454064B257
:1032200001E0013C64B2002C0ADD6B6A43B105F198
:10323000240000F02DFE0028F3D000F0BDFEF0E7E2
:10324000FF2385F84530FFF757FDFFF733FD95F86D
:10325000444064B201E0013C64B2002C0ADD2B69F9
:1032600043B105F1100000F013FE0028F3D000F088
:10327000A3FEF0E7FF2385F84430FFF73DFD38BD9E
:1032800038B5E0B10D460446FFF714FD2368E26B44
:10329000216C01FB0230A0600020A0636360013A52
:1032A00002FB0133E360FF2384F8443084F84530A7
:1032B000FDB9236963B9FFF71FFD012038BD4FF049
:1032C000500383F31188BFF36F8FBFF34F8FFEE777
:1032D00004F1100000F0DCFD0028ECD04FF0E023FA
:1032E0004FF08052C3F8042DBFF34F8FBFF36F8FA1
:1032F000E1E704F11000FFF72BFC04F12400FFF7D5
:1033000027FCD8E710B5034602980C4631B9006097
:10331000C36304640121FFF7B3FF10BD0260F7E748
:1033200040B94FF0500383F31188BFF36F8FBFF3A1
:103330004F8FFEE710B584B01C46844653B192B15E
:1033400089B94FF0500383F31188BFF36F8FBFF338
:103350004F8FFEE74FF0500383F31188BFF36F8F59
:10336000BFF34F8FFEE76AB148230393039B482BBB
:1033700013D04FF0500383F31188BFF36F8FBFF367
:103380004F8FFEE70029EFD04FF0500383F31188F1
:10339000BFF36F8FBFF34F8FFEE7039B012384F8CA
:1033A000463000949DF818306046FFF7ABFF20468A
:1033B00004B010BD40B94FF0500383F31188BFF340
:1033C0006F8FBFF34F8FFEE7F0B583B00D46144605
:1033D000064601FB00F04830FFF7F6FD074650B106
:1033E000002380F846300090234600F14802294629
:1033F0003046FFF787FF384603B0F0BDF0B585B023
:10340000019288B10F461D460446B1B1022D20D16C
:10341000E36B012B1DD04FF0500383F31188BFF3F2
:103420006F8FBFF34F8FFEE74FF0500383F3118888
:10343000BFF36F8FBFF34F8FFEE7036C002BE5D018
:103440004FF0500383F31188BFF36F8FBFF34F8F9B
:10345000FEE700F0B7FD064658B9019B002B48D0A7
:103460004FF0500383F31188BFF36F8FBFF34F8F7B
:10347000FEE700263DE02A4639462046FFF77CFE5F
:10348000636A7BB948B14FF0E0234FF08052C3F834
:10349000042DBFF34F8FBFF36F8FFFF72DFC01207B
:1034A00005B0F0BD04F1240000F0F2FC0028F4D0D7
:1034B0004FF0E0234FF08052C3F8042DBFF34F8F3D
:1034C000BFF36F8FE9E7FFF717FC0020E8E702A8DA
:1034D00000F024FD012619E0002384F8443021E0A7
:1034E000002384F8453023E02046FFF792FE00F0E9
:1034F000C9FBFFF7DFFBA26BE36B9A42BBD3022D44
:10350000B9D0019B002BDED0002EE0D0FFF7F4FBFA
:1035100000F024FBFFF7CEFB94F8442052B2B2F146
:10352000FF3FD9D094F8452052B2B2F1FF3FD7D037
:10353000FFF7E2FB01A902A800F0FCFCD8B9204685
:10354000FFF7FEFD0028CFD0019904F1100000F034
:1035500087FC2046FFF75DFE00F094FB0028C8D1F1
:103560004FF0E0234FF08052C3F8042DBFF34F8F8C
:10357000BFF36F8FBDE72046FFF74BFE00F082FBE5
:1035800000208DE7F0B585B0019290B10F4604465A
:10359000C1B100F017FD064600BB019B002B5ED0B9
:1035A0004FF0500383F31188BFF36F8FBFF34F8F3A
:1035B000FEE74FF0500383F31188BFF36F8FBFF323
:1035C0004F8FFEE7036C002BE3D04FF0500383F3E3
:1035D0001188BFF36F8FBFF34F8FFEE700263EE0E9
:1035E00039462046FFF703FE013DA563236923B951
:1035F000FFF782FB012005B0F0BD04F1100000F0E0
:1036000047FC0028F4D04FF0E0234FF08052C3F87D
:10361000042DBFF34F8FBFF36F8FE9E7FFF76CFB0C
:103620000020E8E702A800F079FC012621E0002351
:1036300084F8443029E0002384F845302BE020460C
:10364000FFF7E7FD00F01EFB09E02046FFF7E1FD74
:1036500000F018FB2046FFF782FD00283FD1FFF75E
:1036600029FBA56B002DBBD1019B002BD6D0002ED2
:10367000D8D0FFF741FB00F071FAFFF71BFB94F87D
:1036800044305BB2B3F1FF3FD1D094F845305BB228
:10369000B3F1FF3FCFD0FFF72FFB01A902A800F045
:1036A00049FC0028D1D12046FFF759FD0028C6D09B
:1036B000019904F1240000F0D3FB2046FFF7A9FD97
:1036C00000F0E0FA0028CAD14FF0E0234FF080521A
:1036D000C3F8042DBFF34F8FBFF36F8FBFE70020F8
:1036E00089E70000084B1B681B6823B9074B4FF0A4
:1036F000FF321A607047044B1B68DB68DB685A684E
:10370000024B1A60704700BF8C40002060410020CF
:103710002DE9F04707469846089DDDF824900A9C5D
:10372000266B02F18042013A06EB820626F007067C
:1037300000293AD08E464FF0000CBCF10F0F0BD889
:103740001EF80C2004EB0C0383F834201EF80C3018
:1037500013B10CF1010CF0E7002384F84330062D7F
:1037600000D90625E56265644FF0000AC4F848A058
:10377000201DFFF7F8F904F11800FFF7F4F92461B0
:10378000C5F10705A5616462C4F84CA084F850A097
:10379000424639463046FFF75FFA2060B9F1000F24
:1037A00001D0C9F80040BDE8F087002384F8343028
:1037B000D5E7000038B5002407E004EB840293004D
:1037C0000E481844FFF7C4F90134062CF5D90C4D06
:1037D0002846FFF7BDF90B4C2046FFF7B9F90A4818
:1037E000FFF7B6F90948FFF7B3F90948FFF7B0F951
:1037F000084B1D60084B1C6038BD00BF9440002082
:1038000034410020484100206C41002098410020B4
:10381000844100208C4000209040002010B50446D8
:10382000FFF748FA214A136801331360204B1B68E5
:103830005BB1204B1B686BB91D4B1B68DA6AE36AEE
:103840009A4207D81A4B1C6004E0194B1C6013689D
:10385000012B28D0184A136801331360E06A012352
:103860008340164A11680B43136000EB8000211D52
:10387000134B03EB8000FFF779F9FFF73DFA0D4B8F
:103880001B687BB10A4B1B68DA6AE36A9A4209D269
:103890004FF0E0234FF08052C3F8042DBFF34F8F59
:1038A000BFF36F8F10BDFFF785FFD3E720410020E6
:1038B00088400020804100202C4100203041002021
:1038C0009440002010B5044690F8513063B1012BAC
:1038D00011D0022B0ED04FF0500383F31188BFF3A9
:1038E0006F8FBFF34F8FFEE7006BFFF7EBFB2046B8
:1038F000FFF7E8FB10BDFFF7E5FBFBE70F4B1B688D
:10390000D3B110B5FFF7D6F90D4BDB68DC68201D8D
:10391000FFF750F90B4A1368013B1360074A13681D
:10392000013B1360FFF7E8F92046FFF7CBFF034B9D
:103930001B68002BE6D110BD704700BF244100205A
:10394000984100202041002008B5FFF7D7FF074B22
:103950001B68012BF9D94FF0E0234FF08052C3F8D8
:10396000042DBFF34F8FBFF36F8FEEE7944000201D
:1039700070B504460D461D4B1E681D4B186804307B
:10398000FFF718F950B91A4B1B68DA6A012303FADA
:1039900002F218490B6823EA02030B60B4F1FF3FFF
:1039A0000DD03444124B1B685C60A64210D9124BF8
:1039B00018680F4B19680431FFF7E3F870BD002D4C
:1039C000EFD00B4B196804310C48FFF7CFF8F5E73F
:1039D0000B4B1868064B19680431FFF7D2F8094BF6
:1039E0001B68A342EAD9074B1C60E7E7AC41002003
:1039F0008840002030410020904000208441002079
:103A00008C4000206041002030B587B00B9C7CB119
:103A10000C9DB5B154250495049D542D1AD04FF03A
:103A2000500383F31188BFF36F8FBFF34F8FFEE70F
:103A30004FF0500383F31188BFF36F8FBFF34F8FA5
:103A4000FEE74FF0500383F31188BFF36F8FBFF38E
:103A50004F8FFEE7049D0C9D2C63022485F8514096
:103A600000240394029505AC01940A9C0094FFF78E
:103A70004FFE0C98FFF7D2FE059807B030BD2DE938
:103A8000F04385B00746884614461E469000FFF76F
:103A90009BFA00B381465420FFF796FA0546B0B171
:103AA000C0F83090E5B1002385F8513003930295BA
:103AB0000D9B01930C9B00933346224641463846AA
:103AC000FFF726FE2846FFF7A9FE012005E048463D
:103AD000FFF7F8FAE6E74FF0FF3005B0BDE8F083F6
:103AE0004FF0FF30F9E7000010B588B000240594CE
:103AF000069407AA06A905A8FCF740FE059B0293B9
:103B0000069B019300942346079A0E490E48FFF73F
:103B10007BFF0E4B186090B14FF0500383F3118878
:103B2000BFF36F8FBFF34F8F094B4FF0FF321A6017
:103B3000084B01221A60084B1C60FFF755F908B0CA
:103B400010BD00BFE0410008493900085C41002079
:103B50006041002080410020AC410020024A1368EF
:103B600001331360704700BF28410020F8B53A4B7D
:103B70001B68002B69D1394B1D6801351D60C5B923
:103B8000374B1B681B6843B14FF0500383F3118818
:103B9000BFF36F8FBFF34F8FFEE7314A1168314B90
:103BA000186810601960304A136801331360FFF71A
:103BB00099FD2E4B1B68AB423DD900272C4B1B684F
:103BC000DB6A03EB83039A002A4B9B58012B00D935
:103BD0000127294B1B68002B3CD001273AE0012725
:103BE0001F4B1B681B6843B31D4B1B68DB68DC68FD
:103BF00063689D4226D3261D3046FEF7DBFFA36A8D
:103C00001BB104F11800FEF7D5FFE36A01229A40C8
:103C10001A49086802430A6003EB83039A0031469D
:103C200014481044FEF7A2FFE26A114B1B68DB6ADE
:103C30009A42D4D2D4E70027D2E70C4B4FF0FF32A0
:103C40001A60BBE7094A1360B8E70D4A13680133ED
:103C5000136000273846F8BD28410020AC41002001
:103C60008C400020904000206441002060410020F2
:103C70008840002094400020B041002030410020C6
:103C80006841002038B5354B1B6843B94FF05003ED
:103C900083F31188BFF36F8FBFF34F8FFEE7FFF7FA
:103CA00009F82E4B1A68013A1A601B68002B4FD195
:103CB0002B4B1B680BB900244BE00024294B1B68DD
:103CC0001BB3284BDB68DC6804F11800FEF772FFB9
:103CD000251D2846FEF76EFFE06A01238340224A35
:103CE00011680B43136000EB800029461F4B03EB68
:103CF0008000FEF73BFFE26A1D4B1B68DB6A9A42BD
:103D0000DCD31C4B01221A60D8E70CB1FFF7EAFCA8
:103D1000194B1C6884B9174B1C68D4B14FF0E023D1
:103D20004FF08052C3F8042DBFF34F8FBFF36F8F56
:103D300001240EE0013C07D0FFF718FF0028F9D05E
:103D40000C4B01221A60F5E70B4B00221A60E2E7E8
:103D50000024FEF7D1FF204638BD00BF28410020D7
:103D6000204100206C410020304100209440002080
:103D700088400020B04100206841002010B5A8B163
:103D80000446104B1B6843B14FF0500383F3118876
:103D9000BFF36F8FBFF34F8FFEE7FFF7DFFE00210A
:103DA0002046FFF7E5FDFFF76DFF48B94FF0E02330
:103DB0004FF08052C3F8042DBFF34F8FBFF36F8FC6
:103DC00010BD00BF28410020204B1B681BB1204BB9
:103DD00001221A6070471E4B00221A601D4B1B689F
:103DE000B3FA83F3DBB2C3F11F0303EB83018A0051
:103DF00019498A5842B94FF0500383F31188BFF331
:103E00006F8FBFF34F8FFEE7134903EB83008200F0
:103E10000A4450684068506003EB830C4FEA8C0200
:103E200008321144884209D003EB83039A000A4BFD
:103E300013445B68DA68094B1A6070474068624651
:103E40009100054A0A445060EEE700BF2841002077
:103E5000B0410020304100209440002088400020E4
:103E600058B110B50C46094A11681831FEF789FEA1
:103E700001212046FFF77CFD10BD4FF0500383F376
:103E80001188BFF36F8FBFF34F8FFEE7884000208C
:103E900038B5C368DC6824B304F118052846FEF77A
:103EA00089FE184B1B682BBB251D2846FEF782FE9A
:103EB000E06A01238340144A11680B43136000EB4E
:103EC00080002946114B03EB8000FEF74FFEE26AAB
:103ED0000F4B1B68DB6A9A4211D901200D4B186009
:103EE00038BD4FF0500383F31188BFF36F8FBFF3DA
:103EF0004F8FFEE729460848FEF738FEE7E7002027
:103F0000EEE700BF2841002030410020944000200F
:103F100088400020B04100206C410020034B1B680A
:103F20000360034B1B684360704700BF644100207F
:103F3000AC410020F8B5C8B10C460546F9B1FEF712
:103F4000B9FE1B4B19686B68C81A2268B2F1FF3FB3
:103F500026D0184E36682F68B74201D08B4224D93C
:103F6000824215D80023236001241AE04FF0500349
:103F700083F31188BFF36F8FBFF34F8FFEE74FF0CE
:103F8000500383F31188BFF36F8FBFF34F8FFEE7AA
:103F90005B1A134423602846FFF7C0FF002400E0AB
:103FA0000024FEF7A9FE2046F8BD0124F9E700BF72
:103FB000AC41002064410020014B01221A6070478F
:103FC000B0410020054B1B6833B1054B1B680BB19A
:103FD0000020704702207047012070478041002078
:103FE0002841002000284CD038B50446274B1B68D8
:103FF000834208D04FF0500383F31188BFF36F8FD3
:10400000BFF34F8FFEE7836C43B94FF0500383F348
:104010001188BFF36F8FBFF34F8FFEE7013B8364BF
:10402000C16A426C91422ED00BB1002038BD051DF3
:104030002846FEF7BFFD70B9E26A02EB82039B00DF
:104040001349CB583BB9012303FA02F211490B681B
:1040500023EA02030B60606CE062C0F10703A36116
:10406000012404FA00F30B4A11680B43136000EBC0
:1040700080002946064B03EB8000FEF777FD2046C3
:10408000D4E7002070470020D0E700BF8840002020
:104090009440002030410020DFF834D0FCF7B4FF1A
:1040A0000C480D490D4A002302E0D458C450043393
:1040B000C4188C42F9D30A4A0A4C002301E0136069
:1040C0000432A242FBD3FCF7C7F8FCF7C5FD7047EA
:1040D000000002200000002010000020F84100082D
:1040E00010000020B4410020FEE70000F8B500BF3A
:1040F000F8BC08BC9E467047F8B500BFF8BC08BCC9
:044100009E46704720
:104104001000000014000000000000000000000087
:104114008441000885080008000000000000000039
:104124008000000000000000000000009041000832
:10413400A1080008FEFF000000000000800000004D
:104144000000000000000000A0410008010A00086F
:1041540000000000000000008000000000000000DB
:1041640000000000B0410008C5080008000000007D
:1041740000000000800000000000000000000000BB
:1041840064656661756C745461736B00426C696E2E
:104194006B4C45445461736B000000004D696E69BB
:1041A400426F74496E707574730000004170706CD6
:1041B40069636174696F6E46534D0000000000002E
:1041C40000000000010203040607080900000000C3
:1041D40001020304000610160006101649444C455B
:0441E40000000000D7
:0841E800C0C2FF7F01000000CE
:0441F0003902000888
:0441F40011020008AC
:1041F8000024F4000100000010000000AAAAAAAAE6
:040000050800409916
:00000001FF
