:020000040800F2
:1000000000000220C1590008E5200008E720000890
:10001000E9200008EB200008ED20000800000000A7
:100020000000000000000000000000003145000852
:10003000EF20000800000000D14500083546000808
:10004000115A0008115A0008115A0008115A0008E4
:10005000115A0008115A0008115A0008115A0008D4
:10006000115A0008115A0008115A0008115A0008C4
:10007000115A0008115A0008115A0008115A0008B4
:10008000115A0008115A0008115A0008115A0008A4
:10009000115A0008115A0008115A0008115A000894
:1000A000115A0008115A0008115A0008115A000884
:1000B000115A0008115A0008115A0008115A000874
:1000C000115A0008115A0008115A0008115A000864
:1000D000115A0008115A0008115A0008115A000854
:1000E000115A0008115A0008115A0008115A000844
:1000F000115A0008115A0008115A0008115A000834
:10010000115A0008115A0008115A0008115A000823
:10011000115A0008115A0008F1200008115A00086D
:10012000115A0008115A0008115A0008115A000803
:10013000115A00080000000000000000115A0008D9
:10014000115A0008115A0008115A0008115A0008E3
:10015000115A0008115A0008115A0008115A0008D3
:10016000115A0008115A0008115A0008115A0008C3
:10017000115A0008115A0008115A00080000000026
:1001800000000000115A00080000000000000000FC
:10019000115A00080000000000000000115A000879
:1001A000000000000000000000000000115A0008DC
:1001B000115A0008115A0008115A0008115A000873
:0401C000115A0008C8
:1001D0000348044B834202D0034B03B118477047D6
:1001E0001000002010000020000000000548064913
:1001F0000B1AD90F01EBA301491002D0034B03B135
:100200001847704710000020100000200000000078
:1002100010B5064C237843B9FFF7DAFF044B13B14E
:100220000448AFF300800123237010BD10000020AC
:1002300000000000145A000808B5044B1BB1044923
:100240000448AFF30080BDE80840CFE7000000009D
:1002500014000020145A000870B50D4E0D4D761B89
:10026000B61006D0002455F8043B01349847A64246
:10027000F9D1094E094D761B05F0CCFBB61006D01E
:10028000002455F8043B01349847A642F9D170BDCB
:10029000A45B0008A45B0008A85B0008A45B00083E
:1002A000844641EA000313F003036DD1403A41D381
:1002B00051F8043B40F8043B51F8043B40F8043B40
:1002C00051F8043B40F8043B51F8043B40F8043B30
:1002D00051F8043B40F8043B51F8043B40F8043B20
:1002E00051F8043B40F8043B51F8043B40F8043B10
:1002F00051F8043B40F8043B51F8043B40F8043B00
:1003000051F8043B40F8043B51F8043B40F8043BEF
:1003100051F8043B40F8043B51F8043B40F8043BDF
:1003200051F8043B40F8043B51F8043B40F8043BCF
:10033000403ABDD2303211D351F8043B40F8043B6F
:1003400051F8043B40F8043B51F8043B40F8043BAF
:1003500051F8043B40F8043B103AEDD20C3205D37F
:1003600051F8043B40F8043B043AF9D2043208D077
:10037000D2071CBF11F8013B00F8013B01D30B88E9
:1003800003806046704700BF082A13D38B078DD0C7
:1003900010F003038AD0C3F10403D21ADB071CBF99
:1003A00011F8013B00F8013B80D331F8023B20F803
:1003B000023B7BE7043AD9D3013A11F8013B00F83C
:1003C000013BF9D20B7803704B7843708B788370C4
:1003D00060467047830730B548D0541E002A3FD08E
:1003E000CAB2034601E0013C3AD303F8012B9D0752
:1003F000F9D1032C2DD9CDB245EA05250F2C45EABC
:10040000054536D9A4F1100222F00F0C03F1200E9D
:10041000E6444FEA121C03F1100242E9045542E996
:10042000025510327245F8D10CF1010214F00C0F94
:1004300003EB021204F00F0C13D0ACF1040323F011
:1004400003030433134442F8045B9342FBD10CF0E2
:1004500003042CB1CAB21C4403F8012B9C42FBD10B
:1004600030BD64461346002CF4D1F9E70346144628
:10047000BFE71A46A446E0E751EC100BF8B5C1F30C
:100480000A53A3F2FF35132D10EE106A0C4630DC30
:10049000002D1EDB384F2F4101EA070303432DD007
:1004A00033A3D3E9002300F071F80022002300F009
:1004B000B3FC48B1002C04DA4FF4801343FA05F57D
:1004C0002C4424EA070400262346324643EC102B32
:1004D000F8BD27A3D3E9002300F058F80022002339
:1004E00000F09AFC0028EFD0002C29DB00263446CF
:1004F000EAE7332D05DDB5F5806F19D041EC100B1F
:10050000F8BDA3F213434FF0FF37DF400742F5D0A9
:1005100017A3D3E9002300F039F80022002300F0EC
:100520007BFC0028D0D0002C13DB26EA0706CBE7A3
:1005300010EE102A0B4600F029F841EC100BF8BD24
:1005400024F000430D4A1E43002E18BF1446002617
:10055000BAE7142D08D00123C5F1340503FA05F5D7
:10056000AE1928BFE418E0E70134DEE7AFF30080FE
:100570009C7500883CE4377EFFFF0F000000F0BF51
:1005800081F0004102E000BF83F0004330B54FEA44
:1005900041044FEA430594EA050F08BF90EA020FB1
:1005A0001FBF54EA000C55EA020C7FEA645C7FEA44
:1005B000655C00F0E2804FEA5454D4EB5555B8BF67
:1005C0006D420CDD2C4480EA020281EA030382EAD8
:1005D000000083EA010180EA020281EA0303362D6A
:1005E00088BF30BD11F0004F4FEA01314FF4801C3D
:1005F0004CEA113102D0404261EB410113F0004F4F
:100600004FEA03334CEA133302D0524263EB430305
:1006100094EA050F00F0A780A4F10104D5F1200EA3
:100620000DDB02FA0EFC22FA05F2801841F10001FE
:1006300003FA0EF2801843FA05F359410EE0A5F1D2
:1006400020050EF1200E012A03FA0EFC28BF4CF003
:10065000020C43FA05F3C01851EBE37101F00045B9
:1006600007D54FF0000EDCF1000C7EEB00006EEBC6
:100670000101B1F5801F1BD3B1F5001F0CD3490850
:100680005FEA30004FEA3C0C04F101044FEA4452A7
:1006900012F5800F80F09A80BCF1004F08BF5FEA2E
:1006A000500C50F1000041EB045141EA050130BD0E
:1006B0005FEA4C0C404141EB0101013C28BFB1F520
:1006C000801FE9D291F0000F04BF01460020B1FA6B
:1006D00081F308BF2033A3F10B03B3F120020CDA3E
:1006E0000C3208DD02F1140CC2F10C0201FA0CF01C
:1006F00021FA02F10CE002F11402D8BFC2F1200C81
:1007000001FA02F120FA0CFCDCBF41EA0C01904036
:10071000E41AA2BF01EB0451294330BD6FEA04047F
:100720001F3C1CDA0C340EDC04F11404C4F120026A
:1007300020FA04F001FA02F340EA030021FA04F37C
:1007400045EA030130BDC4F10C04C4F1200220FAD3
:1007500002F001FA04F340EA0300294630BD21FA11
:1007600004F0294630BD94F0000F83F4801306BFD7
:1007700081F480110134013D4EE77FEA645C18BFCB
:100780007FEA655C29D094EA050F08BF90EA020F62
:1007900005D054EA000C04BF1946104630BD91EA5A
:1007A000030F1EBF0021002030BD5FEA545C05D15D
:1007B0004000494128BF41F0004130BD14F580049C
:1007C0003CBF01F5801130BD01F0004545F0FE4110
:1007D00041F470014FF0000030BD7FEA645C1ABF45
:1007E000194610467FEA655C1CBF0B46024650EA7C
:1007F000013406BF52EA033591EA030F41F40021A8
:1008000030BD00BF90F0000F04BF0021704730B52D
:100810004FF4806404F132044FF000054FF0000102
:1008200050E700BF90F0000F04BF0021704730B5C3
:100830004FF4806404F1320410F0004548BF404298
:100840004FF000013EE700BF42004FEAE2014FEAED
:1008500031014FEA02701FBF12F07F4393F07F4FC8
:1008600081F06051704732F07F4208BF704793F0CB
:100870007F4F04BF41F40021704730B54FF46074DE
:1008800001F0004521F000411CE700BF50EA0102E1
:1008900008BF704730B54FF000050AE050EA01028A
:1008A00008BF704730B511F0004502D5404261EBFA
:1008B00041014FF4806404F132045FEA915C3FF43B
:1008C000D8AE4FF003025FEADC0C18BF03325FEAD8
:1008D000DC0C18BF033202EBDC02C2F1200300FA89
:1008E00003FC20FA02F001FA03FE40EA0E0021FAAE
:1008F00002F11444BDE600BF70B54FF0FF0C4CF49C
:10090000E06C1CEA11541DBF1CEA135594EA0C0F4D
:1009100095EA0C0F00F0DEF82C4481EA030621EA88
:100920004C5123EA4C5350EA013518BF52EA0335C3
:1009300041F4801143F4801338D0A0FB02CE4FF075
:100940000005E1FB02E506F00042E0FB03E54FF0A5
:100950000006E1FB03569CF0000F18BF4EF0010E9D
:10096000A4F1FF04B6F5007F64F5407404D25FEA99
:100970004E0E6D4146EB060642EAC62141EA55514C
:100980004FEAC52040EA5E504FEACE2EB4F1FD0C8E
:1009900088BFBCF5E06F1ED8BEF1004F08BF5FEA0C
:1009A000500E50F1000041EB045170BD06F00046BE
:1009B00046EA010140EA020081EA0301B4EB5C046B
:1009C000C2BFD4EB0C0541EA045170BD41F4801163
:1009D0004FF0000E013C00F3AB8014F1360FDEBF88
:1009E000002001F0004170BDC4F10004203C35DA64
:1009F0000C341BDC04F11404C4F1200500FA05F3E7
:100A000020FA04F001FA05F240EA020001F0004287
:100A100021F0004110EBD37021FA04F642EB0601FD
:100A20005EEA430E08BF20EAD37070BDC4F10C0427
:100A3000C4F1200500FA04F320FA05F001FA04F2EB
:100A400040EA020001F0004110EBD37041F10001D7
:100A50005EEA430E08BF20EAD37070BDC4F12005E2
:100A600000FA05F24EEA020E20FA04F301FA05F24A
:100A700043EA020321FA04F001F0004121FA04F2F2
:100A800020EA020000EBD3705EEA430E08BF20EAC2
:100A9000D37070BD94F0000F0FD101F000464000FC
:100AA00041EB010111F4801F08BF013CF7D041EA7E
:100AB000060195F0000F18BF704703F00046520082
:100AC00043EB030313F4801F08BF013DF7D043EA53
:100AD0000603704794EA0C0F0CEA135518BF95EA09
:100AE0000C0F0CD050EA410618BF52EA4306D1D190
:100AF00081EA030101F000414FF0000070BD50EAAF
:100B0000410606BF1046194652EA430619D094EA38
:100B10000C0F02D150EA013613D195EA0C0F05D122
:100B200052EA03361CBF104619460AD181EA030176
:100B300001F0004141F0FE4141F470014FF000002E
:100B400070BD41F0FE4141F4780170BD70B54FF0C9
:100B5000FF0C4CF4E06C1CEA11541DBF1CEA135549
:100B600094EA0C0F95EA0C0F00F0A7F8A4EB05042B
:100B700081EA030E52EA03354FEA013100F0888022
:100B80004FEA03334FF0805545EA131343EA1263EB
:100B90004FEA022245EA111545EA10654FEA0026A0
:100BA0000EF000419D4208BF964244F1FD0404F559
:100BB000407402D25B084FEA3202B61A65EB0305B5
:100BC0005B084FEA32024FF480104FF4002CB6EB72
:100BD000020E75EB030E22BFB61A754640EA0C00F2
:100BE0005B084FEA3202B6EB020E75EB030E22BF32
:100BF000B61A754640EA5C005B084FEA3202B6EB73
:100C0000020E75EB030E22BFB61A754640EA9C0031
:100C10005B084FEA3202B6EB020E75EB030E22BF01
:100C2000B61A754640EADC0055EA060E18D04FEABF
:100C3000051545EA16754FEA06164FEAC30343EA5F
:100C400052734FEAC2025FEA1C1CC0D111F4801F2C
:100C50000BD141EA00014FF000004FF0004CB6E725
:100C600011F4801F04BF01430020B4F1FD0C88BFC4
:100C7000BCF5E06F3FF6AFAEB5EB030C04BFB6EBCF
:100C8000020C5FEA500C50F1000041EB045170BDC2
:100C90000EF0004E4EEA113114EB5C04C2BFD4EBEF
:100CA0000C0541EA045170BD41F480114FF0000E73
:100CB000013C90E645EA060E8DE60CEA135594EAEF
:100CC0000C0F08BF95EA0C0F3FF43BAF94EA0C0FF2
:100CD0000AD150EA01347FF434AF95EA0C0F7FF467
:100CE00025AF104619462CE795EA0C0F06D152EABB
:100CF00003353FF4FDAE1046194622E750EA41069F
:100D000018BF52EA43067FF4C5AE50EA41047FF4AF
:100D10000DAF52EA43057FF4EBAE12E74FF0FF3C14
:100D200006E000BF4FF0010C02E000BF4FF0010CE5
:100D30004DF804CD4FEA410C7FEA6C5C4FEA430C5E
:100D400018BF7FEA6C5C1BD001B050EA410C0CBFAD
:100D500052EA430C91EA030F02BF90EA020F00200F
:100D6000704710F1000F91EA030F58BF994208BF76
:100D700090422CBFD8176FEAE37040F00100704733
:100D80004FEA410C7FEA6C5C02D150EA013C07D18A
:100D90004FEA430C7FEA6C5CD6D152EA033CD3D0D5
:100DA0005DF8040B704700BF8446104662468C46CF
:100DB0001946634600E000BF01B5FFF7B7FF002802
:100DC00048BF10F1000F01BD4DF808EDFFF7F4FF2B
:100DD0000CBF012000205DF808FB00BF4DF808EDB6
:100DE000FFF7EAFF34BF012000205DF808FB00BFD9
:100DF0004DF808EDFFF7E0FF94BF012000205DF8FB
:100E000008FB00BF4DF808EDFFF7CEFF94BF0120AF
:100E100000205DF808FB00BF4DF808EDFFF7C4FFA8
:100E200034BF012000205DF808FB00BF4A0011D24A
:100E300012F5001211D20DD56FF47873B3EB625234
:100E40000ED44FEAC12343F0004343EA505323FA40
:100E500002F070474FF00000704750EA013002D1B5
:100E60004FF0FF3070474FF0000070474FEA4102EB
:100E7000B2F1E04324BFB3F5001CDCF1FE5C0DD9F8
:100E800001F0004C4FEAC0024CEA5070B2F1004F42
:100E900040EB830008BF20F00100704711F0804F45
:100EA00021D113F13872BCBF01F00040704741F40A
:100EB00080114FEA5252C2F11802C2F1200C10FA0E
:100EC0000CF320FA02F018BF40F001004FEAC123F2
:100ED0004FEAD32303FA0CFC40EA0C0023FA02F396
:100EE0004FEA4303CCE77FEA625307D150EA01336C
:100EF0001EBF4FF0FE4040F44000704701F000403C
:100F000040F0FE4040F40000704700BF53B94AB9BA
:100F1000002908BF00281CBF4FF0FF314FF0FF3001
:100F200000F074B9ADF1080C6DE904CE00F006F8DC
:100F3000DDF804E0DDE9022304B070472DE9F04755
:100F4000089D04468E46002B4DD18A42944669D9AD
:100F5000B2FA82F252B101FA02F3C2F1200120FA90
:100F600001F10CFA02FC41EA030E94404FEA1C48DE
:100F7000210CBEFBF8F61FFA8CF708FB16E341EADA
:100F8000034306FB07F199420AD91CEB030306F160
:100F9000FF3080F01F81994240F21C81023E634481
:100FA0005B1AA4B2B3FBF8F008FB103344EA034425
:100FB00000FB07F7A7420AD91CEB040400F1FF333A
:100FC00080F00A81A74240F207816444023840EA77
:100FD0000640E41B00261DB1D4400023C5E90043B0
:100FE0003146BDE8F0878B4209D9002D00F0EF8033
:100FF0000026C5E9000130463146BDE8F087B3FA66
:1010000083F6002E4AD18B4202D3824200F2F9804D
:10101000841A61EB030301209E46002DE0D0C5E950
:10102000004EDDE702B9FFDEB2FA82F2002A40F09C
:101030009280A1EB0C014FEA1C471FFA8CFE01269F
:10104000200CB1FBF7F307FB131140EA01410EFB43
:1010500003F0884208D91CEB010103F1FF3802D2EA
:10106000884200F2CB804346091AA4B2B1FBF7F0E4
:1010700007FB101144EA01440EFB00FEA64508D907
:101080001CEB040400F1FF3102D2A64500F2BB8044
:101090000846A4EB0E0440EA03409CE7C6F1200793
:1010A000B34022FA07FC4CEA030C20FA07F401FAD9
:1010B00006F31C43F9404FEA1C4900FA06F3B1FB62
:1010C000F9F8200C1FFA8CFE09FB181140EA0141C7
:1010D00008FB0EF0884202FA06F20BD91CEB010164
:1010E00008F1FF3A80F08880884240F28580A8F1BC
:1010F00002086144091AA4B2B1FBF9F009FB10110E
:1011000044EA014100FB0EFE8E4508D91CEB0101AB
:1011100000F1FF346CD28E456AD90238614440EA4E
:101120000840A0FB0294A1EB0E01A142C846A646CE
:1011300056D353D05DB1B3EB080261EB0E0101FA57
:1011400007F722FA06F3F1401F43C5E900710026B4
:101150003146BDE8F087C2F12003D8400CFA02FC0A
:1011600021FA03F3914001434FEA1C471FFA8CFE1A
:10117000B3FBF7F007FB10360B0C43EA064300FB0A
:101180000EF69E4204FA02F408D91CEB030300F1A8
:10119000FF382FD29E422DD9023863449B1B89B25F
:1011A000B3FBF7F607FB163341EA034106FB0EF3E8
:1011B0008B4208D91CEB010106F1FF3816D28B4295
:1011C00014D9023E6144C91A46EA004638E72E4661
:1011D000284605E70646E3E61846F8E64B45A9D259
:1011E000B9EB020864EB0C0E0138A3E74646EAE7C8
:1011F000204694E74046D1E7D0467BE7023B614476
:1012000032E7304609E76444023842E7704700BFDE
:101210007047002070470000034B0360034B0B60D6
:1012200080231360704700BF2C0200202C00002098
:101230002DE9F0418AB0002405940694079408949F
:1012400009940194304B1A6B42F004021A631A6B32
:1012500002F004020192019A02941A6B42F0800299
:101260001A631A6B02F080020292029A03941A6BBC
:1012700042F001021A631A6B02F001020392039A10
:1012800004941A6B42F002021A631B6B03F0020310
:101290000493049B1D4E22462021304601F06FFB33
:1012A0004FF4005305934FF40418CDF818800794B9
:1012B00005A9174801F070FA202705970125069522
:1012C0000794089405A9304601F066FA4FF480733C
:1012D0000593CDF81880079505A9304601F05CFA12
:1012E0004FF4007305930694079505A9304601F065
:1012F00053FA05970694079505A9064801F04CFA9C
:101300000AB0BDE8F08100BF003802400000024092
:10131000000802400004024008B5002220210448D1
:1013200001F02DFB4FF47A7003F03EF8F5E700BFB3
:101330000000024008B54FF4FA7003F035F80122BE
:101340002021044801F01BFB4FF4FA7003F02CF845
:10135000F1E700BF0000024008B5012003F024F8C7
:10136000FBE7000008B54FF48071034801F000FB73
:10137000012003F019F8F6E70000024008B507E085
:101380002C4B01221A702B4B1B78012003F00CF818
:10139000284B1B78002BF3D0264B1B78DBB2012B9C
:1013A00025D0244B1B78DBB2022BECD14FF0FF325F
:1013B0002149224B186803F05EFD0128E3D1204D3E
:1013C000AC461D4C0FCCACE80F000FCCACE80F00C6
:1013D0000FCCACE80F002368CCF8003000234FF0AE
:1013E000FF3229461748006803F05BFCCBE74FF05B
:1013F000FF321149114B186803F03DFD0128C2D19D
:101400000D4B93F83030002BBDD14FF0FF320A491D
:101410000A4B186803F02FFD0128B4D1064B93F84E
:101420003030DBB2012BAED1024A13780133DBB28C
:101430001370A8E7D4040020AC020020A40200200E
:1014400064030020E002002000B5002303704FF485
:101450004872426040F64851816003734FF0010CBE
:1014600080F810C04FF416724261816103774FF02B
:10147000020E80F820E04262816280F82C30032363
:1014800080F8303042634FF44863836380F83CC097
:10149000034B03644FF40073A0F844305DF804FB81
:1014A0000000024010B50446164800F099FCE3889D
:1014B00000EE103AB8EE400A207800F051FCE389C3
:1014C00000EE103AB8EE400A207A00F049FCE38AB8
:1014D00000EE103AB8EE400A207C00F041FCE38BAD
:1014E00000EE103AB8EE400A207E00F039FCE38CA2
:1014F00000EE103AB8EE400A94F8200000F030FCFC
:1015000010BD00BFE403002008B500220270428035
:10151000B42181804FF05A0CA0F806C04FF0010EA4
:1015200080F808E042818181C2814FF0020E80F88C
:1015300010E04FF0320EA0F812E08182C1824FF02D
:10154000030E80F818E042838183A0F81EC00421B6
:1015500080F82010428446218184C284FFF7A2FFD4
:1015600008BD13680A33834203D313680A3B8342DE
:101570000CD98B6883420AD28B6813600B7B2BB12A
:101580008B6810681B1A49680B44136070474B68DE
:10159000834202D94B681360F0E71060EEE7000069
:1015A00030B593B06846FFF74FFF45E0234D28461E
:1015B00000F0A2FE0121284600F060FF284600F05E
:1015C000B9FF1F4B43F824000134E4B2032CEDD9DA
:1015D0001A4800F033FF1B4C194D22466946286813
:1015E000FFF7BFFF04F10C0204A96868FFF7B9FF19
:1015F00004F1180208A9A868FFF7B3FF04F1240258
:101600000CA9E868FFF7ADFF4FF400710E4801F038
:10161000AFF984F830000D4B186850B100234FF03B
:10162000FF32214603F03DFB012802D0084B012286
:101630001A70012002F0B8FE0024C7E79C030020C6
:101640001C0300202C03002000000240A402002004
:10165000D5040020A0EB010C0098C01A00FB0CFC84
:10166000511ABCFBF1FC0CEB0300704730B583B0A2
:1016700004460D4608684968AA68A38800936388F1
:10168000FFF7E8FF00EE100AB8EE400A207800F0FD
:1016900067FBE86829696A69A38900936389FFF792
:1016A000D9FF00EE100AB8EE400A207A00F058FB8D
:1016B000A869E9692A6AA38A0093638AFFF7CAFFC7
:1016C00000EE100AB8EE400A207C00F049FB686A80
:1016D000A96AEA6AA38B0093638BFFF7BBFF00EE56
:1016E000100AB8EE400A207E00F03AFB95F8303040
:1016F00053B1638C00EE103AB8EE400A94F8200023
:1017000000F02EFB03B030BDA38C00EE103AB8EE13
:10171000400A94F8200000F023FBF3E700B58BB0FB
:101720006846FFF7F1FE6846FFF7BCFE06E0084991
:101730006846FFF79BFF012002F036FE4FF0FF32B4
:101740000349044B186803F096FB0128EFD0F2E739
:10175000E8020020E002002008B50268034B9A422C
:1017600000D008BD00F0F0FCFBE700BF0010004017
:1017700072B6FEE700B585B0002300930193029393
:1017800003932548254A02604FF48032426083600B
:1017900001220261037680F820204262C362204960
:1017A0008162C3600421C16180F83030426100F081
:1017B00077FD38BB00230093012201920293694612
:1017C000154800F0BBFEF8B90123009302230193F2
:1017D0006946114800F0B2FEC0B904230093032308
:1017E000019369460C4800F0A9FE88B908230093CC
:1017F000042301936946084800F0A0FE50B905B0E3
:101800005DF804FBFFF7B4FFFFF7B2FFFFF7B0FF8F
:10181000FFF7AEFFFFF7ACFF9C0300200020014064
:101820000100000F08B50A480A4B03600A4B4360E9
:1018300000238360C3604FF480420261436183618F
:10184000C361036201F086FB00B908BDFFF790FF9A
:10185000E403002000540040A086010008B50A48B7
:101860000A4B03604FF4E133436000238360C3609D
:1018700003610C2242618361C36102F025FD00B95E
:1018800008BDFFF775FF00BF8C0400200044004036
:1018900008B50A480A4B03600A4B43600023836083
:1018A000C3604FF48042026143618361C36103629C
:1018B00001F050FB00B908BDFFF75AFF38040020C3
:1018C00000580040A086010000B595B034220021E8
:1018D00007A8FEF77FFD002302930393049305936B
:1018E000069300931F4A116C41F080511164126CF1
:1018F00002F080520092009A01931B490A6822F478
:10190000404242F480420A600A6802F44042019276
:10191000019A0222079201210A9110210B910D9246
:101920000E930F914FF4A873109304231193129206
:10193000139207A802F08AF880B90F2302930221BC
:101940000391002304934FF480520592069302A85A
:1019500001F0C8FE20B915B05DF804FBFFF708FFE1
:10196000FFF706FF003802400070004000B5C1B02C
:1019700000F0D0FBFFF7A8FFFFF75AFCFFF7FAFED5
:10198000FFF750FFFFF76AFFFFF782FF00253E9544
:101990003F953EA802F00FFD534B1860534C0DF1DC
:1019A000E80C94E80F008CE80F002946604602F02E
:1019B0000DFD4F4B18600DF1D80C94E80F008CE82A
:1019C0000F002946604602F001FD4A4B18600DF1F8
:1019D000C80C04F110030FCB8CE80F0029466046B9
:1019E00002F0F4FC444B18600DF1AC0C04F1200E35
:1019F000BEE80F00ACE80F009EE807008CE8070087
:101A000029462BA802F09BFC3C4B18600DF1900C72
:101A100004F13C0EBEE80F00ACE80F009EE80700A2
:101A20008CE80700294624A802F089FC344B186092
:101A30000DF1740C04F1580EBEE80F00ACE80F0075
:101A40009EE807008CE8070029461DA802F077FCF5
:101A50002C4B18600DF1580C04F1740EBEE80F0009
:101A6000ACE80F009EE807008CE80700294616A89E
:101A700002F065FC244B18600DF13C0C04F1900E53
:101A8000BEE80F00ACE80F009EE807008CE80700F6
:101A900029460FA802F053FC1C4B18600DF1200CD6
:101AA00004F1AC0EBEE80F00ACE80F009EE80700A2
:101AB0008CE80700294608A802F041FC144B186086
:101AC0000DF1040CC8340FCCACE80F0094E807000B
:101AD0008CE80700294601A802F031FC0D4B186084
:101AE00002F028FCFEE700BF600300202C5A00082B
:101AF000A4020020E00200209C02002098030020A5
:101B000094020020A80200209002002098020020E9
:101B1000E4020020A002002070B586B00D461646F3
:101B200002B1012684B20A230293012301930DF12D
:101B300017020092224680211448006801F056FCEA
:101B400010B1012006B070BD012303FA05F262F066
:101B50007F019DF8172022EA010252B28DF817206A
:101B60001E4006FA05F52A438DF817200A22029234
:101B700001930DF11702009222468021034800686C
:101B800001F082FB0028DDD00120DBE7D804002033
:101B900000B585B006238DF80F300A23009301238A
:101BA0000DF10F0200210448006801F0B1FA00B104
:101BB000012005B05DF804FBD804002008B50246FA
:101BC00004210020FFF7A8FF08BD08B50246072141
:101BD0000020FFF7A1FF08BD08B50246052100203F
:101BE000FFF79AFF08BD000010B586B040F2F5532C
:101BF00098421CD903238DF817300120FFF7DEFF30
:101C00000A230293012401940DF117030093234644
:101C1000FE2280212048006801F036FB0020FFF7FB
:101C2000CDFF2046FFF7D1FF002006B010BD1828D9
:101C300003D8FF238DF81730DFE707EE900AF8EEA0
:101C4000677A17EE900AFEF7FFFD0022134BFEF7AE
:101C500053FE02460B460EA1D1E90001FEF776FFC6
:101C600000220F4BFEF790FCFFF700F9FEF7ECFDAA
:101C700000220C4BFEF78AFC41EC100BFEF7FCFB3C
:101C800051EC100BFFF7D2F88DF81700B5E700BF45
:101C90000000000084D77741D80400200000B04045
:101CA0000000F03F0000E03F00B587B08000C0B208
:101CB00006308DF81410090A8DF815108DF81620CD
:101CC000120A8DF817200A2302930423019305AB0F
:101CD0000093012300F0FE0280210548006801F016
:101CE000D3FA10B907B05DF804FB0120FAE700BF92
:101CF000D804002008B5B1F5805F01D340F6FF712C
:101D0000C2B159B140F6FF7399420DD0C1F57F6160
:101D10000F318AB20021FFF7C7FF08BD00224FF440
:101D20008051FFF7C1FFF8E74FF480520021FFF721
:101D3000BBFFF2E740F6FF73994205D051B94FF46B
:101D40008052FFF7B1FFE8E700224FF48051FFF720
:101D5000ABFFE2E70A460021FFF7A6FFDDE7000040
:101D600010B50446B5EEC00AF1EE10FA27D4DFED47
:101D7000187AB4EEE70AF1EE10FA01DDB0EE670A68
:101D800010EE100AFEF760FD0FA3D3E90023FEF763
:101D9000B3FD00220F4BFEF7D9FE00220E4BFEF7DB
:101DA000F5FBFFF763F807EE900AFCEEE77A0022F6
:101DB00017EE903A99B22046FFF79CFF10BD9FEDB9
:101DC000070AD4E7AFF3008000000000006078400D
:101DD000000034430080664000805B40000000004B
:101DE00008B5064B1860FFF7D3FE3020FFF7FCFE66
:101DF0000120FFF7F1FE002008BD00BFD80400203D
:101E000000B583B0002200920D4B596C41F4804123
:101E10005964596C01F48041009100990192196C48
:101E200041F0805119641B6C03F080530193019BB6
:101E30000F216FF0010000F069FC03B05DF804FBB6
:101E40000038024030B589B0002303930493059312
:101E500006930793026803F1804303F590339A4297
:101E600001D009B030BD0024009403F58C335A6CC6
:101E700042F480725A645A6C02F480720092009AA2
:101E800001941A6B42F001021A631A6B02F001020C
:101E90000192019A02941A6B42F002021A631B6BC0
:101EA00003F002030293029B13230393032504957B
:101EB00003A9064800F070FC0123039304950594E0
:101EC00003A9034800F068FCCBE700BF0000024014
:101ED000000402402DE9F0418AB0002305930693E7
:101EE0000793089309930368344A934205D0344A10
:101EF000934226D00AB0BDE8F08100250095314C10
:101F0000236B43F002032363236B03F0020300936C
:101F1000009B4FF440730593122306930323089309
:101F20000423099305A9284800F036FC0195236C89
:101F300043F400132364236C03F400130193019B07
:101F4000D8E7002502951F4C236B43F0020323635F
:101F5000236B03F002030293029B0395236B43F070
:101F600004032363236B03F004030393039B4FF4E5
:101F7000806305934FF01208CDF818800327089767
:101F80000426099605A9104800F006FC4FF480537A
:101F90000593CDF8188007950897099605A90B4871
:101FA00000F0FAFB0495236C43F480032364236C54
:101FB00003F480030493049B9CE700BF005400409B
:101FC000005800400038024000040240000802406F
:101FD00000B589B0002303930493059306930793F8
:101FE0000268154B9A4202D009B05DF804FB00214B
:101FF000019103F5FA331A6C42F400321A641A6C38
:1020000002F400320192019A02911A6B42F001022D
:102010001A631B6B03F001030293029B0C230393CF
:1020200002230493032306930723079303A903487A
:1020300000F0B2FBD8E700BF0044004000000240BF
:1020400030B589B0044600230193214B1A6C42F04D
:1020500010021A641B6C03F010030193019B02A988
:1020600003A801F015FC069BCBB901F0F1FB034678
:102070001848A0FB03239B0C013B1748174A02603A
:1020800040F2E732C26043600023036183608361F2
:1020900002F064F8054630B1284609B030BD01F0C1
:1020A000D7FB4300E4E70C4801F0F4FE05460028A6
:1020B000F2D1362000F062FB0F2C01D90125EBE7AD
:1020C00000222146362000F021FB054B1C60E3E78F
:1020D0000038024083DE1B43DC0400200010004077
:1020E00008000020FEE7FEE7FEE7FEE7FEE7704798
:1020F00008B5024801F016FF08BD00BFDC0400204F
:10210000034AD2F8883043F47003C2F8883070472D
:1021100000ED00E008B50B4B1A6842F400721A603B
:102120001A6842F480621A601A6842F480721A6077
:10213000032000F0D9FA0F20FFF782FFFFF760FEBF
:10214000002008BD003C0240034A1168034B1B7885
:102150000B441360704700BF2405002004000020DA
:10216000014B1868704700BF240500204A4B5A688D
:1021700022F440325A605A6841680A435A60026841
:10218000536823F48073536002685368016943EA1B
:10219000012353600268536823F040735360026860
:1021A000536881680B4353600268936823F40063AB
:1021B000936002689368C1680B439360826A374BEF
:1021C0009A4257D00268936823F070639360026864
:1021D0009368816A0B4393600268936823F04053CD
:1021E000936002689368C16A0B43936002689368C6
:1021F00023F00203936002689368017E43EA41037F
:10220000936090F82030002B3FD00268536843F46D
:10221000006353600268536823F4604353600168AD
:102220004B68426A013A43EA42334B600268D36A20
:1022300023F47003D3620168CB6AC269013A43EAAE
:102240000253CB620268936823F4007393600268C0
:10225000936890F8301043EA4123936002689368D2
:1022600023F48063936002689368416943EA8123A1
:10227000936070470268936823F07063936002680C
:10228000936823F040539360B0E70268536823F4E7
:1022900000635360CAE700BF002301400100000F44
:1022A00038B310B50446036C43B1236C13F0100F20
:1022B0000BD00120002384F83C3010BDFFF7C2FD95
:1022C0000023636484F83C30EFE7236C23F48853E5
:1022D00023F0020343F0020323642046FFF746FF86
:1022E00000206064236C23F0030343F001032364A4
:1022F000E0E701207047000082B00023019390F8CE
:102300003C30012B00F08980012380F83C300368C9
:102310009A6812F0010F13D19A6842F001029A6094
:10232000414B1B68414AA2FB03239B0C03EB430375
:10233000019302E0019B013B0193019B002BF9D12A
:102340000268936813F0010F5CD0036C23F4E06320
:1023500023F0010343F480730364536813F4806F24
:1023600005D0036C23F4405343F480530364036C9F
:1023700013F4805F1BD0436C23F0060343640023F7
:1023800080F83C306FF022031360294B5B6813F038
:102390001F0F27D10368274A934211D002F580729C
:1023A000934207D0244A934214D0002033E0002304
:1023B0004364E4E702F50072526812F01F0FF1D196
:1023C0009A6812F0405F2AD19A6842F080429A607F
:1023D000002020E002F58072526812F0100FEFD05A
:1023E000002018E00368134A934201D0002012E055
:1023F0009A6812F0405F14D19A6842F080429A6065
:10240000002008E0036C43F010030364436C43F0C6
:1024100001034364002002B070470220FBE7002064
:10242000F9E70020F7E700BF0000002083DE1B4330
:1024300000230140002001400022014090F83C3080
:10244000012B19D0012380F83C300268936823F0F7
:102450000103936003689B6813F0010F07D1036CBD
:1024600023F4885323F0010343F0010303640023A2
:1024700080F83C30184670470220704770B504461B
:102480000D4603689A6812F4806F03D09B6813F4BA
:10249000807F19D1FFF764FE064623681A6812F0A0
:1024A000020F20D1B5F1FF3FF7D0B5B923681B6803
:1024B00013F0020FF1D1236C43F0040323640023D3
:1024C00084F83C30032032E0036C43F020030364C3
:1024D000002380F83C30012029E0FFF741FE801BFB
:1024E000A842DAD9E2E76FF012021A60236C43F4D3
:1024F0000073236423689A6812F0405F16D1207E2F
:10250000B0B9DA6A12F4700F03D09B6813F4806FCD
:102510000DD1236C23F480732364236C13F4805F48
:1025200005D1236C43F00103236400E0002070BD5B
:102530000020FCE70368D86C7047000030B482B01C
:102540000023019390F83C30012B00F0C080012360
:1025500080F83C300B68092B41D90468E2689BB2D3
:1025600003EB43031E3B4FF0070C0CFA03F322EA84
:102570000303E3600468E2680B8803EB43031E3B3C
:102580008D6805FA03F31343E3604B68062B3DD8CF
:102590000468626B03EB8303053B4FF01F0C0CFADE
:1025A00003F322EA030363630468626B4B6803EB83
:1025B0008303053BB1F800C00CFA03F313436363D4
:1025C0000268444B9A4251D00268424B9A425AD018
:1025D000002380F83C30184602B030BC70470468D5
:1025E00022699BB203EB43034FF0070C0CFA03F391
:1025F00022EA03032361046822690B8803EB430387
:102600008D6805FA03F313432361BEE70C2B16D83C
:1026100005682A6B03EB8303233B1F2404FA03F3AF
:1026200022EA03032B6305682A6B4B6803EB8303E1
:10263000233B0C8804FA03F313432B63C0E70568BC
:10264000EA6A03EB8303413B1F2404FA03F322EA03
:102650000303EB620568EA6A4B6803EB8303413BC3
:102660000C8804FA03F31343EB62A9E70B68122BFF
:10267000AAD1194B5A6822F400025A605A6842F4EF
:1026800080025A60A0E70B68144A934201D0112BD4
:102690009ED1114B5A6822F480025A605A6842F463
:1026A00000025A600A680D4B9A4291D10C4B1B688C
:1026B0000C4AA2FB03239B0C03EB83035B000193F7
:1026C000019B002B84D0019B013B0193F8E7022082
:1026D00082E700BF002001400023014012000010EB
:1026E0000000002083DE1B43074AD36823F4E06325
:1026F0001B041B0C000200F4E060034343F0BF63C3
:1027000043F40033D360704700ED00E000B5194B8F
:10271000DB68C3F30223C3F1070CBCF1040F28BF2D
:102720004FF0040C03F1040EBEF1060F18D9033B61
:102730004FF0FF3E0EFA0CFC21EA0C0199400EFA14
:1027400003F322EA0303194300280BDB0901C9B292
:1027500000F1604000F5614080F800135DF804FB73
:102760000023E5E700F00F000901C9B2024B19543C
:10277000F4E700BF00ED00E014ED00E0002807DB07
:1027800000F01F02400901239340024A42F8203022
:10279000704700BF00E100E000230F2B00F2DE8055
:1027A00070B582B060E085685E000324B44025EA1D
:1027B0000405CC68B4402C438460456825EA0205D2
:1027C0004C68C4F300129A402A4342605AE0DC0885
:1027D000083450F8246003F0070295000F22AA4045
:1027E00026EA020E0A69AA4042EA0E0240F82420B4
:1027F0005CE0062200E0002202FA0EF22A430234D4
:10280000574D45F82420574A94686FEA0C0224EA91
:102810000C054E6816F4801F01D04CEA0405514C9B
:10282000A560E46802EA04054E6816F4001F01D0B2
:102830004CEA04054B4CE560646802EA04054E6806
:1028400016F4003F01D04CEA0405464C656024684C
:1028500022404D6815F4803F01D04CEA0402414CFF
:10286000226001330F2B77D801229A400C6804EACA
:10287000020C32EA0404F4D14C6804F00304013C75
:10288000012C90D94A6802F00302032A09D0C468D7
:102890005D000322AA4024EA02048A68AA40224377
:1028A000C2604A6802F00302022A90D004684FEA2C
:1028B000430E032202FA0EF224EA02044A6802F0EE
:1028C000030202FA0EF2224302604A6812F4403F09
:1028D000C7D000220192244A546C44F480445464CA
:1028E000526C02F480420192019A9C08A51C1C4A79
:1028F00052F8255003F003024FEA820E0F2202FA2B
:102900000EF225EA0205194A90423FF474AF02F52F
:102910008062904216D002F58062904214D002F597
:102920008062904212D002F58062904210D002F58F
:10293000806290420ED002F5806290423FF459AF1F
:10294000072259E7012257E7022255E7032253E7FE
:10295000042251E705224FE702B070BD704700BF67
:1029600000380140003C01400038024000000240B5
:102970000369194201D001207047002070470AB155
:102980008161704709048161704703685A6912F4D4
:10299000806F01D1002070476FF480625A6100237C
:1029A0000363202280F83D2080F83E30026C42F024
:1029B0000402026480F83C30012070472DE9F041A8
:1029C00006460C46174698463BE0FFF7C9FB069BB8
:1029D000C01A404502D8B8F1000F32D1012D18D0ED
:1029E00033689B6924EA03039BB2B3FA83F35B0960
:1029F0009F4226D100233363202286F83D2086F8AB
:102A00003E30326C42F02002326486F83C300120C5
:102A100027E033685B6924EA03039BB2B3FA83F3CC
:102A20005B09E5E733685B6924EA030C1FFA8CFC59
:102A3000BCFA8CFC4FEA5C1C674511D1B8F1FF3F32
:102A4000C3D1C4F30745012DECD033689B6924EA58
:102A5000030C1FFA8CFCBCFA8CFC4FEA5C1CEBE705
:102A60000020BDE8F0812DE9F84305460E4690466A
:102A7000994653E01A6842F400721A602B686FF4AA
:102A800080625A6100232B63202285F83D2085F85F
:102A90003E302A6C42F004022A6485F83C30012062
:102AA0004AE0FFF75DFBA0EB0900404502D8B8F112
:102AB000000F33D1012F17D02B689B6926EA03033F
:102AC0009BB2003B18BF012343B300232B6320229A
:102AD00085F83D2085F83E302A6C42F020022A64B9
:102AE00085F83C30012027E02B685B6926EA030368
:102AF0009BB2003B18BF0123E6E72B689C6926EADE
:102B00000404A4B2003C18BF0124A4B12B685A6984
:102B100012F4806FAED1B8F1FF3FC2D1C6F30747C0
:102B2000012FEAD12B685C6926EA0404A4B2003CB8
:102B300018BF0124E9E70020BDE8F883F0B583B0B1
:102B400004460D4616461F46C36A082B0DD0012BBE
:102B50000BD013F5803F08D0036B122B0AD102680B
:102B6000136843F48073136004E02268136843F42D
:102B7000807313600097334600224FF00111204606
:102B8000FFF71CFF80B92369B3F5804F16D1236886
:102B900005F0FE051D613B46324613492046FFF70E
:102BA00062FFF8B903B0F0BD23681B6813F4807F9F
:102BB00002D04FF4007323640320F3E7EB11226883
:102BC00003F0060343F0F00313613B463246074926
:102BD0002046FFF748FF18B92368EDB21D61DAE718
:102BE0000120DFE70120DDE702000100080001000D
:102BF00070B504460D46164623685B6913F0800FD6
:102C000021D12046FFF7C1FEF8B9B5F1FF3FF3D05F
:102C1000FFF7A6FA801BA84201D8002DECD123684B
:102C20005B6913F0800FE7D100232363202284F82F
:102C30003D2084F83E30226C42F02002226484F869
:102C40003C30012000E0002070BD0120FCE70000C6
:102C50002DE9F04385B004460D4691461F46DDF848
:102C600030800D9E0368196841F4807119600096E8
:102C7000434600224FF00111FFF7A0FE60B9236820
:102C800005F0FE051D613346424626492046FFF702
:102C9000EAFE68B1012008E023681B6813F4807F16
:102CA00002D04FF400732364032005B0BDE8F08325
:102CB0000023039323685A6903929B690393039B40
:102CC000324641462046FFF793FF30B9012F0FD11E
:102CD00023685FFA89F61E61E7E7236C042B01D0B5
:102CE0000120E2E72268136843F400731360F7E7FA
:102CF00023684FEA19221A61324641462046FFF7FF
:102D000077FF20B923685FFA89F61E61CDE7236C4F
:102D1000042B01D00120C8E72268136843F4007334
:102D20001360F7E7020001002DE9F04784B0044684
:102D30000D46164699460C9FDDF8348002681368EC
:102D400043F4806313600368196841F4807119606B
:102D5000CDF800803B4600224FF00111FFF72EFE18
:102D600070B95FFA85FA236805F0FE051D614346D8
:102D70003A4641492046FFF776FE68B1012008E057
:102D800023681B6813F4807F02D04FF40073236420
:102D9000032004B0BDE8F0870023039323685A6939
:102DA00003929B690393039B424639462046FFF7F3
:102DB0001FFF80B9B9F1010F18D12368F6B21E6167
:102DC000424639462046FFF713FF68B3236C042BB5
:102DD00024D00120DDE7236C042B01D00120D8E7AB
:102DE0002268136843F400731360F7E72368320A1C
:102DF0001A61424639462046FFF7FAFE18B92368A1
:102E0000F6B21E61DCE7236C042B01D00120C0E781
:102E10002268136843F400731360F7E722681368AD
:102E200043F400731360D4E72268136843F480739B
:102E30001360CDF800803B4600224FF00111204680
:102E4000FFF7BCFD68B922684AF0010313614346ED
:102E50003A4609492046FFF706FE002899D001208E
:102E600097E723681B6813F4807F02D04FF4007348
:102E7000236403208DE700BF0200010070B5044603
:102E80000D46164623685B6913F0040F21D12046D6
:102E9000FFF77BFDF8B9B5F1FF3FF3D0FFF760F91D
:102EA000801BA84201D8002DECD123685B6913F088
:102EB000040FE7D100232363202284F83D2084F807
:102EC0003E30226C42F02002226484F83C30012023
:102ED00000E0002070BD0120FCE770B504460D46FF
:102EE000164614E06FF010025A610023236320227B
:102EF00084F83D2084F83E30226C226484F83C3013
:102F0000012025E023685B6913F0400F10D023688F
:102F1000586910F0400F1AD1586910F0100FE1D124
:102F2000FFF71EF9801BA842ECD8002DEFD1E9E78E
:102F300000232363202284F83D2084F83E30226C55
:102F400042F02002226484F83C30012000E000209E
:102F500070BD0000002800F0CC8070B5044690F8E9
:102F60003D30002B77D0242384F83D30226813684D
:102F700023F0010313602268136843F400431360D5
:102F80002268136823F40043136000F061FC626858
:102F90005A4B9A4264D85A4B98428CBF0023012363
:102FA000002B40F0A8805749A1FB00318B0C25680D
:102FB0006A6822F03F0242EA91426A6021680A6A26
:102FC00022F03F0266684D4DAE424FD801331343A5
:102FD0000B622168CA6922F44F4222F0FF02666840
:102FE000464B9E424CD8431E7600B3FBF6F30133AA
:102FF00040F6FC70034278D0C3F30B031343CB615C
:1030000021680B6823F0C003E269206A024313437E
:103010000B6021688B6823F4034323F0FF032269CC
:10302000E068024313438B602168CB6823F0FF0301
:103030006269A06902431343CB602268136843F0BE
:103040000103136000202064202384F83D302063B6
:1030500084F83E0070BD80F83C30FEF73BFF82E70D
:10306000294B98428CBF0023012399E74FF49675B2
:1030700005FB03F3254DA5FB03539B090133A6E78D
:10308000A368BBB9451E06EB460CB5FBFCF5013544
:10309000C5F30B05B5FA85F56D0945BBC3B9013814
:1030A00006EB4603B0FBF3F30133C3F30B0343F426
:1030B0000043A3E7451E06EB860C0CEB8C0CB5FB1E
:1030C000FCF50135C5F30B05B5FA85F56D09E4E7A7
:1030D000013806EB860303EB8303B0FBF3F3013304
:1030E000C3F30B0343F4404388E7042386E701233B
:1030F00084E7012070470120ACE700BFA0860100F3
:103100007F841E0083DE1B43FF083D00D34D621009
:103110002DE9F04385B004460F46914698460C9E33
:10312000FFF71EF8054694F83D00C0B2202804D0F1
:103130000227384605B0BDE8F08300951923012227
:103140004F492046FFF73AFC002840F0928094F85F
:103150003C30012B00F08F80012384F83C30236841
:103160001A6812F0010F03D11A6842F001021A60C6
:103170002268136823F400631360212384F83D3030
:10318000102384F83E3000232364C4F82490A4F86C
:103190002A80638D23853B4BE3622B4632463946BA
:1031A0002046FFF7CBFC0746002866D10023039397
:1031B00023685A6903929B690393039B11E0236C74
:1031C000042B01D00127B4E72268136843F400738D
:1031D0001360F7E72A4631462046FFF74FFE0028E6
:1031E0002ED1238D002B36D02A4631462046FFF7BC
:1031F000FFFC0028E3D1626A236812781A61606AD2
:10320000431C6362618D89B2013989B26185238D66
:10321000013B9BB223852268516911F0040FD9D07C
:10322000002BD7D043781361636A01336362638DE7
:103230009BB2013B9BB26385238D013B2385C9E78C
:10324000236C042B01D0012773E72268136843F431
:1032500000731360F7E72268136843F40073136088
:10326000202384F83D30002384F83E3084F83C303D
:103270005FE702275DE702275BE7012759E700BF09
:10328000020010000000FFFF2DE9F04383B0044668
:103290000F46904699460C9EFEF762FF054694F84D
:1032A0003D00C0B2202803D0022003B0BDE8F08367
:1032B0000095192301224B492046FFF77FFB002888
:1032C00040F0898094F83C30012B00F08680012387
:1032D00084F83C3023681A6812F0010F03D11A6891
:1032E00042F001021A602268136823F4006313603D
:1032F000212384F83D30402384F83E3000232364AA
:103300000A9B6362BDF82C306385638D2385364B41
:10331000E362019500964B46424639462046FFF748
:1033200097FC00285BD1238D002B35D02A463146EF
:103330002046FFF75DFC20BB626A236812781A61A1
:10334000626A531C6362218D013989B22185638DC4
:103350009BB2013B9BB263852368586910F0040F50
:10336000E1D00029DFD052781A61636A01336362C9
:10337000238D013B2385638D9BB2013B9BB263850B
:10338000D1E7236C042B01D001208EE7226813685B
:1033900043F400731360F7E72A4631462046FFF7EF
:1033A0006DFD50B1236C042B01D001207DE7226814
:1033B000136843F400731360F7E72268136843F45B
:1033C00000731360202384F83D30002384F83E30DE
:1033D00084F83C3069E7022067E7022065E70120B6
:1033E00063E700BF020010000000FFFF2DE9F0437B
:1033F00087B004460F4690469946109EFEF7B0FEF1
:10340000054694F83D00C0B2202804D00227384673
:1034100007B0BDE8F08300951923012288492046B2
:10342000FFF7CCFA002840F04D8194F83C30012B96
:1034300000F04A81012384F83C3023681A6812F0B6
:10344000010F03D11A6842F001021A602268136862
:1034500023F400631360222384F83D30402384F872
:103460003E30002323640E9B6362BDF83C306385CD
:10347000638D2385734BE362019500964B4642466C
:1034800039462046FFF750FC0746002840F01E81D1
:10349000238D5BB9029323685A6902929A6902925A
:1034A000029A1A6842F400721A6075E0012B0AD081
:1034B000022B1AD00023059323685A6905929B6951
:1034C0000593059B68E02268136823F4806313600A
:1034D0000023039323685A6903929A690392039A1B
:1034E0001A6842F400721A6056E02268136823F4E6
:1034F000806313602268136843F400631360002341
:10350000049323685A6904929B690493049B43E0E3
:103510002A4631462046FFF7E0FC002840F0D880DC
:1035200023681A69636A1A70636A01336362238DC0
:10353000013B2385638D9BB2013B9BB263852BE0EE
:1035400000953346002240492046FFF737FA00280D
:1035500040F0C0802268136843F40073136023684E
:103560001A69636A1A70626A531C6362238D013B95
:103570002385638D9BB2013B9BB2638523681B69E6
:103580005370636A01336362238D013B2385638D2E
:103590009BB2013B9BB26385238D002B00F0898099
:1035A000032B53D8012BB3D0022BC9D0009533463F
:1035B000002225492046FFF701FA002840F08C80C0
:1035C0002268136823F48063136023681A69636AAE
:1035D0001A70636A01336362238D013B2385638D17
:1035E0009BB2013B9BB2638500953346002216498E
:1035F0002046FFF7E3F9002870D12268136843F4EE
:103600000073136023681A69636A1A70626A531C34
:103610006362238D013B2385638D9BB2013B9BB28B
:10362000638523681B695370636A01336362238D6A
:10363000013B2385638D9BB2013B9BB26385ABE766
:10364000020010000000FFFF040001002A4631467E
:103650002046FFF742FC002842D123681A69636ABA
:103660001A70636A01336362228D013A92B2228535
:10367000638D9BB2013B9BB263852368596911F04E
:10368000040F89D0032A0FD023681A69636A1A705D
:10369000636A01336362238D013B2385638D9BB293
:1036A000013B9BB2638577E71A6822F480621A6057
:1036B000EAE7202384F83D30002384F83E3084F884
:1036C0003C30A4E60227A2E60227A0E601279EE6F8
:1036D00001279CE601279AE6012798E6012796E64E
:1036E000012794E6002800F09B8070B50D46044643
:1036F0004F4B1B6803F00F038B4208D2CBB24C4AEE
:103700001370136803F00F038B4240F08B80236823
:1037100013F0020F17D013F0040F04D0454A93683A
:1037200043F4E0539360236813F0080F04D0414A38
:10373000936843F4604393603E4A936823F0F00338
:10374000A1680B439360236813F0010F32D06368C4
:10375000012B21D09A1E012A25D9364A126812F06F
:10376000020F61D033498A6822F0030213438B6051
:10377000FEF7F6FC06462F4B9B6803F00C036268CD
:10378000B3EB820F16D0FEF7EBFC801B41F28833BF
:103790009842F0D9032042E0264A126812F4003F12
:1037A000E0D101203BE0234A126812F0007FD9D11A
:1037B000012034E01E4B1B6803F00F03AB4207D916
:1037C000EAB21B4B1A701B6803F00F03AB422DD1FA
:1037D000236813F0040F06D0164A936823F4E053CD
:1037E000E1680B439360236813F0080F07D0114A78
:1037F000936823F46043216943EAC103936000F0B6
:1038000065F80C4B9B68C3F303130B4AD35CD84099
:103810000A4B18600A4B1868FEF712FC002070BDB6
:10382000012070470120FAE70120F8E70120F6E7C0
:10383000003C0240003802407C5B00080000002091
:1038400008000020014B1868704700BF00000020EE
:1038500008B5FFF7F7FF044B9B68C3F38223034AC5
:10386000D35CD84008BD00BF003802408C5B000824
:1038700008B5FFF7E7FF044B9B68C3F34233034AE5
:10388000D35CD84008BD00BF003802408C5B000804
:103890000F2303600B4B9A6802F0030242609A68A0
:1038A00002F0F00282609A6802F4E052C2609B6803
:1038B000DB0803F4E0530361034B1B6803F00F03C1
:1038C0000B60704700380240003C024008B55C4B7A
:1038D0009B6803F00C03082B07D00C2B5BD0042B48
:1038E00001D0584808BD5848FCE7554B5A6802F0CB
:1038F0003F025B6813F4800F2AD0514B5968C1F323
:10390000881C4FEA4C11B1EB0C006EEB0E0E4FEA27
:103910008E1343EA90638101091A63EB0E03DB0007
:1039200043EA5173C90011EB0C0C43F10003590237
:1039300000234FEA4C2041EADC51FDF7E7FA404B07
:103940005B68C3F3014301335B00B0FBF3F0C9E7ED
:103950003B4B5968C1F3881C4FEA4C11B1EB0C008A
:103960006EEB0E0E4FEA8E1343EA90638101091A43
:1039700063EB0E03DB0043EA5173C90011EB0C0C3F
:1039800043F10003990200234FEA8C2041EA9C5145
:10399000FDF7BCFAD3E72A4B5A6802F03F025B6896
:1039A00013F4800F28D0264B5968C1F3881C4FEAC6
:1039B0004C11B1EB0C006EEB0E0E4FEA8E1343EA86
:1039C00090638101091A63EB0E03DB0043EA517334
:1039D000C90011EB0C0C43F10003590200234FEA1C
:1039E0004C2041EADC51FDF791FA154B5B68C3F3BB
:1039F0000273B0FBF3F075E7114B5968C1F3881CF3
:103A00004FEA4C11B1EB0C006EEB0E0E4FEA8E1329
:103A100043EA90638101091A63EB0E03DB0043EA7A
:103A20005173C90011EB0C0C43F100039902002300
:103A30004FEA8C2041EA9C51FDF768FAD5E700BFB8
:103A4000003802400024F40000127A00002800F040
:103A5000018270B582B00446036813F0010F41D0B3
:103A6000994B9B6803F00C03042B32D0964B9B6858
:103A700003F00C03082B27D0934B9B6803F00C0337
:103A80000C2B59D06368B3F5803F5BD0B3F5A02F02
:103A90005ED08D4B1A6822F480321A601A6822F4C4
:103AA00080221A606368002B5CD0FEF759FB054644
:103AB000854B1B6813F4003F14D1FEF751FB401BEC
:103AC0006428F5D90320CCE17F4B5B6813F4800FA9
:103AD000D2D07D4B1B6813F4003F03D06368002BEA
:103AE00000F0BA81236813F0020F60D0764B9B6818
:103AF00013F00C0F4AD0744B9B6803F00C03082B97
:103B00003FD0714B9B6803F00C030C2B69D0E3682A
:103B1000002B75D06D4B01221A60FEF721FB054684
:103B2000694B1B6813F0020F61D1FEF719FB401BB4
:103B30000228F5D9032094E1634B5B6813F4800FEE
:103B4000A0D0C6E7604A136843F480331360A9E746
:103B50005D4B1A6842F480221A601A6842F480327F
:103B60001A609FE7FEF7FCFA0546574B1B6813F4F3
:103B7000003FB7D0FEF7F4FA401B6428F5D90320C4
:103B80006FE1514B5B6813F4800FBAD14E4B1B6849
:103B900013F0020F03D0E368012B40F05F814A4A23
:103BA000136823F0F803216943EAC1031360236813
:103BB00013F0080F49D06369002B33D0434B012227
:103BC000C3F8802EFEF7CCFA05463F4B5B6F13F02F
:103BD000020F3AD1FEF7C4FA401B0228F5D90320A0
:103BE0003FE1394B5B6813F4800F90D1CEE7364A42
:103BF000136823F0F803216943EAC1031360D6E791
:103C0000324B00221A60FEF7ABFA05462E4B1B68BA
:103C100013F0020FCBD0FEF7A3FA401B0228F5D910
:103C200003201EE1294B0022C3F8802EFEF798FAEC
:103C30000546254B5B6F13F0020F06D0FEF790FA96
:103C4000401B0228F5D903200BE1236813F0040F71
:103C500076D01D4B1B6C13F0805F33D10023019392
:103C6000194B1A6C42F080521A641B6C03F080539B
:103C70000193019B0125164B1B6813F4807F29D00B
:103C8000A368012B3AD0052B3ED00F4B1A6F22F0C0
:103C900001021A671A6F22F004021A67A368002B48
:103CA0003CD0FEF75DFA0646074B1B6F13F0020F80
:103CB00045D1FEF755FA801B41F288339842F3D97B
:103CC0000320CEE00025D6E700380240000047423E
:103CD000007000406B4A136843F480731360FEF772
:103CE0003FFA0646674B1B6813F4807FC8D1FEF786
:103CF00037FA801B0228F5D90320B2E0624A136F1D
:103D000043F001031367C9E75F4B1A6F42F00402E7
:103D10001A671A6F42F001021A67BFE7FEF720FA2E
:103D20000646594B1B6F13F0020F08D0FEF718FA26
:103D3000801B41F288339842F3D9032091E0EDB91A
:103D4000A369002B00F08C804F4A926802F00C02AD
:103D5000082A54D0022B17D04C4B00221A66FEF7CB
:103D6000FFF90446484B1B6813F0007F45D0FEF76F
:103D7000F7F9001B0228F5D9032072E0424A136CC0
:103D800023F080531364DBE7404B00221A66FEF7F2
:103D9000E7F905463C4B1B6813F0007F06D0FEF7A1
:103DA000DFF9401B0228F5D903205AE0E369226AB3
:103DB0001343626A43EA8213A26A5208013A43EA51
:103DC0000243E26A43EA0263226B43EA02732E4A29
:103DD00053602E4B01221A66FEF7C2F904462A4BA5
:103DE0001B6813F0007F06D1FEF7BAF9001B02280A
:103DF000F5D9032035E0002033E0002031E0012B2D
:103E000031D0214B5B6803F48001E26991422CD1EF
:103E100003F03F02216A8A4229D1616A47F6C072E3
:103E20001A40B2EB811F24D103F44031A26A520838
:103E3000013AB1EB024F1ED103F07062E16AB2EBBE
:103E4000016F1AD103F0E043226BB3EB027F16D16E
:103E5000002006E001207047012002E0012000E080
:103E6000002002B070BD0120FBE70120F9E701202E
:103E7000F7E70120F5E70120F3E70120F1E7012052
:103E8000EFE700BF007000400038024000004742EA
:103E90007047000090F83D30DBB2012B37D1022390
:103EA00080F83D300268D36843F00103D3600368B3
:103EB000194A934220D0B3F1804F1DD0A2F57C4225
:103EC000934219D002F58062934215D002F58062C8
:103ED000934211D002F5784293420DD002F5705210
:103EE000934209D0A2F59432934205D01A6842F069
:103EF00001021A60002070479A6802F00702062A41
:103F000007D01A6842F001021A60002070470120B1
:103F100070470020704700BF0000014070477047A5
:103F20007047704770B504460368DE681D6915F078
:103F3000020F10D016F0020F0DD06FF002021A61BE
:103F40000123037703689B6913F0030F5ED0FFF72B
:103F5000E6FF0023237715F0040F12D016F0040FAC
:103F60000FD023686FF004021A61022323772368BD
:103F70009B6913F4407F4FD02046FFF7D0FF00230A
:103F8000237715F0080F12D016F0080F0FD0236812
:103F90006FF008021A61042323772368DB6913F0AA
:103FA000030F40D02046FFF7BAFF0023237715F018
:103FB000100F12D016F0100F0FD023686FF0100200
:103FC0001A61082323772368DB6913F4407F31D01B
:103FD0002046FFF7A4FF0023237715F0010F02D03E
:103FE00016F0010F2DD115F0800F02D016F0800FC2
:103FF0002FD115F0400F02D016F0400F31D115F03F
:10400000200F02D016F0200F33D170BDFFF786FFCE
:104010002046FFF785FF9CE72046FFF77FFF2046FD
:10402000FFF77EFFABE72046FFF778FF2046FFF75C
:1040300077FFBAE72046FFF771FF2046FFF770FFD2
:10404000C9E723686FF001021A612046FDF784FB7F
:10405000C9E723686FF080021A61204600F0ABF8D0
:10406000C7E723686FF040021A612046FFF759FF47
:10407000C5E723686FF020021A61204600F09AF825
:10408000C3E700000368344A904212D0B0F1804F79
:104090000FD0A2F57C4290420BD002F58062904294
:1040A00007D002F58062904203D002F57842904238
:1040B00003D123F070034A681343274A90422AD061
:1040C000B0F1804F27D0A2F57C42904223D002F578
:1040D000806290421FD002F5806290421BD002F5B0
:1040E0007842904217D002F57052904213D002F5F8
:1040F000806290420FD002F5806290420BD0A2F510
:104100009832904207D002F58062904203D002F5C7
:104110008062904203D123F44073CA68134323F0B2
:1041200080034A69134303608B68C3620B68836230
:10413000094B984203D003F58063984201D10B6983
:10414000036301234361036913F0010F03D0036983
:1041500023F00103036170470000014040B310B534
:10416000044690F83D30F3B1022384F83D302146F7
:1041700051F8040BFFF786FF012384F8463084F8DA
:104180003E3084F83F3084F8403084F8413084F881
:10419000423084F8433084F8443084F8453084F861
:1041A0003D30002010BD80F83C30FFF771FEDBE7AA
:1041B000012070477047704738B50446026813699C
:1041C00023F44053C1680B431361836802691343AE
:1041D00042691343C2691A430168CB6823F416434A
:1041E00023F00C031343CB600268536923F440733C
:1041F00081690B4353610368314A934206D002F54B
:104200008062934202D0FFF723FB01E0FFF730FB0F
:10421000E369B3F5004F29D00021031849411B1869
:1042200041F10001C90041EA5371DB0018186368CD
:104230004FEA83024FEA937341F10001FCF766FEF7
:10424000204DA5FB00325109642303FB11031B0120
:104250003233A5FB03235B0903F0F00202EB0112EA
:1042600003F00F03216813448B6038BD002302184C
:1042700043EB0301121841F10001C90041EA5271F8
:10428000D200101841F10001626892185B41FCF7FE
:104290003DFE0C4DA5FB00325109642303FB1103C5
:1042A000DB003233A5FB03235B095A0002F4F872EA
:1042B00002EB011203F00703216813448B60D4E77B
:1042C000001001401F85EB5160B310B5044690F813
:1042D000413013B3242384F841302268D36823F497
:1042E0000053D3602046FFF767FF2268136923F469
:1042F000904313612268536923F02A0353612268B3
:10430000D36843F40053D36000206064202384F812
:10431000413084F84230606310BD80F84030FDF7D2
:1043200057FED7E701207047842801D0033070473B
:104330000020704708B501F055F8002008BD2DE9B0
:10434000F04387B004460F464569BDB18669AEB1FA
:10435000D0F80480D0F80090B0F90800FFF7E4FF2F
:104360000296019500903B4622694946404600F07E
:10437000C9FF0590059807B0BDE8F0836568266819
:10438000D4F81080B4F90800FFF7CEFF05AB019315
:1043900000903B461FFA88F23146284600F0EDFFB8
:1043A0000128E7D00020E6E708B500B9012001F0B8
:1043B00065F9002008BD08B5416819B1012000F079
:1043C0004BFD08BD012000F03CFDFAE700B583B0CD
:1043D000826842B1C36833B100210091416800682E
:1043E00000F0F1FB04E000224168006800F035FCB9
:1043F00003B05DF804FB00F1080343604FF0FF32A7
:104400008260C3600361002303607047002303617F
:10441000704743684B609A688A6051609960086190
:10442000036801330360704730B40D68B5F1FF3F96
:1044300011D000F108031C465B681A68AA42FAD939
:1044400063684B6099608C60616008610368013348
:10445000036030BC70470469F2E703694168826811
:104460008A60416851605A68824206D00022026127
:104470001A68013A1A601868704782685A60F5E74E
:1044800082B0002301930D4B1B68B3F1FF3F08D0AE
:104490004FF0500383F31188BFF36F8FBFF34F8F3B
:1044A000FEE74FF0500383F31188BFF36F8FBFF324
:1044B0004F8F019B002BFCD002B070470C000020F6
:1044C00008480068006880F308884FF0000080F317
:1044D000148862B661B6BFF34F8FBFF36F8F00DFF2
:1044E00000BF000008ED00E0DFF80C00016841F4B7
:1044F000700101607047000088ED00E04FF08073AC
:1045000040F8043C21F0010140F8081C054B40F83C
:104510000C3C40F8202C6FF0020340F8243C443857
:10452000704700BF81440008000000000000000048
:10453000074B19680868B0E8F04F80F30988BFF3AB
:104540006F8F4FF0000080F311887047AFF3008049
:10455000504100204FF0500383F31188BFF36F8F59
:10456000BFF34F8F0B4A136801331360012B00D048
:1045700070474FF0E023D3F8043D13F0FF0FF7D05E
:104580004FF0500383F31188BFF36F8FBFF34F8F4A
:10459000FEE700BF0C000020094B1B6843B94FF039
:1045A000500383F31188BFF36F8FBFF34F8FFEE784
:1045B000013B034A13600BB983F31188704700BFB6
:1045C0000C000020000000000000000000000000BF
:1045D000EFF30980BFF36F8F154B1A681EF0100FB1
:1045E00008BF20ED108A20E9F04F10602DE9090086
:1045F0004FF0500080F31188BFF34F8FBFF36F8FE0
:1046000001F062F84FF0000080F3118809BC1968CE
:104610000868B0E8F04F1EF0100F08BFB0EC108A29
:1046200080F30988BFF36F8F704700BFAFF300803E
:104630005041002008B54FF0500383F31188BFF3B9
:104640006F8FBFF34F8F00F011FF28B14FF0E023C1
:104650004FF08052C3F8042D002383F3118808BD66
:104660004FF0E022002313619361054B1B6805495D
:10467000A1FB03139B09013B53610723136170479F
:1046800000000020D34D62104FF0E023D3F8002D3E
:104690003D4B9A421CD04FF0E023D3F8002D3B4B0A
:1046A0009A421ED030B583B0394B1A78D2B20192FB
:1046B000FF221A701B78DBB28DF803309DF80330AF
:1046C00003F05003334A1370334B07221A601BE088
:1046D0004FF0500383F31188BFF36F8FBFF34F8FF9
:1046E000FEE74FF0500383F31188BFF36F8FBFF3E2
:1046F0004F8FFEE7284A1368013B13609DF8033093
:104700005B00DBB28DF803309DF8033013F0800FAF
:10471000F0D1214B1B68032B08D04FF0500383F3DB
:104720001188BFF36F8FBFF34F8FFEE71B021A4A4A
:10473000136003F4E0631360019BDBB2144A13704F
:104740004FF0E024D4F8203D43F47003C4F8203D3A
:10475000D4F8203D43F07043C4F8203DFFF780FFBC
:1047600000250E4B1D60FFF7BFFED4F8343F43F029
:104770004043C4F8343FFFF7A3FE00F0A5FFFFF766
:104780007FFE284603B030BD71C20F4170C20F4199
:1047900000E400E0280500202C0500200C0000208B
:1047A000124A12F0070F1ED0D11D21F00701C1F5EA
:1047B000705313440A460E480260002141601344BE
:1047C000083B23F007030B48036059601960991AEE
:1047D00051601360084B1960084B1960084B4FF08B
:1047E00000421A6070474FF47053E4E7340500202C
:1047F00048410020300500203C4100203841002085
:1048000034410020164B1A461B688342FBD3516883
:1048100002EB010C844509D0416800EB010C6345B3
:1048200009D00360904219D010607047406801447D
:1048300051601046F0E710B40A4C2468A3420BD034
:104840005B681944416013681B680360904200D0A4
:1048500010605DF8044B70470460F7E7704700BFD5
:10486000484100203005002070B5054600F0F6FDF7
:10487000364B1B68A3B1364B1B681D424ED135B178
:10488000083515F0070F02D025F007050835002D73
:1048900046D0304B1B68AB4251D32F4A146804E01A
:1048A000FFF77EFFE7E722461C466368AB4202D271
:1048B0002368002BF7D1254B1B68A34241D0166813
:1048C00008362368136063685B1B102B10D96019CE
:1048D00010F0070F08D04FF0500383F31188BFF397
:1048E0006F8FBFF34F8FFEE743606560FFF78AFF6E
:1048F000626818490B689B1A0B60184909688B425B
:1049000001D216490B60124B1B68134363600023EE
:104910002360134A13680133136002E0002600E0AD
:10492000002600F02FFE16F0070F0CD04FF05003BA
:1049300083F31188BFF36F8FBFF34F8FFEE700261D
:10494000EFE70026EDE7304670BD00BF30050020E0
:104950003441002038410020484100203C410020E3
:1049600040410020002834D038B50446A0F10805A5
:1049700050F8043C174A1268134208D14FF0500314
:1049800083F31188BFF36F8FBFF34F8FFEE750F8AB
:10499000081C41B14FF0500383F31188BFF36F8FB0
:1049A000BFF34F8FFEE723EA020340F8043C00F018
:1049B00055FD54F8041C084A13680B44136028463C
:1049C000FFF720FF054A13680133136000F0DAFD9A
:1049D00038BD704734410020384100204441002058
:1049E00010B50446FFF7B6FDA26BE36B9A4204D004
:1049F0000024FFF7D1FD204610BD0124F9E710B5D2
:104A00000446FFF7A7FDA36B23B90124FFF7C4FDFC
:104A1000204610BD0024F9E770B504461546866BA4
:104A2000026C5AB903681BB100200136A66370BD41
:104A3000806800F06BFF0023A360F6E76DB9406863
:104A4000FBF72EFC226C636813446360A2689342F8
:104A500019D3236863602846E7E7C068FBF720FCAA
:104A6000226C5142E3689B1AE3602268934202D2AF
:104A7000A3680B44E360022D01D00020D5E726B1E6
:104A8000013E0020D1E72846CFE70020CDE70346CE
:104A9000026C6AB110B50846D9681144D9609C68A7
:104AA000A14201D31968D960D968FBF7F9FB10BDA1
:104AB000704738B50546FFF74DFD95F8454064B29F
:104AC00001E0013C64B2002C0ADD6B6A43B105F1E0
:104AD000240000F071FE0028F3D000F001FFF0E7A1
:104AE000FF2385F84530FFF757FDFFF733FD95F8B5
:104AF000444064B201E0013C64B2002C0ADD2B6941
:104B000043B105F1100000F057FE0028F3D000F08B
:104B1000E7FEF0E7FF2385F84430FFF73DFD38BDA1
:104B200038B5E0B10D460446FFF714FD2368E26B8B
:104B3000216C01FB0230A0600020A0636360013A99
:104B400002FB0133E360FF2384F8443084F84530EE
:104B5000FDB9236963B9FFF71FFD012038BD4FF090
:104B6000500383F31188BFF36F8FBFF34F8FFEE7BE
:104B700004F1100000F020FE0028ECD04FF0E023FC
:104B80004FF08052C3F8042DBFF34F8FBFF36F8FE8
:104B9000E1E704F11000FFF72EFC04F12400FFF719
:104BA0002AFCD8E738B51D46049C0B4649B9246059
:104BB000E063236401212046FFF7B2FF84F84C50E4
:104BC00038BD2260F4E740B94FF0500383F31188F9
:104BD000BFF36F8FBFF34F8FFEE710B584B01C4655
:104BE000844653B192B189B94FF0500383F31188D1
:104BF000BFF36F8FBFF34F8FFEE74FF0500383F388
:104C00001188BFF36F8FBFF34F8FFEE76AB1502358
:104C10000393039B502B13D04FF0500383F3118861
:104C2000BFF36F8FBFF34F8FFEE70029EFD04FF038
:104C3000500383F31188BFF36F8FBFF34F8FFEE7ED
:104C4000039B012384F8463000949DF81830604699
:104C5000FFF7A8FF204604B010BD40B94FF0500345
:104C600083F31188BFF36F8FBFF34F8FFEE7F0B56B
:104C700083B00D461446064601FB00F05030FFF7A6
:104C8000F3FD074650B1002380F8463000902346DC
:104C900000F1500229463046FFF784FF384603B042
:104CA000F0BDF0B585B0019288B10F461D460446AF
:104CB000B1B1022D20D1E36B012B1DD04FF0500379
:104CC00083F31188BFF36F8FBFF34F8FFEE74FF071
:104CD000500383F31188BFF36F8FBFF34F8FFEE74D
:104CE000036C002BE5D04FF0500383F31188BFF322
:104CF0006F8FBFF34F8FFEE700F0F8FD064658B9FF
:104D0000019B002B48D04FF0500383F31188BFF371
:104D10006F8FBFF34F8FFEE700263DE02A463946EE
:104D20002046FFF779FE636A7BB948B14FF0E02374
:104D30004FF08052C3F8042DBFF34F8FBFF36F8F36
:104D4000FFF72AFC012005B0F0BD04F1240000F0BB
:104D500033FD0028F4D04FF0E0234FF08052C3F829
:104D6000042DBFF34F8FBFF36F8FE9E7FFF714FCFC
:104D70000020E8E702A800F065FD012619E0002305
:104D800084F8443021E0002384F8453023E02046B5
:104D9000FFF78FFE00F0F6FBFFF7DCFBA26BE36B87
:104DA0009A42BBD3022DB9D0019B002BDED0002E3E
:104DB000E0D0FFF7F1FB00F051FBFFF7CBFB94F8DD
:104DC000442052B2B2F1FF3FD9D094F8452052B2FC
:104DD000B2F1FF3FD7D0FFF7DFFB01A902A800F037
:104DE0003DFDD8B92046FFF7FBFD0028CFD0019943
:104DF00004F1100000F0C8FC2046FFF75AFE00F056
:104E0000C1FB0028C8D14FF0E0234FF08052C3F817
:104E1000042DBFF34F8FBFF36F8FBDE72046FFF721
:104E200048FE00F0AFFB00208DE748B108B5002137
:104E300081600160C1600B460A46FFF732FF08BD82
:104E4000704710B5024600210120FFF706FF044617
:104E5000FFF7EBFF204610BD10B582B00B46009067
:104E6000002211460120FFF7AEFE0446FFF7DDFFEA
:104E7000204602B010BDF0B585B0019290B10F464A
:104E80000446C1B100F032FD064600BB019B002B79
:104E90005ED04FF0500383F31188BFF36F8FBFF3E1
:104EA0004F8FFEE74FF0500383F31188BFF36F8FEE
:104EB000BFF34F8FFEE7036C002BE3D04FF050039E
:104EC00083F31188BFF36F8FBFF34F8FFEE7002688
:104ED0003EE039462046FFF7DAFD013DA563236930
:104EE00023B9FFF759FB012005B0F0BD04F1100014
:104EF00000F062FC0028F4D04FF0E0234FF0805225
:104F0000C3F8042DBFF34F8FBFF36F8FE9E7FFF7AF
:104F100043FB0020E8E702A800F094FC012621E012
:104F2000002384F8443029E0002384F845302BE046
:104F30002046FFF7BEFD00F025FB09E02046FFF705
:104F4000B8FD00F01FFB2046FFF759FD00283FD1B8
:104F5000FFF700FBA56B002DBBD1019B002BD6D02A
:104F6000002ED8D0FFF718FB00F078FAFFF7F2FA1E
:104F700094F844305BB2B3F1FF3FD1D094F84530A0
:104F80005BB2B3F1FF3FCFD0FFF706FB01A902A848
:104F900000F064FC0028D1D12046FFF730FD002846
:104FA000C6D0019904F1240000F0EEFB2046FFF783
:104FB00080FD00F0E7FA0028CAD14FF0E0234FF05F
:104FC0008052C3F8042DBFF34F8FBFF36F8FBFE73D
:104FD000002089E7084B1B681B6823B9074B4FF07B
:104FE000FF321A607047044B1B68DB68DB685A6845
:104FF000024B1A60704700BF54410020304200202D
:105000002DE9F04780460D4617469946089EDDF883
:1050100024A00A9C9200A521206BFBF7DBF9236BEF
:1050200007F18042013A03EB820727F00707676424
:10503000002D37D04FF0000CBCF10F0F0BD815F836
:105040000C2004EB0C0383F8342015F80C3013B15A
:105050000CF1010CF0E7002384F84330062E00D950
:105060000626E662266500256565201DFFF7CEF958
:1050700004F11800FFF7CAF92461C6F10706A6611A
:105080006462A565E56584F860504A464146384645
:10509000FFF734FA2060BAF1000F01D0CAF80040DF
:1050A000BDE8F087002384F83430D7E738B5002412
:1050B00007E004EB840293000E481844FFF79BF9C5
:1050C0000134062CF5D90C4D2846FFF794F90B4C0A
:1050D0002046FFF790F90A48FFF78DF90948FFF7D6
:1050E0008AF90948FFF787F9084B1D60084B1C60D7
:1050F00038BD00BF5C41002004420020184200205F
:105100003C420020684200205442002054410020CC
:105110005841002010B50446FFF71CFA224A1368D4
:1051200001331360214B1B685BB1214B1B686BB9CA
:105130001E4B1B68DA6AE36A9A4207D81B4B1C6055
:1051400004E01A4B1C601368012B29D0194A13681C
:1051500001331360A364E06A01238340164A116897
:105160000B43136000EB8000211D144B03EB800008
:10517000FFF74FF9FFF710FA0D4B1B687BB10B4B94
:105180001B68DA6AE36A9A4209D24FF0E0234FF0D3
:105190008052C3F8042DBFF34F8FBFF36F8F10BD44
:1051A000FFF784FFD2E700BFF0410020504100200C
:1051B00050420020FC410020004200205C410020C1
:1051C00010B5044690F8613063B1012B11D0022B69
:1051D0000ED04FF0500383F31188BFF36F8FBFF3EE
:1051E0004F8FFEE7006BFFF7BDFB2046FFF7BAFBD2
:1051F00010BDFFF7B7FBFBE70F4B1B68D3B110B532
:10520000FFF7A8F90D4BDB68DC68201DFFF725F9D7
:105210000B4A1368013B1360074A1368013B136094
:10522000FFF7BAF92046FFF7CBFF034B1B68002BB3
:10523000E6D110BD704700BFF44100206842002055
:10524000F041002008B5FFF7D7FF074B1B68012B83
:10525000F9D94FF0E0234FF08052C3F8042DBFF38B
:105260004F8FBFF36F8FEEE75C41002070B50446AF
:105270000D461D4B1E681D4B18680430FFF7EDF8F6
:1052800050B91A4B1B68DA6A012303FA02F2184973
:105290000B6823EA02030B60B4F1FF3F0DD03444E6
:1052A000124B1B685C60A64210D9124B18680F4B5A
:1052B00019680431FFF7B8F870BD002DEFD00B4B23
:1052C000196804310C48FFF7A4F8F5E70B4B186890
:1052D000064B19680431FFF7A7F8094B1B68A34276
:1052E000EAD9074B1C60E7E77C42002050410020D0
:1052F0000042002058410020544200205441002028
:105300003042002030B587B00B9C7CB10C9DB5B10C
:1053100064250495049D642D1AD04FF0500383F347
:105320001188BFF36F8FBFF34F8FFEE74FF050032D
:1053300083F31188BFF36F8FBFF34F8FFEE74FF0FA
:10534000500383F31188BFF36F8FBFF34F8FFEE7D6
:10535000049D0C9D2C63022485F861400024039475
:10536000029505AC01940A9C0094FFF749FE0C9845
:10537000FFF7D0FE059807B030BD2DE9F04385B0AA
:105380000746884614461E469000FFF76DFA00B3A4
:1053900081466420FFF768FA0546B0B1C0F8309046
:1053A000E5B1002385F86130039302950D9B0193CD
:1053B0000C9B00933346224641463846FFF720FEB9
:1053C0002846FFF7A7FE012005E04846FFF7CAFA86
:1053D000E6E74FF0FF3005B0BDE8F0834FF0FF3057
:1053E000F9E7000010B588B000240594069407AAD8
:1053F00006A905A8FBF710FF059B0293069B0193E6
:1054000000942346079A0F490F48FFF77BFF0F4B85
:105410001860A0B14FF0500383F31188BFF36F8F72
:10542000BFF34F8F0A4B4FF0FF321A60094B012236
:105430001A60094B1C60FBF7EBFEFFF725F908B07B
:1054400010BD00BF945B0008455200082C420020AC
:1054500030420020504200207C420020024A136863
:1054600001331360704700BFF8410020F8B53A4B94
:105470001B68002B69D1394B1D6801351D60C5B90A
:10548000374B1B681B6843B14FF0500383F31188FF
:10549000BFF36F8FBFF34F8FFEE7314A1168314B77
:1054A000186810601960304A136801331360FFF701
:1054B00091FD2E4B1B68AB423DD900272C4B1B683E
:1054C000DB6A03EB83039A002A4B9B58012B00D91C
:1054D0000127294B1B68002B3CD001273AE001270C
:1054E0001F4B1B681B6843B31D4B1B68DB68DC68E4
:1054F00063689D4226D3261D3046FEF7AEFFA36AA1
:105500001BB104F11800FEF7A8FFE36A01229A40DC
:105510001A49086802430A6003EB83039A00314684
:1055200014481044FEF775FFE26A114B1B68DB6AF2
:105530009A42D4D2D4E70027D2E70C4B4FF0FF3287
:105540001A60BBE7094A1360B8E70D4A13680133D4
:10555000136000273846F8BDF84100207C42002047
:1055600054410020584100203442002030420020A5
:10557000504100205C410020804200200042002079
:105580003842002038B5354B1B6843B94FF0500303
:1055900083F31188BFF36F8FBFF34F8FFEE7FEF7E2
:1055A000D9FF2E4B1A68013A1A601B68002B4FD1A5
:1055B0002B4B1B680BB900244BE00024294B1B68C4
:1055C0001BB3284BDB68DC6804F11800FEF745FFCD
:1055D000251D2846FEF741FFE06A01238340224A49
:1055E00011680B43136000EB800029461F4B03EB4F
:1055F0008000FEF70EFFE26A1D4B1B68DB6A9A42D1
:10560000DCD31C4B01221A60D8E70CB1FFF7E2FC97
:10561000194B1C6884B9174B1C68D4B14FF0E023B8
:105620004FF08052C3F8042DBFF34F8FBFF36F8F3D
:1056300001240EE0013C07D0FFF718FF0028F9D045
:105640000C4B01221A60F5E70B4B00221A60E2E7CF
:105650000024FEF7A1FF204638BD00BFF84100201E
:10566000F04100203C420020004200205C4100202C
:1056700050410020804200203842002010B5A8B1DF
:105680000446104B1B6843B14FF0500383F311885D
:10569000BFF36F8FBFF34F8FFEE7FFF7DFFE0021F1
:1056A0002046FFF7E3FDFFF76DFF48B94FF0E02319
:1056B0004FF08052C3F8042DBFF34F8FBFF36F8FAD
:1056C00010BD00BFF841002008B5284B1B681BB176
:1056D000274B01221A6008BD254B00221A60FBF7F8
:1056E00098FD244B1860244B1B68984205D9234A27
:1056F0001168C31A8A6D13448B651F4B1860204BC9
:105700001B68B3FA83F3DBB2C3F11F0303EB83021D
:1057100092001C498A5842B94FF0500383F3118814
:10572000BFF36F8FBFF34F8FFEE7164903EB830282
:1057300001EB820250684068506003EB83029200E4
:1057400008320A44904209D003EB83030D4A02EB6E
:1057500083035B68DA68094B1A60BCE7406803EBB7
:105760008301084A02EB81025060EDE7F841002016
:1057700080420020EC410020E84100205041002000
:10578000004200205C41002058B110B50C46094A87
:1057900011681831FEF748FE01212046FFF766FD2B
:1057A00010BD4FF0500383F31188BFF36F8FBFF329
:1057B0004F8FFEE75041002038B5C368DC6824B342
:1057C00004F118052846FEF748FE184B1B682BBB52
:1057D000251D2846FEF741FEE06A01238340144A56
:1057E00011680B43136000EB80002946114B03EB5B
:1057F0008000FEF70EFEE26A0F4B1B68DB6A9A42DE
:1058000011D901200D4B186038BD4FF0500383F3C0
:105810001188BFF36F8FBFF34F8FFEE7294608480B
:10582000FEF7F7FDE7E70020EEE700BFF8410020B4
:10583000004200205C4100205041002080420020B6
:105840003C420020034B1B680360034B1B68436012
:10585000704700BF344200207C420020F8B5C8B138
:105860000C460546F9B1FEF775FE1B4B19686B68CF
:10587000C81A2268B2F1FF3F26D0184E36682F684A
:10588000B74201D08B4224D9824215D8002323602D
:1058900001241AE04FF0500383F31188BFF36F8F98
:1058A000BFF34F8FFEE74FF0500383F31188BFF330
:1058B0006F8FBFF34F8FFEE75B1A134423602846B8
:1058C000FFF7C0FF002400E00024FEF765FE20463D
:1058D000F8BD0124F9E700BF7C42002034420020DB
:1058E000014B01221A60704780420020054B1B6863
:1058F00033B1054B1B680BB1002070470220704785
:105900000120704750420020F841002000284CD070
:1059100038B50446274B1B68834208D04FF050032C
:1059200083F31188BFF36F8FBFF34F8FFEE7436D93
:1059300043B94FF0500383F31188BFF36F8FBFF368
:105940004F8FFEE7013B4365C16A026D91422ED045
:105950000BB1002038BD051D2846FEF77EFD70B94D
:10596000E26A02EB82039B001349CB583BB9012347
:1059700003FA02F211490B6823EA02030B60206D5F
:10598000E062C0F10703A361012404FA00F30B4AAB
:1059900011680B43136000EB80002946064B03EBB4
:1059A0008000FEF736FD2046D4E700207047002037
:1059B000D0E700BF504100205C41002000420020A1
:1059C000DFF834D0FCF79CFB0C480D490D4A00234E
:1059D00002E0D458C4500433C4188C42F9D30A4AA4
:1059E0000A4C002301E013600432A242FBD3FAF711
:1059F00033FCFBF7BBFF70470000022000000020D3
:105A000010000020AC5B0008100000208442002041
:105A1000FEE70000F8B500BFF8BC08BC9E46704722
:0C5A2000F8B500BFF8BC08BC9E467047FB
:105A2C001000000034000000000000000000000026
:105A3C001000000002000000000000000000000048
:105A4C00105B0008191300080000000000000000A3
:105A5C008000000000000000000000001C5B00083B
:105A6C00351300080000000000000000800000005A
:105A7C0000000000000000002C5B0008A1150008CD
:105A8C000000000000000000000200000000000008
:105A9C00000000003C5B00087D13000802000000C1
:105AAC0000000000000200000000000000000000E8
:105ABC004C5B0008651300080000000000000000AB
:105ACC008000000000000000000000005C5B00088B
