:020000040800F2
:1000000000000220B9410008DD0D0008DF0D0008E6
:10001000E10D0008E30D0008E50D000800000000F8
:100020000000000000000000000000008127000820
:10003000E70D000800000000212800082D2400081A
:100040000942000809420008094200080942000864
:100050000942000809420008094200080942000854
:100060000942000809420008094200080942000844
:100070000942000809420008094200080942000834
:100080000942000809420008094200080942000824
:100090000942000809420008094200080942000814
:1000A0000942000809420008094200080942000804
:1000B00009420008094200080942000809420008F4
:1000C00009420008094200080942000809420008E4
:1000D00009420008094200080942000809420008D4
:1000E00009420008094200080942000809420008C4
:1000F00009420008094200080942000809420008B4
:1001000009420008094200080942000809420008A3
:100110000942000809420008E90D000809420008E8
:100120000942000809420008094200080942000883
:100130000942000800000000000000000942000819
:100140000942000809420008094200080942000863
:100150000942000809420008094200080942000853
:100160000942000809420008094200080942000843
:100170000942000809420008094200080000000086
:10018000000000000942000800000000000000001C
:1001900009420008000000000000000009420008B9
:1001A00000000000000000000000000009420008FC
:1001B00009420008094200080942000809420008F3
:0401C00009420008E8
:1001D0000348044B834202D0034B03B118477047D6
:1001E0001000002010000020000000000548064913
:1001F0000B1AD90F01EBA301491002D0034B03B135
:100200001847704710000020100000200000000078
:1002100010B5064C237843B9FFF7DAFF044B13B14E
:100220000448AFF300800123237010BD10000020AC
:10023000000000000C42000808B5044B1BB1044943
:100240000448AFF30080BDE80840CFE7000000009D
:10025000140000200C42000870B50D4E0D4D761BA9
:10026000B61006D0002455F8043B01349847A64246
:10027000F9D1094E094D761B03F0C8FFB61006D020
:10028000002455F8043B01349847A642F9D170BDCB
:1002900054430008544300085843000854430008DE
:1002A000844641EA000313F003036DD1403A41D381
:1002B00051F8043B40F8043B51F8043B40F8043B40
:1002C00051F8043B40F8043B51F8043B40F8043B30
:1002D00051F8043B40F8043B51F8043B40F8043B20
:1002E00051F8043B40F8043B51F8043B40F8043B10
:1002F00051F8043B40F8043B51F8043B40F8043B00
:1003000051F8043B40F8043B51F8043B40F8043BEF
:1003100051F8043B40F8043B51F8043B40F8043BDF
:1003200051F8043B40F8043B51F8043B40F8043BCF
:10033000403ABDD2303211D351F8043B40F8043B6F
:1003400051F8043B40F8043B51F8043B40F8043BAF
:1003500051F8043B40F8043B103AEDD20C3205D37F
:1003600051F8043B40F8043B043AF9D2043208D077
:10037000D2071CBF11F8013B00F8013B01D30B88E9
:1003800003806046704700BF082A13D38B078DD0C7
:1003900010F003038AD0C3F10403D21ADB071CBF99
:1003A00011F8013B00F8013B80D331F8023B20F803
:1003B000023B7BE7043AD9D3013A11F8013B00F83C
:1003C000013BF9D20B7803704B7843708B788370C4
:1003D00060467047830730B548D0541E002A3FD08E
:1003E000CAB2034601E0013C3AD303F8012B9D0752
:1003F000F9D1032C2DD9CDB245EA05250F2C45EABC
:10040000054536D9A4F1100222F00F0C03F1200E9D
:10041000E6444FEA121C03F1100242E9045542E996
:10042000025510327245F8D10CF1010214F00C0F94
:1004300003EB021204F00F0C13D0ACF1040323F011
:1004400003030433134442F8045B9342FBD10CF0E2
:1004500003042CB1CAB21C4403F8012B9C42FBD10B
:1004600030BD64461346002CF4D1F9E70346144628
:10047000BFE71A46A446E0E753B94AB9002908BFC6
:1004800000281CBF4FF0FF314FF0FF3000F074B96F
:10049000ADF1080C6DE904CE00F006F8DDF804E0DB
:1004A000DDE9022304B070472DE9F047089D0446BA
:1004B0008E46002B4DD18A42944669D9B2FA82F217
:1004C00052B101FA02F3C2F1200120FA01F10CFA53
:1004D00002FC41EA030E94404FEA1C48210CBEFB8B
:1004E000F8F61FFA8CF708FB16E341EA034306FB14
:1004F00007F199420AD91CEB030306F1FF3080F0A3
:100500001F81994240F21C81023E63445B1AA4B2EF
:10051000B3FBF8F008FB103344EA034400FB07F791
:10052000A7420AD91CEB040400F1FF3380F00A81D2
:10053000A74240F207816444023840EA0640E41BC7
:1005400000261DB1D4400023C5E900433146BDE873
:10055000F0878B4209D9002D00F0EF800026C5E915
:10056000000130463146BDE8F087B3FA83F6002E2D
:100570004AD18B4202D3824200F2F980841A61EBA5
:10058000030301209E46002DE0D0C5E9004EDDE7C3
:1005900002B9FFDEB2FA82F2002A40F09280A1EBAB
:1005A0000C014FEA1C471FFA8CFE0126200CB1FB00
:1005B000F7F307FB131140EA01410EFB03F08842F9
:1005C00008D91CEB010103F1FF3802D2884200F286
:1005D000CB804346091AA4B2B1FBF7F007FB101118
:1005E00044EA01440EFB00FEA64508D91CEB0404B6
:1005F00000F1FF3102D2A64500F2BB800846A4EB11
:100600000E0440EA03409CE7C6F12007B34022FAFB
:1006100007FC4CEA030C20FA07F401FA06F31C432A
:10062000F9404FEA1C4900FA06F3B1FBF9F8200C37
:100630001FFA8CFE09FB181140EA014108FB0EF07D
:10064000884202FA06F20BD91CEB010108F1FF3ACD
:1006500080F08880884240F28580A8F102086144D9
:10066000091AA4B2B1FBF9F009FB101144EA0141E7
:1006700000FB0EFE8E4508D91CEB010100F1FF3492
:100680006CD28E456AD90238614440EA0840A0FB2A
:100690000294A1EB0E01A142C846A64656D353D000
:1006A0005DB1B3EB080261EB0E0101FA07F722FA24
:1006B00006F3F1401F43C5E9007100263146BDE84D
:1006C000F087C2F12003D8400CFA02FC21FA03F3B0
:1006D000914001434FEA1C471FFA8CFEB3FBF7F031
:1006E00007FB10360B0C43EA064300FB0EF69E4256
:1006F00004FA02F408D91CEB030300F1FF382FD2EF
:100700009E422DD9023863449B1B89B2B3FBF7F696
:1007100007FB163341EA034106FB0EF38B4208D96F
:100720001CEB010106F1FF3816D28B4214D9023EB0
:100730006144C91A46EA004638E72E46284605E7CE
:100740000646E3E61846F8E64B45A9D2B9EB02089F
:1007500064EB0C0E0138A3E74646EAE7204694E72F
:100760004046D1E7D0467BE7023B614432E7304662
:1007700009E76444023842E7704700BF70B58AB0A9
:100780000024059406940794089409940194274B37
:100790001A6B42F004021A631A6B02F0040201920F
:1007A000019A02941A6B42F080021A631A6B02F0EB
:1007B00080020292029A03941A6B42F001021A63B9
:1007C0001A6B02F001020392039A04941A6B42F02E
:1007D00002021A631B6B03F002030493049B144D83
:1007E00022462021284600F01BFF4FF400530593BA
:1007F0004FF404130693079405A90E4800F024FE55
:1008000020230593012606960794089405A92846F7
:1008100000F01AFE4FF4007305930694079605A99D
:10082000284600F011FE0AB070BD00BF003802403B
:10083000000002400008024008B5002220210448C0
:1008400000F0EEFE4FF47A7001F088FEF5E700BF8D
:100850000000024008B54FF4FA7001F07FFE01225B
:100860002021044800F0DCFE4FF4FA7001F076FE1F
:10087000F1E700BF0000024008B5012001F06EFE64
:10088000FBE7000000B5002303704FF4487242807C
:1008900040F64851818083714FF0010C80F808C008
:1008A0004FF416724281818183734FF0020E80F8FB
:1008B00010E04282818283750323037642834FF4E2
:1008C0004863838380F81EC0034B03624FF40073B8
:1008D00083845DF804FB00BF0000024000B58BB0CC
:1008E0006846FFF7CFFF064C204600F081FB012150
:1008F000204600F01FFC012001F030FEF3E700BFAE
:100900004000002008B50268034B9A4200D008BDA1
:1009100000F096FAFBE700BF0010004072B6FEE759
:1009200000B585B0002300930193029303932648FA
:10093000264A02604FF480324260836001220261E5
:10094000037680F820204262C36202F17062826204
:10095000C3600422C26180F83030436100F01CFBA8
:1009600038BB002300930122019202936946164886
:1009700000F03CFCF8B9012300930223019369467F
:10098000114800F033FCC0B9042300930323019302
:1009900069460D4800F02AFC88B908230093042317
:1009A00001936946084800F021FC50B905B05DF894
:1009B00004FBFFF7B3FFFFF7B1FFFFF7AFFFFFF750
:1009C000ADFFFFF7ABFF00BF40000020002001405B
:1009D00008B50A480A4B03600A4B43600023836052
:1009E000C3604FF48042026143618361C36103626B
:1009F00000F01CFE00B908BDFFF790FF8800002042
:100A000000540040A086010008B50A480A4B036064
:100A10004FF4E133436000238360C36003610C2221
:100A200042618361C36101F0D1FC00B908BDFFF7E9
:100A300075FF00BFDC0000200044004000B595B009
:100A40003422002107A8FFF7C5FC0023029303937B
:100A500004930593069300931F4A116C41F0805153
:100A60001164126C02F080520092009A01931B49AB
:100A70000A6822F4404242F480420A600A6802F4A2
:100A800040420192019A0222079201210A9110210B
:100A90000B910D920E930F914FF4A87310930423B2
:100AA00011931292139207A801F052F880B90F2304
:100AB000029302210391002304934FF48052059284
:100AC000069302A800F090FE20B915B05DF804FB73
:100AD000FFF724FFFFF722FF0038024000700040BC
:100AE00008B500F093F9FFF7A9FFFFF747FEFFF7FE
:100AF00017FFFFF76DFFFFF787FF01F0A3FC134A15
:100B00000421102001F038FD114B1860114A00211A
:100B1000114801F0C5FC114B1860114A0021114821
:100B200001F0BEFC104B1860104A0021104801F083
:100B3000B7FC104B1860104A0021104801F0B0FCBF
:100B40000F4B186001F090FCFEE700BFBC420008AC
:100B500034000020F8420008390800083C0000205A
:100B6000984200085508000830000020D4420008D0
:100B7000DD080008380000207442000879080008E9
:100B80002C00002000B583B0002200920D4B596C60
:100B900041F480415964596C01F4804100910099FD
:100BA0000192196C41F0805119641B6C03F0805361
:100BB0000193019B0F216FF0010000F0FFFB03B0D8
:100BC0005DF804FB0038024030B589B00023039380
:100BD0000493059306930793026803F1804303F59A
:100BE00090339A4201D009B030BD0024009403F53F
:100BF0008C335A6C42F480725A645A6C02F48072DC
:100C00000092009A01941A6B42F001021A631A6B67
:100C100002F001020192019A02941A6B42F0020260
:100C20001A631B6B03F002030293029B13230393CB
:100C30000325049503A9064800F006FC012303934D
:100C40000495059403A9034800F0FEFBCBE700BF21
:100C5000000002400004024030B589B00023039335
:100C600004930593069307930268144B9A4201D0AC
:100C700009B030BD00250195114C236B43F00203F0
:100C80002363236B03F002030193019B4FF4407332
:100C9000039312230493032306930423079303A9C6
:100CA000084800F0D1FB0295236C43F40013236441
:100CB000236C03F400130293029BD9E70054004015
:100CC000003802400004024000B589B000230393BD
:100CD00004930593069307930268154B9A4202D03A
:100CE00009B05DF804FB0021019103F5FA331A6C99
:100CF00042F400321A641A6C02F400320192019A32
:100D000002911A6B42F001021A631B6B03F001039C
:100D10000293029B0C230393022304930323069361
:100D20000723079303A9034800F08EFBD8E700BF11
:100D3000004400400000024030B589B00446002362
:100D40000193214B1A6C42F010021A641B6C03F0E1
:100D500010030193019B02A903A800F01BFE069B50
:100D6000CBB900F0F7FD03461848A0FB03239B0C0A
:100D7000013B1748174A026040F2E732C260436005
:100D8000002303618360836101F06AFA054630B194
:100D9000284609B030BD00F0DDFD4300E4E70C4813
:100DA00001F0FAF805460028F2D1362000F03EFBAB
:100DB0000F2C01D90125EBE700222146362000F057
:100DC000FDFA054B1C60E3E70038024083DE1B435D
:100DD000240100200010004008000020FEE7FEE78C
:100DE000FEE7FEE7FEE7704708B5024801F01CF990
:100DF00008BD00BF24010020034AD2F8883043F424
:100E00007003C2F88830704700ED00E008B50B4B66
:100E10001A6842F400721A601A6842F480621A601A
:100E20001A6842F480721A60032000F0B5FA0F20AD
:100E3000FFF782FFFFF7A6FE002008BD003C02403E
:100E4000034A1168034B1B780B441360704700BFC3
:100E50006C01002004000020014B1868704700BF9F
:100E60006C0100204A4B5A6822F440325A605A689A
:100E700041680A435A600268536823F480735360E0
:100E800002685368016943EA0123536002685368AA
:100E900023F0407353600268536881680B435360CA
:100EA0000268936823F40063936002689368C168E2
:100EB0000B439360826A374B9A4257D0026893681B
:100EC00023F07063936002689368816A0B439360B8
:100ED0000268936823F04053936002689368C16A84
:100EE0000B4393600268936823F0020393600268E7
:100EF0009368017E43EA4103936090F82030002B11
:100F00003FD00268536843F400635360026853683B
:100F100023F46043536001684B68426A013A43EA34
:100F200042334B600268D36A23F47003D3620168D2
:100F3000CB6AC269013A43EA0253CB620268936802
:100F400023F4007393600268936890F8301043EACA
:100F5000412393600268936823F48063936002687E
:100F60009368416943EA81239360704702689368FC
:100F700023F0706393600268936823F0405393609A
:100F8000B0E70268536823F400635360CAE700BF08
:100F9000002301400100000F38B310B50446036C74
:100FA00043B1236C13F0100F0BD00120002384F801
:100FB0003C3010BDFFF708FE0023636484F83C302A
:100FC000EFE7236C23F4885323F0020343F002037A
:100FD00023642046FFF746FF00206064236C23F063
:100FE000030343F001032364E0E70120704700009E
:100FF00082B00023019390F83C30012B00F08980EF
:10100000012380F83C3003689A6812F0010F13D175
:101010009A6842F001029A60414B1B68414AA2FB68
:1010200003239B0C03EB4303019302E0019B013B71
:101030000193019B002BF9D10268936813F0010F13
:101040005CD0036C23F4E06323F0010343F480736A
:101050000364536813F4806F05D0036C23F440538A
:1010600043F480530364036C13F4805F1BD0436C20
:1010700023F006034364002380F83C306FF0220322
:101080001360294B5B6813F01F0F27D10368274AB1
:10109000934211D002F58072934207D0244A9342C2
:1010A00014D0002033E000234364E4E702F500722B
:1010B000526812F01F0FF1D19A6812F0405F2AD1E6
:1010C0009A6842F080429A60002020E002F5807227
:1010D000526812F0100FEFD0002018E00368134A96
:1010E000934201D0002012E09A6812F0405F14D1C0
:1010F0009A6842F080429A60002008E0036C43F056
:1011000010030364436C43F001034364002002B006
:1011100070470220FBE70020F9E70020F7E700BF57
:101120000000002083DE1B4300230140002001401B
:101130000022014070B504460D4603689A6812F417
:10114000806F03D09B6813F4807F19D1FFF784FE72
:10115000064623681A6812F0020F20D1B5F1FF3F4E
:10116000F7D0B5B923681B6813F0020FF1D1236CD7
:1011700043F004032364002384F83C30032032E06E
:10118000036C43F020030364002380F83C3001200B
:1011900029E0FFF761FE801BA842DAD9E2E76FF091
:1011A00012021A60236C43F40073236423689A6864
:1011B00012F0405F16D1207EB0B9DA6A12F4700FD7
:1011C00003D09B6813F4806F0DD1236C23F48073DC
:1011D0002364236C13F4805F05D1236C43F0010377
:1011E000236400E0002070BD0020FCE730B482B032
:1011F0000023019390F83C30012B00F0C0800123C4
:1012000080F83C300B68092B41D90468E2689BB236
:1012100003EB43031E3B4FF0070C0CFA03F322EAE7
:101220000303E3600468E2680B8803EB43031E3B9F
:101230008D6805FA03F31343E3604B68062B3DD832
:101240000468626B03EB8303053B4FF01F0C0CFA41
:1012500003F322EA030363630468626B4B6803EBE6
:101260008303053BB1F800C00CFA03F31343636337
:101270000268444B9A4251D00268424B9A425AD07B
:10128000002380F83C30184602B030BC7047046838
:1012900022699BB203EB43034FF0070C0CFA03F3F4
:1012A00022EA03032361046822690B8803EB4303EA
:1012B0008D6805FA03F313432361BEE70C2B16D8A0
:1012C00005682A6B03EB8303233B1F2404FA03F313
:1012D00022EA03032B6305682A6B4B6803EB830345
:1012E000233B0C8804FA03F313432B63C0E7056820
:1012F000EA6A03EB8303413B1F2404FA03F322EA67
:101300000303EB620568EA6A4B6803EB8303413B26
:101310000C8804FA03F31343EB62A9E70B68122B62
:10132000AAD1194B5A6822F400025A605A6842F452
:1013300080025A60A0E70B68144A934201D0112B37
:101340009ED1114B5A6822F480025A605A6842F4C6
:1013500000025A600A680D4B9A4291D10C4B1B68EF
:101360000C4AA2FB03239B0C03EB83035B0001935A
:10137000019B002B84D0019B013B0193F8E70220E5
:1013800082E700BF0020014000230140120000104E
:101390000000002083DE1B43074AD36823F4E06388
:1013A0001B041B0C000200F4E060034343F0BF6326
:1013B00043F40033D360704700ED00E000B5194BF3
:1013C000DB68C3F30223C3F1070CBCF1040F28BF91
:1013D0004FF0040C03F1040EBEF1060F18D9033BC5
:1013E0004FF0FF3E0EFA0CFC21EA0C0199400EFA78
:1013F00003F322EA0303194300280BDB0901C9B2F6
:1014000000F1604000F5614080F800135DF804FBD6
:101410000023E5E700F00F000901C9B2024B19549F
:10142000F4E700BF00ED00E014ED00E0002807DB6A
:1014300000F01F02400901239340024A42F8203085
:10144000704700BF00E100E000230F2B00F2DE80B8
:1014500070B582B060E085685E000324B44025EA80
:101460000405CC68B4402C438460456825EA020535
:101470004C68C4F300129A402A4342605AE0DC08E8
:10148000083450F8246003F0070295000F22AA40A8
:1014900026EA020E0A69AA4042EA0E0240F8242017
:1014A0005CE0062200E0002202FA0EF22A43023437
:1014B000574D45F82420574A94686FEA0C0224EAF5
:1014C0000C054E6816F4801F01D04CEA0405514CFF
:1014D000A560E46802EA04054E6816F4001F01D016
:1014E0004CEA04054B4CE560646802EA04054E686A
:1014F00016F4003F01D04CEA0405464C65602468B0
:1015000022404D6815F4803F01D04CEA0402414C62
:10151000226001330F2B77D801229A400C6804EA2D
:10152000020C32EA0404F4D14C6804F00304013CD8
:10153000012C90D94A6802F00302032A09D0C4683A
:101540005D000322AA4024EA02048A68AA402243DA
:10155000C2604A6802F00302022A90D004684FEA8F
:10156000430E032202FA0EF224EA02044A6802F051
:10157000030202FA0EF2224302604A6812F4403F6C
:10158000C7D000220192244A546C44F4804454642D
:10159000526C02F480420192019A9C08A51C1C4ADC
:1015A00052F8255003F003024FEA820E0F2202FA8E
:1015B0000EF225EA0205194A90423FF474AF02F593
:1015C0008062904216D002F58062904214D002F5FB
:1015D0008062904212D002F58062904210D002F5F3
:1015E000806290420ED002F5806290423FF459AF83
:1015F000072259E7012257E7022255E7032253E762
:10160000042251E705224FE702B070BD704700BFCA
:1016100000380140003C0140003802400000024018
:101620000AB181617047090481617047002800F0A8
:10163000CC8070B5044690F83D30002B77D0242341
:1016400084F83D302268136823F001031360226898
:10165000136843F4004313602268136823F40043C3
:10166000136000F077F962685A4B9A4264D85A4B7B
:1016700098428CBF00230123002B40F0A8805749DB
:10168000A1FB00318B0C25686A6822F03F0242EA18
:1016900091426A6021680A6A22F03F0266684D4DF5
:1016A000AE424FD8013313430B622168CA6922F45A
:1016B0004F4222F0FF026668464B9E424CD8431EC2
:1016C0007600B3FBF6F3013340F6FC70034278D0AA
:1016D000C3F30B031343CB6121680B6823F0C003F2
:1016E000E269206A024313430B6021688B6823F48C
:1016F000034323F0FF032269E068024313438B6036
:101700002168CB6823F0FF036269A0690243134399
:10171000CB602268136843F001031360002020644B
:10172000202384F83D30206384F83E0070BD80F8AB
:101730003C30FFF791FA82E7294B98428CBF002397
:10174000012399E74FF4967505FB03F3254DA5FB9F
:1017500003539B090133A6E7A368BBB9451E06EBFB
:10176000460CB5FBFCF50135C5F30B05B5FA85F55F
:101770006D0945BBC3B9013806EB4603B0FBF3F373
:101780000133C3F30B0343F40043A3E7451E06EB09
:10179000860C0CEB8C0CB5FBFCF50135C5F30B0589
:1017A000B5FA85F56D09E4E7013806EB860303EB2E
:1017B0008303B0FBF3F30133C3F30B0343F4404360
:1017C00088E7042386E7012384E70120704701208E
:1017D000ACE700BFA08601007F841E0083DE1B43B0
:1017E000FF083D00D34D6210002800F09B8070B5CB
:1017F0000D4604464F4B1B6803F00F038B4208D283
:10180000CBB24C4A1370136803F00F038B4240F0C5
:101810008B80236813F0020F17D013F0040F04D04D
:10182000454A936843F4E0539360236813F0080F2C
:1018300004D0414A936843F4604393603E4A9368FE
:1018400023F0F003A1680B439360236813F0010FAA
:1018500032D06368012B21D09A1E012A25D9364A3D
:10186000126812F0020F61D033498A6822F0030235
:1018700013438B60FFF7F0FA06462F4B9B6803F08B
:101880000C036268B3EB820F16D0FFF7E5FA801BFA
:1018900041F288339842F0D9032042E0264A126888
:1018A00012F4003FE0D101203BE0234A126812F01D
:1018B000007FD9D1012034E01E4B1B6803F00F03D9
:1018C000AB4207D9EAB21B4B1A701B6803F00F0337
:1018D000AB422DD1236813F0040F06D0164A93684B
:1018E00023F4E053E1680B439360236813F0080F7F
:1018F00007D0114A936823F46043216943EAC10386
:10190000936000F065F80C4B9B68C3F303130B4A1C
:10191000D35CD8400A4B18600A4B1868FFF70CFAE2
:10192000002070BD012070470120FAE70120F8E790
:101930000120F6E7003C0240003802401C4300084A
:101940000000002008000020014B1868704700BF0D
:101950000000002008B5FFF7F7FF044B9B68C3F3B6
:101960008223034AD35CD84008BD00BF0038024040
:101970002C43000808B5FFF7E7FF044B9B68C3F34F
:101980004233034AD35CD84008BD00BF0038024050
:101990002C4300080F2303600B4B9A6802F00302EC
:1019A00042609A6802F0F00282609A6802F4E052A3
:1019B000C2609B68DB0803F4E0530361034B1B68C0
:1019C00003F00F030B60704700380240003C0240F8
:1019D00008B55C4B9B6803F00C03082B07D00C2B5D
:1019E0005BD0042B01D0584808BD5848FCE7554B44
:1019F0005A6802F03F025B6813F4800F2AD0514B03
:101A00005968C1F3881C4FEA4C11B1EB0C006EEB26
:101A10000E0E4FEA8E1343EA90638101091A63EBBD
:101A20000E03DB0043EA5173C90011EB0C0C43F1C8
:101A30000003590200234FEA4C2041EADC51FEF733
:101A40001BFD404B5B68C3F3014301335B00B0FBFC
:101A5000F3F0C9E73B4B5968C1F3881C4FEA4C11BE
:101A6000B1EB0C006EEB0E0E4FEA8E1343EA90635F
:101A70008101091A63EB0E03DB0043EA5173C900CD
:101A800011EB0C0C43F10003990200234FEA8C2068
:101A900041EA9C51FEF7F0FCD3E72A4B5A6802F06A
:101AA0003F025B6813F4800F28D0264B5968C1F3BE
:101AB000881C4FEA4C11B1EB0C006EEB0E0E4FEA96
:101AC0008E1343EA90638101091A63EB0E03DB0076
:101AD00043EA5173C90011EB0C0C43F100035902A6
:101AE00000234FEA4C2041EADC51FEF7C5FC154BC0
:101AF0005B68C3F30273B0FBF3F075E7114B5968F1
:101B0000C1F3881C4FEA4C11B1EB0C006EEB0E0ECA
:101B10004FEA8E1343EA90638101091A63EB0E03C7
:101B2000DB0043EA5173C90011EB0C0C43F10003D5
:101B3000990200234FEA8C2041EA9C51FEF79CFC5D
:101B4000D5E700BF003802400024F40000127A00FC
:101B5000002800F0018270B582B00446036813F0DB
:101B6000010F41D0994B9B6803F00C03042B32D03A
:101B7000964B9B6803F00C03082B27D0934B9B6874
:101B800003F00C030C2B59D06368B3F5803F5BD096
:101B9000B3F5A02F5ED08D4B1A6822F480321A6004
:101BA0001A6822F480221A606368002B5CD0FFF769
:101BB00053F90546854B1B6813F4003F14D1FFF71A
:101BC0004BF9401B6428F5D90320CCE17F4B5B68BF
:101BD00013F4800FD2D07D4B1B6813F4003F03D069
:101BE0006368002B00F0BA81236813F0020F60D005
:101BF000764B9B6813F00C0F4AD0744B9B6803F034
:101C00000C03082B3FD0714B9B6803F00C030C2B8B
:101C100069D0E368002B75D06D4B01221A60FFF785
:101C20001BF90546694B1B6813F0020F61D1FFF7E2
:101C300013F9401B0228F5D9032094E1634B5B683C
:101C400013F4800FA0D0C6E7604A136843F48033D2
:101C50001360A9E75D4B1A6842F480221A601A6883
:101C600042F480321A609FE7FFF7F6F80546574BBB
:101C70001B6813F4003FB7D0FFF7EEF8401B642851
:101C8000F5D903206FE1514B5B6813F4800FBAD193
:101C90004E4B1B6813F0020F03D0E368012B40F09A
:101CA0005F814A4A136823F0F803216943EAC103BC
:101CB0001360236813F0080F49D06369002B33D0F9
:101CC000434B0122C3F8802EFFF7C6F805463F4B71
:101CD0005B6F13F0020F3AD1FFF7BEF8401B0228EA
:101CE000F5D903203FE1394B5B6813F4800F90D1A5
:101CF000CEE7364A136823F0F803216943EAC103AB
:101D00001360D6E7324B00221A60FFF7A5F80546AC
:101D10002E4B1B6813F0020FCBD0FFF79DF8401B32
:101D20000228F5D903201EE1294B0022C3F8802E9A
:101D3000FFF792F80546254B5B6F13F0020F06D0B4
:101D4000FFF78AF8401B0228F5D903200BE123682E
:101D500013F0040F76D01D4B1B6C13F0805F33D152
:101D600000230193194B1A6C42F080521A641B6CC9
:101D700003F080530193019B0125164B1B6813F45C
:101D8000807F29D0A368012B3AD0052B3ED00F4B82
:101D90001A6F22F001021A671A6F22F004021A6702
:101DA000A368002B3CD0FFF757F80646074B1B6F84
:101DB00013F0020F45D1FFF74FF8801B41F2883333
:101DC0009842F3D90320CEE00025D6E70038024040
:101DD00000004742007000406B4A136843F4807370
:101DE0001360FFF739F80646674B1B6813F4807FD2
:101DF000C8D1FFF731F8801B0228F5D90320B2E0E3
:101E0000624A136F43F001031367C9E75F4B1A6F10
:101E100042F004021A671A6F42F001021A67BFE724
:101E2000FFF71AF80646594B1B6F13F0020F08D044
:101E3000FFF712F8801B41F288339842F3D9032050
:101E400091E0EDB9A369002B00F08C804F4A9268B5
:101E500002F00C02082A54D0022B17D04C4B00225F
:101E60001A66FEF7F9FF0446484B1B6813F0007F23
:101E700045D0FEF7F1FF001B0228F5D9032072E0E0
:101E8000424A136C23F080531364DBE7404B00227B
:101E90001A66FEF7E1FF05463C4B1B6813F0007F16
:101EA00006D0FEF7D9FF401B0228F5D903205AE0DF
:101EB000E369226A1343626A43EA8213A26A520800
:101EC000013A43EA0243E26A43EA0263226B43EACD
:101ED00002732E4A53602E4B01221A66FEF7BCFF96
:101EE00004462A4B1B6813F0007F06D1FEF7B4FFAF
:101EF000001B0228F5D9032035E0002033E0002044
:101F000031E0012B31D0214B5B6803F48001E269A1
:101F100091422CD103F03F02216A8A4229D1616AA1
:101F200047F6C0721A40B2EB811F24D103F440314E
:101F3000A26A5208013AB1EB024F1ED103F070625F
:101F4000E16AB2EB016F1AD103F0E043226BB3EB0D
:101F5000027F16D1002006E001207047012002E038
:101F6000012000E0002002B070BD0120FBE701204D
:101F7000F9E70120F7E70120F5E70120F3E7012069
:101F8000F1E70120EFE700BF007000400038024099
:101F9000000047427047000090F83D30DBB2012B53
:101FA00037D1022380F83D300268D36843F0010343
:101FB000D3600368194A934220D0B3F1804F1DD0FB
:101FC000A2F57C42934219D002F58062934215D06B
:101FD00002F58062934211D002F5784293420DD00F
:101FE00002F57052934209D0A2F59432934205D083
:101FF0001A6842F001021A60002070479A6802F0E5
:102000000702062A07D01A6842F001021A6000206F
:102010007047012070470020704700BF000001405A
:10202000704770477047704770B504460368DE68B4
:102030001D6915F0020F10D016F0020F0DD06FF0D1
:1020400002021A610123037703689B6913F0030FEF
:102050005ED0FFF7E6FF0023237715F0040F12D0C0
:1020600016F0040F0FD023686FF004021A610223E8
:10207000237723689B6913F4407F4FD02046FFF7F6
:10208000D0FF0023237715F0080F12D016F0080FA9
:102090000FD023686FF008021A61042323772368A6
:1020A000DB6913F0030F40D02046FFF7BAFF00238F
:1020B000237715F0100F12D016F0100F0FD02368F1
:1020C0006FF010021A61082323772368DB6913F489
:1020D000407F31D02046FFF7A4FF0023237715F07F
:1020E000010F02D016F0010F2DD115F0800F02D094
:1020F00016F0800F2FD115F0400F02D016F0400FD0
:1021000031D115F0200F02D016F0200F33D170BD61
:10211000FFF786FF2046FFF785FF9CE72046FFF785
:102120007FFF2046FFF77EFFABE72046FFF778FFF3
:102130002046FFF777FFBAE72046FFF771FF2046FA
:10214000FFF770FFC9E723686FF001021A612046AC
:10215000FEF7D8FBC9E723686FF080021A612046BA
:1021600000F0ABF8C7E723686FF040021A61204621
:10217000FFF759FFC5E723686FF020021A61204678
:1021800000F09AF8C3E700000368344A904212D086
:10219000B0F1804F0FD0A2F57C4290420BD002F5F7
:1021A0008062904207D002F58062904203D002F52F
:1021B0007842904203D123F070034A681343274AC0
:1021C00090422AD0B0F1804F27D0A2F57C429042B5
:1021D00023D002F5806290421FD002F580629042C7
:1021E0001BD002F57842904217D002F5705290420F
:1021F00013D002F5806290420FD002F580629042C7
:102200000BD0A2F59832904207D002F5806290423E
:1022100003D002F58062904203D123F44073CA6870
:10222000134323F080034A69134303608B68C3623E
:102230000B688362094B984203D003F58063984290
:1022400001D10B69036301234361036913F0010F9B
:1022500003D0036923F001030361704700000140CC
:1022600040B310B5044690F83D30F3B1022384F832
:102270003D30214651F8040BFFF786FF012384F817
:10228000463084F83E3084F83F3084F8403084F89B
:10229000413084F8423084F8433084F8443084F884
:1022A000453084F83D30002010BD80F83C30FFF709
:1022B00071FEDBE7012070477047704738B5044670
:1022C0000268136923F44053C1680B4313618368A8
:1022D0000269134342691343C2691A430168CB6818
:1022E00023F4164323F00C031343CB6002685369B5
:1022F00023F4407381690B4353610368314A93426D
:1023000006D002F58062934202D0FFF723FB01E082
:10231000FFF730FBE369B3F5004F29D00021031824
:1023200049411B1841F10001C90041EA5371DB002A
:10233000181863684FEA83024FEA937341F1000172
:10234000FEF79AF8204DA5FB00325109642303FBE8
:1023500011031B013233A5FB03235B0903F0F002D9
:1023600002EB011203F00F03216813448B6038BDA8
:102370000023021843EB0301121841F10001C900C8
:1023800041EA5271D200101841F1000162689218BE
:102390005B41FEF771F80C4DA5FB00325109642337
:1023A00003FB1103DB003233A5FB03235B095A0057
:1023B00002F4F87202EB011203F0070321681344E0
:1023C0008B60D4E7001001401F85EB5160B310B55E
:1023D000044690F8413013B3242384F84130226836
:1023E000D36823F40053D3602046FFF767FF2268C9
:1023F000136923F4904313612268536923F02A037D
:1024000053612268D36843F40053D36000206064B2
:10241000202384F8413084F84230606310BD80F896
:102420004030FEF751FCD7E70120704708B54FF068
:10243000E0231B6901F03EFC012800D108BD00F03B
:1024400021FAFBE7EFF305832BB9064B186828B98F
:1024500001221A6070476FF0050070474FF0FF309F
:10246000704700BFCC030020EFF3058373B90A4B1C
:102470001B68012B0DD110B50024084BDC77064BEF
:1024800002221A6001F074F9204610BD6FF00500B9
:1024900070474FF0FF307047CC03002000ED00E0A4
:1024A000F0B587B000240594EFF3058474BB68B3DE
:1024B00022B31568936903B918235C1E372C49D8D9
:1024C000546814F0010F47D156696EB14FEA960C6B
:1024D00094682CB1D7685B2F02D9176907B1C6B9C8
:1024E0002CB14FF0FF340EE04FF0800CF0E7D468D1
:1024F0008CB9146994B14FF0FF3404E01546002400
:1025000018234FF0800C012C0AD0ACB1059807B00D
:10251000F0BD0124F7E74FF0FF34F4E70024F2E7C1
:10252000146992680292019400930B466246294610
:1025300001F0AEF80590E9E705AA019200930B4679
:102540001FFA8CF2294601F0DEF80128DED00023C4
:102550000593DBE70020DAE70020D8E708B5EFF3C2
:10256000058333B908B9002008BD01F065FA0020E1
:10257000FAE76FF00500F7E770B582B0EFF3058377
:10258000002B3AD1144600283BD000293BD06AB337
:1025900093684BB1D2684F2A06D9226922B101FB58
:1025A00000F56669AE421BD273B14FF0FF3363BBD7
:1025B000002200F0A8FC054605B304B124682146BA
:1025C000284600F09FFE19E0E3688BB9236913B138
:1025D0004FF0FF33EBE763696BB14FF0FF33E6E792
:1025E0000025009500F045FC0546E5E70023DEE701
:1025F0004FF0FF33DBE70023D9E70025284602B080
:1026000070BD0025FAE70025F8E70025F6E7000091
:10261000034B0360034B0B6080231360704700BFC4
:102620007003002070010020034B0360034B0B601C
:102630004FF4807313607047D0070020D003002050
:1026400000F1080343604FF0FF328260C360036112
:1026500000230360704700230361704743684B60A9
:102660009A688A6051609960086103680133036069
:10267000704730B40D68B5F1FF3F11D000F1080389
:102680001C465B681A68AA42FAD963684B60996075
:102690008C606160086103680133036030BC70477F
:1026A0000469F2E70369416882688A6041685160A1
:1026B0005A68824206D0002202611A68013A1A6002
:1026C0001868704782685A60F5E7000082B00023FE
:1026D00001930D4B1B68B3F1FF3F08D04FF050033F
:1026E00083F31188BFF36F8FBFF34F8FFEE74FF077
:1026F000500383F31188BFF36F8FBFF34F8F019B9C
:10270000002BFCD002B070470C0000200848006885
:10271000006880F308884FF0000080F3148862B6E8
:1027200061B6BFF34F8FBFF36F8F00DF00BF0000B4
:1027300008ED00E0DFF80C00016841F47001016071
:102740007047000088ED00E04FF0807340F8043CD3
:1027500021F0010140F8081C054B40F80C3C40F802
:10276000202C6FF0020340F8243C4438704700BF2F
:10277000CD2600080000000000000000000000005E
:10278000074B19680868B0E8F04F80F30988BFF379
:102790006F8F4FF0000080F311887047AFF3008017
:1027A000944400204FF0500383F31188BFF36F8FE0
:1027B000BFF34F8F0B4A136801331360012B00D016
:1027C00070474FF0E023D3F8043D13F0FF0FF7D02C
:1027D0004FF0500383F31188BFF36F8FBFF34F8F18
:1027E000FEE700BF0C000020094B1B6843B94FF007
:1027F000500383F31188BFF36F8FBFF34F8FFEE752
:10280000013B034A13600BB983F31188704700BF83
:102810000C0000200000000000000000000000008C
:10282000EFF30980BFF36F8F154B1A681EF0100F7E
:1028300008BF20ED108A20E9F04F10602DE9090053
:102840004FF0500080F31188BFF34F8FBFF36F8FAD
:1028500001F018F94FF0000080F3118809BC1968E5
:102860000868B0E8F04F1EF0100F08BFB0EC108AF7
:1028700080F30988BFF36F8F704700BFAFF300800C
:102880009444002008B54FF0500383F31188BFF340
:102890006F8FBFF34F8F00F0C7FF28B14FF0E023D9
:1028A0004FF08052C3F8042D002383F3118808BD34
:1028B0004FF0E022002313619361054B1B6805492B
:1028C000A1FB03139B09013B53610723136170476D
:1028D00000000020D34D62104FF0E023D3F8002D0C
:1028E0003D4B9A421CD04FF0E023D3F8002D3B4BD8
:1028F0009A421ED030B583B0394B1A78D2B20192C9
:10290000FF221A701B78DBB28DF803309DF803307C
:1029100003F05003334A1370334B07221A601BE055
:102920004FF0500383F31188BFF36F8FBFF34F8FC6
:10293000FEE74FF0500383F31188BFF36F8FBFF3AF
:102940004F8FFEE7284A1368013B13609DF8033060
:102950005B00DBB28DF803309DF8033013F0800F7D
:10296000F0D1214B1B68032B08D04FF0500383F3A9
:102970001188BFF36F8FBFF34F8FFEE71B021A4A18
:10298000136003F4E0631360019BDBB2144A13701D
:102990004FF0E024D4F8203D43F47003C4F8203D08
:1029A000D4F8203D43F07043C4F8203DFFF780FF8A
:1029B00000250E4B1D60FFF7BDFED4F8343F43F0F9
:1029C0004043C4F8343FFFF7A1FE01F05BF8FFF786
:1029D0007DFE284603B030BD71C20F4170C20F4169
:1029E00000E400E02C080020300800200C0000204B
:1029F000EFF305830F2B0FD9114A9B5CDBB2114A11
:102A000012789A4208D94FF0500383F31188BFF32C
:102A10006F8FBFF34F8FFEE74FF0E023D3F80C3DED
:102A200003F4E063084A1268934208D94FF0500358
:102A300083F31188BFF36F8FBFF34F8FFEE77047AB
:102A4000F0E300E02C08002030080020124A12F0C9
:102A5000070F1ED0D11D21F00701C1F5705313449B
:102A60000A460E480260002141601344083B23F0EF
:102A700007030B48036059601960991A516013608D
:102A8000084B1960084B1960084B4FF000421A6060
:102A900070474FF47053E4E7380800204C4400209E
:102AA00034080020404400203C44002038440020EA
:102AB000164B1A461B688342FBD3516802EB010C8C
:102AC000844509D0416800EB010C634509D00360DF
:102AD000904219D010607047406801445160104620
:102AE000F0E710B40A4C2468A3420BD05B68194489
:102AF000416013681B680360904200D010605DF86D
:102B0000044B70470460F7E7704700BF4C44002057
:102B10003408002070B5054600F078FE364B1B687F
:102B2000A3B1364B1B681D424ED135B1083515F0A7
:102B3000070F02D025F007050835002D46D0304B91
:102B40001B68AB4251D32F4A146804E0FFF77EFFA5
:102B5000E7E722461C466368AB4202D22368002B9B
:102B6000F7D1254B1B68A34241D01668083623686D
:102B7000136063685B1B102B10D9601910F0070FEE
:102B800008D04FF0500383F31188BFF36F8FBFF36A
:102B90004F8FFEE743606560FFF78AFF6268184960
:102BA0000B689B1A0B60184909688B4201D21649C1
:102BB0000B60124B1B681343636000232360134AAE
:102BC00013680133136002E0002600E0002600F0E5
:102BD000B7FE16F0070F0CD04FF0500383F31188A7
:102BE000BFF36F8FBFF34F8FFEE70026EFE700269E
:102BF000EDE7304670BD00BF3408002038440020A7
:102C00003C4400204C440020404400204444002028
:102C1000002834D038B50446A0F1080550F8043C2B
:102C2000174A1268134208D14FF0500383F31188FA
:102C3000BFF36F8FBFF34F8FFEE750F8081C41B111
:102C40004FF0500383F31188BFF36F8FBFF34F8FA3
:102C5000FEE723EA020340F8043C00F0D7FD54F8F5
:102C6000041C084A13680B4413602846FFF720FF32
:102C7000054A13680133136000F062FE38BD7047E7
:102C8000384400203C4400204844002010B504464D
:102C9000FFF788FDA26BE36B9A4204D00024FFF794
:102CA000A3FD204610BD0124F9E710B50446FFF747
:102CB00079FDA36B23B90124FFF796FD204610BDD3
:102CC0000024F9E770B504461546866B026C5AB9C4
:102CD00003681BB100200136A66370BD806800F058
:102CE000F9FF0023A360F6E76DB94068FDF7D8FA55
:102CF000226C636813446360A268934219D323680B
:102D000063602846E7E7C068FDF7CAFA226C5142C3
:102D1000E3689B1AE3602268934202D2A3680B44E3
:102D2000E360022D01D00020D5E726B1013E00204E
:102D3000D1E72846CFE70020CDE70346026C6AB111
:102D400010B50846D9681144D9609C68A14201D3E6
:102D50001968D960D968FDF7A3FA10BD704738B576
:102D60000546FFF71FFD95F8454064B201E0013CC0
:102D700064B2002C0ADD6B6A43B105F1240000F057
:102D8000FFFE0028F3D000F08FFFF0E7FF2385F867
:102D90004530FFF729FDFFF705FD95F8444064B283
:102DA00001E0013C64B2002C0ADD2B6943B105F15E
:102DB000100000F0E5FE0028F3D000F075FFF0E70A
:102DC000FF2385F84430FFF70FFD38BD38B5E0B17B
:102DD0000D460446FFF7E6FC2368E26B216C01FB1D
:102DE0000230A0600020A0636360013A02FB01335F
:102DF000E360FF2384F8443084F84530FDB923694B
:102E000063B9FFF7F1FC012038BD4FF0500383F3A5
:102E10001188BFF36F8FBFF34F8FFEE704F11000EF
:102E200000F0AEFE0028ECD04FF0E0234FF08052CF
:102E3000C3F8042DBFF34F8FBFF36F8FE1E704F1A9
:102E40001000FFF7FDFB04F12400FFF7F9FBD8E7C2
:102E500038B51D46049C0B4649B92460E0632364E1
:102E600001212046FFF7B2FF84F84C5038BD2260A4
:102E7000F4E740B94FF0500383F31188BFF36F8F2D
:102E8000BFF34F8FFEE710B584B01C46844653B1A4
:102E900092B189B94FF0500383F31188BFF36F8F5C
:102EA000BFF34F8FFEE74FF0500383F31188BFF35A
:102EB0006F8FBFF34F8FFEE76AB150230393039BDD
:102EC000502B13D04FF0500383F31188BFF36F8F53
:102ED000BFF34F8FFEE70029EFD04FF0500383F38D
:102EE0001188BFF36F8FBFF34F8FFEE7039B012362
:102EF00084F8463000949DF818306046FFF7A8FF2C
:102F0000204604B010BD40B94FF0500383F3118840
:102F1000BFF36F8FBFF34F8FFEE7F0B583B00D4661
:102F20001446064601FB00F05030FFF7F3FD07465C
:102F300050B1002380F846300090234600F1500243
:102F400029463046FFF784FF384603B0F0BDF0B5A0
:102F500085B0019288B10F461D460446B1B1022DDD
:102F600020D1E36B012B1DD04FF0500383F3118868
:102F7000BFF36F8FBFF34F8FFEE74FF0500383F324
:102F80001188BFF36F8FBFF34F8FFEE7036C002BE9
:102F9000E5D04FF0500383F31188BFF36F8FBFF379
:102FA0004F8FFEE700F086FE064658B9019B002BC6
:102FB00048D04FF0500383F31188BFF36F8FBFF3F6
:102FC0004F8FFEE700263DE02A4639462046FFF7B0
:102FD00079FE636A7BB948B14FF0E0234FF080522D
:102FE000C3F8042DBFF34F8FBFF36F8FFFF7FCFBC8
:102FF000012005B0F0BD04F1240000F0C1FD00285F
:10300000F4D04FF0E0234FF08052C3F8042DBFF30B
:103010004F8FBFF36F8FE9E7FFF7E6FB0020E8E78C
:1030200002A800F0F3FD012619E0002384F84430E3
:1030300021E0002384F8453023E02046FFF78FFE8F
:1030400000F07EFCFFF7AEFBA26BE36B9A42BBD3B2
:10305000022DB9D0019B002BDED0002EE0D0FFF76F
:10306000C3FB00F0D3FBFFF79DFB94F8442052B262
:10307000B2F1FF3FD9D094F8452052B2B2F1FF3FF0
:10308000D7D0FFF7B1FB01A902A800F0CBFDD8B95A
:103090002046FFF7FBFD0028CFD0019904F1100076
:1030A00000F03AFD2046FFF75AFE00F049FC0028E8
:1030B000C8D14FF0E0234FF08052C3F8042DBFF386
:1030C0004F8FBFF36F8FBDE72046FFF748FE00F03C
:1030D00037FC00208DE72DE9F84390B10F461646E6
:1030E0001C460546B1B1022C20D1EB6B012B1DD043
:1030F0004FF0500383F31188BFF36F8FBFF34F8FEF
:10310000FEE74FF0500383F31188BFF36F8FBFF3D7
:103110004F8FFEE7036C002BE5D04FF0500383F395
:103120001188BFF36F8FBFF34F8FFEE7FFF760FC8F
:10313000EFF311894FF0500383F31188BFF36F8FC2
:10314000BFF34F8FAA6BEB6B9A4206D3022C04D0CD
:10315000002089F31188BDE8F88395F845804FFA7F
:1031600088F8AB6B224639462846FFF7ABFDB8F12D
:10317000FF3F06D008F101035BB285F8453001201E
:10318000E7E76B6A0BB90120E3E705F1240000F0E3
:10319000F7FC18B126B101203060DAE70120D8E74A
:1031A0000120D6E7F0B585B0019290B10F460446F4
:1031B000C1B100F07FFD064600BB019B002B5ED035
:1031C0004FF0500383F31188BFF36F8FBFF34F8F1E
:1031D000FEE74FF0500383F31188BFF36F8FBFF307
:1031E0004F8FFEE7036C002BE3D04FF0500383F3C7
:1031F0001188BFF36F8FBFF34F8FFEE700263EE0CD
:1032000039462046FFF799FD013DA563236923B99F
:10321000FFF7EAFA012005B0F0BD04F1100000F05C
:10322000AFFC0028F4D04FF0E0234FF08052C3F8F9
:10323000042DBFF34F8FBFF36F8FE9E7FFF7D4FA89
:103240000020E8E702A800F0E1FC012621E00023CD
:1032500084F8443029E0002384F845302BE02046F0
:10326000FFF77DFD00F06CFB09E02046FFF777FDDE
:1032700000F066FB2046FFF718FD00283FD1FFF75E
:1032800091FAA56B002DBBD1019B002BD6D0002E4F
:10329000D8D0FFF7A9FA00F0B9FAFFF783FA94F84B
:1032A00044305BB2B3F1FF3FD1D094F845305BB20C
:1032B000B3F1FF3FCFD0FFF797FA01A902A800F0C2
:1032C000B1FC0028D1D12046FFF7EFFC0028C6D082
:1032D000019904F1240000F01FFC2046FFF73FFD98
:1032E00000F02EFB0028CAD14FF0E0234FF08052AF
:1032F000C3F8042DBFF34F8FBFF36F8FBFE70020DC
:1033000089E700000023072B0CD8074A52F8332026
:103310000AB10133F7E7044A42F8331002EBC30362
:1033200058607047704700BF5444002070B5044691
:103330000D461646FFF736FA94F844305BB2B3F107
:10334000FF3F0DD094F845305BB2B3F1FF3F0BD097
:10335000FFF74AFAA36B5BB12046FFF700FD70BD93
:10336000002384F84430EDE7002384F84530EFE78C
:103370003246294604F1240000F0E6FBECE70000A9
:10338000084B1B681B6823B9074B4FF0FF321A60CC
:103390007047044B1B68DB68DB685A68024B1A6095
:1033A000704700BF98440020404900202DE9F047B5
:1033B00080460D4617469946089EDDF824A00A9CD3
:1033C0009200A521206BFDF705F8236B07F18042E1
:1033D000013A03EB820727F00707B5B34FF0000C63
:1033E000BCF10F0F0BD815F80C2004EB0C0383F87D
:1033F000342015F80C3013B10CF1010CF0E7002368
:1034000084F84330372E00D93726E662E66400257B
:103410002565201DFFF71FF904F11800FFF71BF9C0
:103420002461C6F13806A6616462656584F8585067
:103430004A4641463846FFF787F92060BAF1000F47
:1034400001D0CAF80040BDE8F087002384F834308A
:10345000D8E7000038B5002407E004EB84029300AD
:103460000E481844FFF7ECF80134372CF5D90C4D11
:103470002846FFF7E5F80B4C2046FFF7E1F80A482D
:10348000FFF7DEF80948FFF7DBF80948FFF7D8F83F
:10349000084B1D60084B1C6038BD00BFA0440020D5
:1034A00014490020284900204C4900207849002078
:1034B00064490020984400209C44002010B5044634
:1034C000FFF770F9224A136801331360214B1B6820
:1034D0005BB1214B1B686BB91E4B1B68DA6AE36A50
:1034E0009A4207D81B4B1C6004E01A4B1C601368FF
:1034F000012B29D0194A1368013313606364E06A11
:10350000174B1B68984201D9154B186000EB8000DF
:10351000211D144B03EB8000FFF7A0F8FFF764F9BF
:103520000D4B1B687BB10B4B1B68DA6AE36A9A424E
:1035300009D24FF0E0234FF08052C3F8042DBFF3BF
:103540004F8FBFF36F8F10BDFFF784FFD2E700BF2F
:103550000049002094440020604900200C490020CC
:1035600010490020A044002010B5044690F85930BE
:1035700063B1012B11D0022B0ED04FF0500383F317
:103580001188BFF36F8FBFF34F8FFEE7006BFFF71C
:103590003FFB2046FFF73CFB10BDFFF739FBFBE785
:1035A0000F4B1B68D3B110B5FFF7FCF80D4BDB6870
:1035B000DC68201DFFF776F80B4A1368013B1360A7
:1035C000074A1368013B1360FFF70EF92046FFF727
:1035D000CBFF034B1B68002BE6D110BD704700BF2B
:1035E00004490020784900200049002008B5FFF771
:1035F000D7FF074B1B68012BF9D94FF0E0234FF0A1
:103600008052C3F8042DBFF34F8FBFF36F8FEEE7E7
:10361000A044002070B504460D46174B1E68174B9A
:1036200018680430FFF73EF8B4F1FF3F0DD0344482
:10363000124B1B685C60A64210D9114B18680F4BE7
:1036400019680431FFF715F870BD002DEFD00B4B52
:10365000196804310B48FFF701F8F5E70A4B1868C1
:10366000064B19680431FFF704F8084B1B68A342A6
:10367000EAD9064B1C60E7E78C49002094440020FF
:103680009C440020644900209844002040490020C8
:1036900030B587B00B9C7CB10C9DB5B15C25049511
:1036A000049D5C2D1AD04FF0500383F31188BFF3B3
:1036B0006F8FBFF34F8FFEE74FF0500383F31188F6
:1036C000BFF36F8FBFF34F8FFEE74FF0500383F3CD
:1036D0001188BFF36F8FBFF34F8FFEE7049D0C9DE2
:1036E0002C63022485F8594000240394029505AC0C
:1036F00001940A9C0094FFF759FE0C98FFF7DEFE38
:10370000059807B030BD2DE9F04385B007468846DF
:1037100014461E469000FFF7FDF900B381465C2079
:10372000FFF7F8F90546B0B1C0F83090E5B10023D5
:1037300085F85930039302950D9B01930C9B0093E0
:103740003346224641463846FFF730FE2846FFF70B
:10375000B5FE012005E04846FFF75AFAE6E74FF0CC
:10376000FF3005B0BDE8F0834FF0FF30F9E700000F
:1037700010B588B000240594069407AA06A905A8E8
:10378000FEF746FF059B0293069B01930094234698
:10379000079A18491848FFF77BFF184B186040B18B
:1037A00000F04CFB012806D0B0F1FF3F18D008B064
:1037B00010BD0020F6E74FF0500383F31188BFF3EC
:1037C0006F8FBFF34F8F0E4B4FF0FF321A600D4BD0
:1037D00001221A600C4B00221A60FFF77DF8E6E721
:1037E0004FF0500383F31188BFF36F8FBFF34F8FF8
:1037F000FEE700BF34430008ED3500083C490020D7
:1038000040490020604900208C490020024A13688A
:1038100001331360704700BF08490020014B18684E
:10382000704700BF8C490020F8B53A4B1B68002B4D
:1038300069D1394B1D6801351D60C5B9374B1B680F
:103840001B6843B14FF0500383F31188BFF36F8FB0
:10385000BFF34F8FFEE7314A1168314B1868106093
:103860001960304A136801331360FFF789FD2E4B4E
:103870001B68AB423DD900272C4B1B68DB6A03EB6E
:1038800083039A002A4B9B58012B00D90127294B0F
:103890001B68002B3CD001273AE001271F4B1B6817
:1038A0001B6843B31D4B1B68DB68DC6863689D4283
:1038B00026D3261D3046FEF7F5FEA36A1BB104F1A0
:1038C0001800FEF7EFFEE36A1B4A1268934201D923
:1038D000194A136003EB83039A00314614481044DD
:1038E000FEF7BCFEE26A114B1B68DB6A9A42D4D237
:1038F000D4E70027D2E70C4B4FF0FF321A60BBE74A
:10390000094A1360B8E70D4A1368013313600027B2
:103910003846F8BD084900208C4900209844002012
:103920009C44002044490020404900209444002049
:10393000A044002090490020104900204849002060
:1039400038B5354B1B6843B94FF0500383F31188EA
:10395000BFF36F8FBFF34F8FFEE7FEF723FF2E4BB2
:103960001A68013A1A601B68002B4FD12B4B1B6859
:103970000BB900244BE00024294B1B681BB3284BD8
:10398000DB68DC6804F11800FEF78CFE251D284674
:10399000FEF788FEE06A234B1B68984201D9214B51
:1039A000186000EB800029461F4B03EB8000FEF7F8
:1039B00055FEE26A1D4B1B68DB6A9A42DCD31C4B46
:1039C00001221A60D8E70CB1FFF7DAFC194B1C682A
:1039D00084B9174B1C68D4B14FF0E0234FF08052EC
:1039E000C3F8042DBFF34F8FBFF36F8F01240EE098
:1039F000013C07D0FFF718FF0028F9D00C4B01223B
:103A00001A60F5E70B4B00221A60E2E70024FEF78C
:103A1000EBFE204638BD00BF0849002000490020C9
:103A20004C49002010490020A0440020944400206C
:103A3000904900204849002010B5A8B10446104B19
:103A40001B6843B14FF0500383F31188BFF36F8FAE
:103A5000BFF34F8FFEE7FFF7D9FE00212046FFF7A7
:103A6000D9FDFFF76DFF48B94FF0E0234FF08052CA
:103A7000C3F8042DBFF34F8FBFF36F8F10BD00BF8E
:103A8000084900201F4B1B681BB11F4B01221A6005
:103A900070471D4B00221A601C4B1B6803EB83010F
:103AA0008A001B498A585AB90BB1013BF6E74FF01F
:103AB000500383F31188BFF36F8FBFF34F8FFEE77F
:103AC00003EB830082000A4450684068506003EBB7
:103AD000830C4FEA8C020832114488420BD003EB6E
:103AE000830291000A4A0A445268D168094A116067
:103AF000064A13607047406862469100044A0A44CF
:103B00005060ECE70849002090490020104900204F
:103B1000A04400209444002058B110B50C46094A36
:103B200011681831FEF7A5FD01212046FFF772FD4F
:103B300010BD4FF0500383F31188BFF36F8FBFF3B5
:103B40004F8FFEE79444002038B570B10D461446FF
:103B50000A4A11681831FEF781FD0CB14FF0FF35AC
:103B600021462846FFF756FD38BD4FF0500383F33A
:103B70001188BFF36F8FBFF34F8FFEE7944400208F
:103B800038B5C368DC6824B304F118052846FEF78D
:103B900089FD184B1B682BBB251D2846FEF782FDAF
:103BA000E06A154B1B68984201D9134B186000EB73
:103BB00080002946114B03EB8000FEF74FFDE26ABF
:103BC0000F4B1B68DB6A9A4211D901200D4B18601C
:103BD00038BD4FF0500383F31188BFF36F8FBFF3ED
:103BE0004F8FFEE729460848FEF738FDE7E700203B
:103BF000EEE700BF0849002010490020A044002043
:103C000094440020904900204C490020034B1B683D
:103C10000360034B1B684360704700BF44490020AA
:103C20008C490020F8B5C8B10C460546F9B1FEF73D
:103C3000B9FD1B4B19686B68C81A2268B2F1FF3FC7
:103C400026D0184E36682F68B74201D08B4224D94F
:103C5000824215D80023236001241AE04FF050035C
:103C600083F31188BFF36F8FBFF34F8FFEE74FF0E1
:103C7000500383F31188BFF36F8FBFF34F8FFEE7BD
:103C80005B1A134423602846FFF7C0FF002400E0BE
:103C90000024FEF7A9FD2046F8BD0124F9E700BF86
:103CA0008C49002044490020014B01221A607047D2
:103CB00090490020054B1B6833B1054B1B680BB1C5
:103CC00000207047022070470120704760490020A3
:103CD0000849002000283BD038B504461E4B1B681D
:103CE000834208D04FF0500383F31188BFF36F8FE6
:103CF000BFF34F8FFEE7036D43B94FF0500383F3DB
:103D00001188BFF36F8FBFF34F8FFEE7013B036551
:103D1000C16AC26C91421DD00BB1002038BD051D97
:103D20002846FEF7BFFCE06CE062C0F13803A361F7
:103D30000A4B1B68984201D9084B186000EB8000C1
:103D40002946074B03EB8000FEF788FC0120E5E7DE
:103D5000002070470020E1E7944400201049002033
:103D6000A0440020064B1A6813682BB90123036096
:103D700023B9D368186870470023F8E7002070471C
:103D80009449002008B54160006191420CD8D21AD4
:103D900083699A4201D3012008BD011D094B1868AF
:103DA000FEF767FC0020F7E79A4201D2994206D25B
:103DB000011D054B1868FEF75CFC0020ECE70120B4
:103DC000EAE700BF984900209449002030B583B04D
:103DD000FEF7E8FC114B1B681BB1FEF705FD03B0B5
:103DE00030BD0F4D2846FEF72BFC0E4C2046FEF74B
:103DF00027FC0D4B1D600D4B1C60002300930C4BEA
:103E00000C4A10210A20FFF734F8044B18600028F0
:103E1000E3D00949FFF776FADFE700BFB84A002090
:103E20003C4A0020504A0020944900209849002034
:103E3000684A00209C4900203C43000810B588B027
:103E4000FFF7C4FF124B1B68CBB100240594069406
:103E500007AA06A905A8FEF7E7FB059B0293069BA8
:103E60000193022300932346079A0A490A48FFF761
:103E70000FFC0A4B186010B1012008B010BD4FF0C4
:103E8000500383F31188BFF36F8FBFF34F8FFEE7AB
:103E9000B84A002044430008A1410008BC4A002061
:103EA000B8B19C4603461848006858B300B585B0C1
:103EB00000910192029305291CDCFFF7FBFE02280A
:103EC00010D000231A4669460F480068FFF73FF8F4
:103ED00015E04FF0500383F31188BFF36F8FBFF3EA
:103EE0004F8FFEE70023069A694607480068FFF7F0
:103EF0002EF804E0002362466946FFF7ECF805B0AF
:103F00005DF804FB00207047B84A002070B582B00D
:103F10001B4B1B681A6862B3DB681E68DC68251DD2
:103F20002846FEF7BFFB236A2046984794F82830BE
:103F300013F0040FECD0A36933449E4207D26360B0
:103F4000246129460E4B1868FEF793FBE0E7002139
:103F500000910B4632462046FFF7A2FF0028D7D13A
:103F60004FF0500383F31188BFF36F8FBFF34F8F70
:103F7000FEE7044A106802490860136002B070BD91
:103F8000944900209849002038B50546FFF746FCC3
:103F90000446074B1B68834205D800232B60044B63
:103FA0001C60204638BDFFF7B1FF01232B60F6E708
:103FB000644A002070B582B006460D46174909686C
:103FC000C968CC68201DFEF76DFB94F828C01CF072
:103FD000040F08D12CF0010C84F828C0236A204675
:103FE000984702B070BDA16933462A463144204645
:103FF000FFF7C8FE0028F1D0002100910B463246A1
:104000002046FFF74DFF0028E8D14FF0500383F31F
:104010001188BFF36F8FBFF34F8FFEE794490020E5
:1040200070B582B006460C46FFF7F0FB01A8FFF71B
:10403000ABFF019B33BB05460CB9B04219D224B18A
:10404000124A12681268DAB901242246711B104B19
:104050001868FFF76BF9FFF773FCA8B94FF0E0237E
:104060004FF08052C3F8042DBFF34F8FBFF36F8F13
:104070000AE0FFF765FC29463046FFF79BFF03E0A7
:104080001C46E2E7FFF75CFC02B070BD98490020D7
:10409000B84A002010B588B002E0049B002B0FDA6C
:1040A000002204A93D4B1868FFF77CF8002873D064
:1040B000049B002BF1DA07990698059B9847ECE7DB
:1040C000069C636913B1201DFEF7ECFA03A8FFF705
:1040D0005BFF049B092BE3D8DFE803F005050530FF
:1040E00037500505303794F8283043F0010384F841
:1040F0002830059BA169024619442046FFF742FE7D
:104100000028CDD0236A2046984794F8283013F031
:10411000040FC5D0A269002100910B460598024406
:104120002046FFF7BDFE0028BAD14FF0500383F3BD
:104130001188BFF36F8FBFF34F8FFEE794F82830DD
:1041400023F0010384F82830AAE794F8283043F0DC
:10415000010384F828300599A16131B10346024674
:1041600001442046FFF70EFE9AE74FF0500383F319
:104170001188BFF36F8FBFF34F8FFEE794F828309D
:1041800013F0020F04D023F0010384F8283087E7EE
:104190002046FEF73DFD83E708B010BDB84A002079
:1041A00000B583B001A8FFF7DDFD0199FFF738FFE7
:1041B000FFF770FFF6E70000DFF834D0FCF71CFED5
:1041C0000C480D490D4A002302E0D458C450043372
:1041D000C4188C42F9D30A4A0A4C002301E0136048
:1041E0000432A242FBD3FCF737F8FCF779FC7047A6
:1041F0000000022000000020100000205C430008A6
:1042000010000020C04A0020FEE70000F8B500BF03
:10421000F8BC08BC9E467047F8B500BFF8BC08BCA7
:044220009E467047FF
:104224004D696E69426F74496E7075745175657528
:10423400650000004170706C69636174696F6E465B
:10424400534D00004D696E69426F74496E70757408
:1042540073000000426C696E6B4C45445461736B8F
:104264000000000064656661756C745461736B00D2
:1042740038420008000000000000000000000000B8
:104284000000000000020000180000000000000010
:104294000000000058420008000000000000000078
:1042A4000000000000000000000200000800000000
:1042B400000000000000000024420008000000008C
:1042C40000000000000000000000000000000000EA
:1042D4004842000800000000000000000000000048
:1042E40000000000000200001800000000000000B0
:1042F4000000000068420008000000000000000008
:10430400000000000000000000020000180000008F
:104314000000000000000000000000000000000099
:104324000102030406070809000000000102030457
:1043340049444C4500000000546D725100000000D7
:08434400546D722053766300F2
:08434C005CC1FF7F01000000CD
:044354003902000822
:044358001102000846
:10435C000024F4000100000010000000AAAAAAAA80
:04000005080041B9F5
:00000001FF
